{
  "_format": "hh-sol-artifact-1",
  "contractName": "PropertyToken",
  "sourceName": "contracts/PropertyToken.sol",
  "abi": [
    {
      "inputs": [],
      "stateMutability": "nonpayable",
      "type": "constructor"
    },
    {
      "inputs": [],
      "name": "ERC721EnumerableForbiddenBatchMint",
      "type": "error"
    },
    {
      "inputs": [
        {
          "internalType": "address",
          "name": "sender",
          "type": "address"
        },
        {
          "internalType": "uint256",
          "name": "tokenId",
          "type": "uint256"
        },
        {
          "internalType": "address",
          "name": "owner",
          "type": "address"
        }
      ],
      "name": "ERC721IncorrectOwner",
      "type": "error"
    },
    {
      "inputs": [
        {
          "internalType": "address",
          "name": "operator",
          "type": "address"
        },
        {
          "internalType": "uint256",
          "name": "tokenId",
          "type": "uint256"
        }
      ],
      "name": "ERC721InsufficientApproval",
      "type": "error"
    },
    {
      "inputs": [
        {
          "internalType": "address",
          "name": "approver",
          "type": "address"
        }
      ],
      "name": "ERC721InvalidApprover",
      "type": "error"
    },
    {
      "inputs": [
        {
          "internalType": "address",
          "name": "operator",
          "type": "address"
        }
      ],
      "name": "ERC721InvalidOperator",
      "type": "error"
    },
    {
      "inputs": [
        {
          "internalType": "address",
          "name": "owner",
          "type": "address"
        }
      ],
      "name": "ERC721InvalidOwner",
      "type": "error"
    },
    {
      "inputs": [
        {
          "internalType": "address",
          "name": "receiver",
          "type": "address"
        }
      ],
      "name": "ERC721InvalidReceiver",
      "type": "error"
    },
    {
      "inputs": [
        {
          "internalType": "address",
          "name": "sender",
          "type": "address"
        }
      ],
      "name": "ERC721InvalidSender",
      "type": "error"
    },
    {
      "inputs": [
        {
          "internalType": "uint256",
          "name": "tokenId",
          "type": "uint256"
        }
      ],
      "name": "ERC721NonexistentToken",
      "type": "error"
    },
    {
      "inputs": [
        {
          "internalType": "address",
          "name": "owner",
          "type": "address"
        },
        {
          "internalType": "uint256",
          "name": "index",
          "type": "uint256"
        }
      ],
      "name": "ERC721OutOfBoundsIndex",
      "type": "error"
    },
    {
      "inputs": [
        {
          "internalType": "address",
          "name": "owner",
          "type": "address"
        }
      ],
      "name": "OwnableInvalidOwner",
      "type": "error"
    },
    {
      "inputs": [
        {
          "internalType": "address",
          "name": "account",
          "type": "address"
        }
      ],
      "name": "OwnableUnauthorizedAccount",
      "type": "error"
    },
    {
      "anonymous": false,
      "inputs": [
        {
          "indexed": true,
          "internalType": "address",
          "name": "owner",
          "type": "address"
        },
        {
          "indexed": true,
          "internalType": "address",
          "name": "approved",
          "type": "address"
        },
        {
          "indexed": true,
          "internalType": "uint256",
          "name": "tokenId",
          "type": "uint256"
        }
      ],
      "name": "Approval",
      "type": "event"
    },
    {
      "anonymous": false,
      "inputs": [
        {
          "indexed": true,
          "internalType": "address",
          "name": "owner",
          "type": "address"
        },
        {
          "indexed": true,
          "internalType": "address",
          "name": "operator",
          "type": "address"
        },
        {
          "indexed": false,
          "internalType": "bool",
          "name": "approved",
          "type": "bool"
        }
      ],
      "name": "ApprovalForAll",
      "type": "event"
    },
    {
      "anonymous": false,
      "inputs": [
        {
          "indexed": true,
          "internalType": "address",
          "name": "previousOwner",
          "type": "address"
        },
        {
          "indexed": true,
          "internalType": "address",
          "name": "newOwner",
          "type": "address"
        }
      ],
      "name": "OwnershipTransferred",
      "type": "event"
    },
    {
      "anonymous": false,
      "inputs": [
        {
          "indexed": true,
          "internalType": "address",
          "name": "buyer",
          "type": "address"
        },
        {
          "indexed": true,
          "internalType": "address",
          "name": "seller",
          "type": "address"
        },
        {
          "indexed": true,
          "internalType": "uint256",
          "name": "tokenId",
          "type": "uint256"
        },
        {
          "indexed": false,
          "internalType": "uint256",
          "name": "price",
          "type": "uint256"
        }
      ],
      "name": "PropertyPurchased",
      "type": "event"
    },
    {
      "anonymous": false,
      "inputs": [
        {
          "indexed": true,
          "internalType": "address",
          "name": "from",
          "type": "address"
        },
        {
          "indexed": true,
          "internalType": "address",
          "name": "to",
          "type": "address"
        },
        {
          "indexed": true,
          "internalType": "uint256",
          "name": "tokenId",
          "type": "uint256"
        }
      ],
      "name": "Transfer",
      "type": "event"
    },
    {
      "inputs": [
        {
          "internalType": "address",
          "name": "to",
          "type": "address"
        },
        {
          "internalType": "uint256",
          "name": "tokenId",
          "type": "uint256"
        }
      ],
      "name": "approve",
      "outputs": [],
      "stateMutability": "nonpayable",
      "type": "function"
    },
    {
      "inputs": [
        {
          "internalType": "address",
          "name": "owner",
          "type": "address"
        }
      ],
      "name": "balanceOf",
      "outputs": [
        {
          "internalType": "uint256",
          "name": "",
          "type": "uint256"
        }
      ],
      "stateMutability": "view",
      "type": "function"
    },
    {
      "inputs": [
        {
          "internalType": "uint256",
          "name": "tokenId",
          "type": "uint256"
        }
      ],
      "name": "checkRentTerm",
      "outputs": [
        {
          "internalType": "bool",
          "name": "",
          "type": "bool"
        }
      ],
      "stateMutability": "view",
      "type": "function"
    },
    {
      "inputs": [],
      "name": "getAllProps",
      "outputs": [
        {
          "components": [
            {
              "internalType": "string",
              "name": "agreement",
              "type": "string"
            },
            {
              "internalType": "address",
              "name": "tenant",
              "type": "address"
            },
            {
              "internalType": "uint256",
              "name": "sellingPrice",
              "type": "uint256"
            },
            {
              "internalType": "uint256",
              "name": "rentingPrice",
              "type": "uint256"
            },
            {
              "internalType": "uint256",
              "name": "token",
              "type": "uint256"
            }
          ],
          "internalType": "struct PropertyToken.PropertyDetails[]",
          "name": "",
          "type": "tuple[]"
        }
      ],
      "stateMutability": "view",
      "type": "function"
    },
    {
      "inputs": [
        {
          "internalType": "uint256",
          "name": "tokenId",
          "type": "uint256"
        }
      ],
      "name": "getApproved",
      "outputs": [
        {
          "internalType": "address",
          "name": "",
          "type": "address"
        }
      ],
      "stateMutability": "view",
      "type": "function"
    },
    {
      "inputs": [
        {
          "internalType": "uint256",
          "name": "tokenId",
          "type": "uint256"
        }
      ],
      "name": "getOwnershipHistory",
      "outputs": [
        {
          "components": [
            {
              "internalType": "string",
              "name": "owningPower",
              "type": "string"
            },
            {
              "internalType": "address",
              "name": "owner",
              "type": "address"
            }
          ],
          "internalType": "struct PropertyToken.OwnershipDetails[]",
          "name": "",
          "type": "tuple[]"
        }
      ],
      "stateMutability": "view",
      "type": "function"
    },
    {
      "inputs": [
        {
          "internalType": "uint256",
          "name": "tokenId",
          "type": "uint256"
        }
      ],
      "name": "getPropertyDetails",
      "outputs": [
        {
          "components": [
            {
              "internalType": "string",
              "name": "agreement",
              "type": "string"
            },
            {
              "internalType": "address",
              "name": "tenant",
              "type": "address"
            },
            {
              "internalType": "uint256",
              "name": "sellingPrice",
              "type": "uint256"
            },
            {
              "internalType": "uint256",
              "name": "rentingPrice",
              "type": "uint256"
            },
            {
              "internalType": "uint256",
              "name": "token",
              "type": "uint256"
            }
          ],
          "internalType": "struct PropertyToken.PropertyDetails",
          "name": "",
          "type": "tuple"
        }
      ],
      "stateMutability": "view",
      "type": "function"
    },
    {
      "inputs": [
        {
          "internalType": "address",
          "name": "owner",
          "type": "address"
        },
        {
          "internalType": "address",
          "name": "operator",
          "type": "address"
        }
      ],
      "name": "isApprovedForAll",
      "outputs": [
        {
          "internalType": "bool",
          "name": "",
          "type": "bool"
        }
      ],
      "stateMutability": "view",
      "type": "function"
    },
    {
      "inputs": [
        {
          "internalType": "uint256",
          "name": "tokenId",
          "type": "uint256"
        }
      ],
      "name": "isRentDue",
      "outputs": [
        {
          "internalType": "bool",
          "name": "",
          "type": "bool"
        }
      ],
      "stateMutability": "view",
      "type": "function"
    },
    {
      "inputs": [
        {
          "internalType": "string",
          "name": "agreement",
          "type": "string"
        }
      ],
      "name": "mint",
      "outputs": [],
      "stateMutability": "nonpayable",
      "type": "function"
    },
    {
      "inputs": [],
      "name": "name",
      "outputs": [
        {
          "internalType": "string",
          "name": "",
          "type": "string"
        }
      ],
      "stateMutability": "view",
      "type": "function"
    },
    {
      "inputs": [],
      "name": "owner",
      "outputs": [
        {
          "internalType": "address",
          "name": "",
          "type": "address"
        }
      ],
      "stateMutability": "view",
      "type": "function"
    },
    {
      "inputs": [
        {
          "internalType": "uint256",
          "name": "tokenId",
          "type": "uint256"
        }
      ],
      "name": "ownerOf",
      "outputs": [
        {
          "internalType": "address",
          "name": "",
          "type": "address"
        }
      ],
      "stateMutability": "view",
      "type": "function"
    },
    {
      "inputs": [
        {
          "internalType": "uint256",
          "name": "tokenId",
          "type": "uint256"
        }
      ],
      "name": "payRent",
      "outputs": [],
      "stateMutability": "payable",
      "type": "function"
    },
    {
      "inputs": [
        {
          "internalType": "uint256",
          "name": "tokenId",
          "type": "uint256"
        }
      ],
      "name": "purchaseProperty",
      "outputs": [],
      "stateMutability": "payable",
      "type": "function"
    },
    {
      "inputs": [],
      "name": "renounceOwnership",
      "outputs": [],
      "stateMutability": "nonpayable",
      "type": "function"
    },
    {
      "inputs": [
        {
          "internalType": "uint256",
          "name": "tokenId",
          "type": "uint256"
        },
        {
          "internalType": "uint256",
          "name": "newPrice",
          "type": "uint256"
        }
      ],
      "name": "rentProperty",
      "outputs": [],
      "stateMutability": "nonpayable",
      "type": "function"
    },
    {
      "inputs": [
        {
          "internalType": "uint256",
          "name": "tokenId",
          "type": "uint256"
        }
      ],
      "name": "rentToTenant",
      "outputs": [],
      "stateMutability": "nonpayable",
      "type": "function"
    },
    {
      "inputs": [
        {
          "internalType": "address",
          "name": "from",
          "type": "address"
        },
        {
          "internalType": "address",
          "name": "to",
          "type": "address"
        },
        {
          "internalType": "uint256",
          "name": "tokenId",
          "type": "uint256"
        }
      ],
      "name": "safeTransferFrom",
      "outputs": [],
      "stateMutability": "nonpayable",
      "type": "function"
    },
    {
      "inputs": [
        {
          "internalType": "address",
          "name": "from",
          "type": "address"
        },
        {
          "internalType": "address",
          "name": "to",
          "type": "address"
        },
        {
          "internalType": "uint256",
          "name": "tokenId",
          "type": "uint256"
        },
        {
          "internalType": "bytes",
          "name": "data",
          "type": "bytes"
        }
      ],
      "name": "safeTransferFrom",
      "outputs": [],
      "stateMutability": "nonpayable",
      "type": "function"
    },
    {
      "inputs": [
        {
          "internalType": "uint256",
          "name": "tokenId",
          "type": "uint256"
        },
        {
          "internalType": "uint256",
          "name": "newPrice",
          "type": "uint256"
        }
      ],
      "name": "sellProperty",
      "outputs": [],
      "stateMutability": "nonpayable",
      "type": "function"
    },
    {
      "inputs": [
        {
          "internalType": "address",
          "name": "operator",
          "type": "address"
        },
        {
          "internalType": "bool",
          "name": "approved",
          "type": "bool"
        }
      ],
      "name": "setApprovalForAll",
      "outputs": [],
      "stateMutability": "nonpayable",
      "type": "function"
    },
    {
      "inputs": [
        {
          "internalType": "bytes4",
          "name": "interfaceId",
          "type": "bytes4"
        }
      ],
      "name": "supportsInterface",
      "outputs": [
        {
          "internalType": "bool",
          "name": "",
          "type": "bool"
        }
      ],
      "stateMutability": "view",
      "type": "function"
    },
    {
      "inputs": [],
      "name": "symbol",
      "outputs": [
        {
          "internalType": "string",
          "name": "",
          "type": "string"
        }
      ],
      "stateMutability": "view",
      "type": "function"
    },
    {
      "inputs": [
        {
          "internalType": "uint256",
          "name": "index",
          "type": "uint256"
        }
      ],
      "name": "tokenByIndex",
      "outputs": [
        {
          "internalType": "uint256",
          "name": "",
          "type": "uint256"
        }
      ],
      "stateMutability": "view",
      "type": "function"
    },
    {
      "inputs": [],
      "name": "tokenIdCounter",
      "outputs": [
        {
          "internalType": "uint256",
          "name": "",
          "type": "uint256"
        }
      ],
      "stateMutability": "view",
      "type": "function"
    },
    {
      "inputs": [
        {
          "internalType": "address",
          "name": "owner",
          "type": "address"
        },
        {
          "internalType": "uint256",
          "name": "index",
          "type": "uint256"
        }
      ],
      "name": "tokenOfOwnerByIndex",
      "outputs": [
        {
          "internalType": "uint256",
          "name": "",
          "type": "uint256"
        }
      ],
      "stateMutability": "view",
      "type": "function"
    },
    {
      "inputs": [
        {
          "internalType": "uint256",
          "name": "tokenId",
          "type": "uint256"
        }
      ],
      "name": "tokenURI",
      "outputs": [
        {
          "internalType": "string",
          "name": "",
          "type": "string"
        }
      ],
      "stateMutability": "view",
      "type": "function"
    },
    {
      "inputs": [],
      "name": "totalSupply",
      "outputs": [
        {
          "internalType": "uint256",
          "name": "",
          "type": "uint256"
        }
      ],
      "stateMutability": "view",
      "type": "function"
    },
    {
      "inputs": [
        {
          "internalType": "address",
          "name": "from",
          "type": "address"
        },
        {
          "internalType": "address",
          "name": "to",
          "type": "address"
        },
        {
          "internalType": "uint256",
          "name": "tokenId",
          "type": "uint256"
        }
      ],
      "name": "transferFrom",
      "outputs": [],
      "stateMutability": "nonpayable",
      "type": "function"
    },
    {
      "inputs": [
        {
          "internalType": "address",
          "name": "newOwner",
          "type": "address"
        }
      ],
      "name": "transferOwnership",
      "outputs": [],
      "stateMutability": "nonpayable",
      "type": "function"
    }
  ],
  "bytecode": "0x60806040523480156200001157600080fd5b50336040518060400160405280600a81526020017f447265616d546f6b656e000000000000000000000000000000000000000000008152506040518060400160405280600381526020017f445254000000000000000000000000000000000000000000000000000000000081525081600090816200009091906200047a565b508060019081620000a291906200047a565b505050600073ffffffffffffffffffffffffffffffffffffffff168173ffffffffffffffffffffffffffffffffffffffff16036200011a5760006040517f1e4fbdf7000000000000000000000000000000000000000000000000000000008152600401620001119190620005a6565b60405180910390fd5b6200012b816200013a60201b60201c565b506000600b81905550620005c3565b6000600a60009054906101000a900473ffffffffffffffffffffffffffffffffffffffff16905081600a60006101000a81548173ffffffffffffffffffffffffffffffffffffffff021916908373ffffffffffffffffffffffffffffffffffffffff1602179055508173ffffffffffffffffffffffffffffffffffffffff168173ffffffffffffffffffffffffffffffffffffffff167f8be0079c531659141344cd1fd0a4f28419497f9722a3daafe3b4186f6b6457e060405160405180910390a35050565b600081519050919050565b7f4e487b7100000000000000000000000000000000000000000000000000000000600052604160045260246000fd5b7f4e487b7100000000000000000000000000000000000000000000000000000000600052602260045260246000fd5b600060028204905060018216806200028257607f821691505b6020821081036200029857620002976200023a565b5b50919050565b60008190508160005260206000209050919050565b60006020601f8301049050919050565b600082821b905092915050565b600060088302620003027fffffffffffffffffffffffffffffffffffffffffffffffffffffffffffffffff82620002c3565b6200030e8683620002c3565b95508019841693508086168417925050509392505050565b6000819050919050565b6000819050919050565b60006200035b620003556200034f8462000326565b62000330565b62000326565b9050919050565b6000819050919050565b62000377836200033a565b6200038f620003868262000362565b848454620002d0565b825550505050565b600090565b620003a662000397565b620003b38184846200036c565b505050565b5b81811015620003db57620003cf6000826200039c565b600181019050620003b9565b5050565b601f8211156200042a57620003f4816200029e565b620003ff84620002b3565b810160208510156200040f578190505b620004276200041e85620002b3565b830182620003b8565b50505b505050565b600082821c905092915050565b60006200044f600019846008026200042f565b1980831691505092915050565b60006200046a83836200043c565b9150826002028217905092915050565b620004858262000200565b67ffffffffffffffff811115620004a157620004a06200020b565b5b620004ad825462000269565b620004ba828285620003df565b600060209050601f831160018114620004f25760008415620004dd578287015190505b620004e985826200045c565b86555062000559565b601f19841662000502866200029e565b60005b828110156200052c5784890151825560018201915060208501945060208101905062000505565b868310156200054c578489015162000548601f8916826200043c565b8355505b6001600288020188555050505b505050505050565b600073ffffffffffffffffffffffffffffffffffffffff82169050919050565b60006200058e8262000561565b9050919050565b620005a08162000581565b82525050565b6000602082019050620005bd600083018462000595565b92915050565b61439180620005d36000396000f3fe6080604052600436106101d85760003560e01c8063715018a611610102578063b88d4fde11610095578063e985e9c511610064578063e985e9c5146106d8578063ed46a8cf14610715578063f1dbaccb1461073e578063f2fde38b1461077b576101d8565b8063b88d4fde1461062d578063c87b56dd14610656578063d85d3d2714610693578063d9e8843f146106bc576101d8565b806397ae32a9116100d157806397ae32a91461055f57806398bdf6f51461059c578063a22cb465146105c7578063a38d11d8146105f0576101d8565b8063715018a6146104d657806379d9c439146104ed5780638da5cb5b1461050957806395d89b4114610534576101d8565b806323b872dd1161017a5780634f6ccce7116101495780634f6ccce7146103f45780636352211e146104315780636553c1e51461046e57806370a0823114610499576101d8565b806323b872dd1461033c5780632f745c59146103655780633ec4ebb7146103a257806342842e0e146103cb576101d8565b8063095ea7b3116101b6578063095ea7b314610282578063126dbe43146102ab57806317104ae3146102e857806318160ddd14610311576101d8565b806301ffc9a7146101dd57806306fdde031461021a578063081812fc14610245575b600080fd5b3480156101e957600080fd5b5061020460048036038101906101ff9190613171565b6107a4565b60405161021191906131b9565b60405180910390f35b34801561022657600080fd5b5061022f61081e565b60405161023c9190613264565b60405180910390f35b34801561025157600080fd5b5061026c600480360381019061026791906132bc565b6108b0565b604051610279919061332a565b60405180910390f35b34801561028e57600080fd5b506102a960048036038101906102a49190613371565b6108cc565b005b3480156102b757600080fd5b506102d260048036038101906102cd91906132bc565b6108e2565b6040516102df919061348f565b60405180910390f35b3480156102f457600080fd5b5061030f600480360381019061030a91906132bc565b610a15565b005b34801561031d57600080fd5b50610326610a85565b60405161033391906134c0565b60405180910390f35b34801561034857600080fd5b50610363600480360381019061035e91906134db565b610a92565b005b34801561037157600080fd5b5061038c60048036038101906103879190613371565b610b94565b60405161039991906134c0565b60405180910390f35b3480156103ae57600080fd5b506103c960048036038101906103c4919061352e565b610c3d565b005b3480156103d757600080fd5b506103f260048036038101906103ed91906134db565b610d3a565b005b34801561040057600080fd5b5061041b600480360381019061041691906132bc565b610d5a565b60405161042891906134c0565b60405180910390f35b34801561043d57600080fd5b50610458600480360381019061045391906132bc565b610dd0565b604051610465919061332a565b60405180910390f35b34801561047a57600080fd5b50610483610de2565b60405161049091906136a6565b60405180910390f35b3480156104a557600080fd5b506104c060048036038101906104bb91906136c8565b610fcc565b6040516104cd91906134c0565b60405180910390f35b3480156104e257600080fd5b506104eb611086565b005b610507600480360381019061050291906132bc565b61109a565b005b34801561051557600080fd5b5061051e611340565b60405161052b919061332a565b60405180910390f35b34801561054057600080fd5b5061054961136a565b6040516105569190613264565b60405180910390f35b34801561056b57600080fd5b50610586600480360381019061058191906132bc565b6113fc565b60405161059391906131b9565b60405180910390f35b3480156105a857600080fd5b506105b1611438565b6040516105be91906134c0565b60405180910390f35b3480156105d357600080fd5b506105ee60048036038101906105e99190613721565b61143e565b005b3480156105fc57600080fd5b50610617600480360381019061061291906132bc565b611454565b60405161062491906131b9565b60405180910390f35b34801561063957600080fd5b50610654600480360381019061064f9190613896565b611491565b005b34801561066257600080fd5b5061067d600480360381019061067891906132bc565b6114ae565b60405161068a9190613264565b60405180910390f35b34801561069f57600080fd5b506106ba60048036038101906106b591906139ba565b611517565b005b6106d660048036038101906106d191906132bc565b611742565b005b3480156106e457600080fd5b506106ff60048036038101906106fa9190613a03565b6117b8565b60405161070c91906131b9565b60405180910390f35b34801561072157600080fd5b5061073c6004803603810190610737919061352e565b61184c565b005b34801561074a57600080fd5b50610765600480360381019061076091906132bc565b611949565b6040516107729190613b42565b60405180910390f35b34801561078757600080fd5b506107a2600480360381019061079d91906136c8565b611aa3565b005b60007f780e9d63000000000000000000000000000000000000000000000000000000007bffffffffffffffffffffffffffffffffffffffffffffffffffffffff1916827bffffffffffffffffffffffffffffffffffffffffffffffffffffffff19161480610817575061081682611b29565b5b9050919050565b60606000805461082d90613b93565b80601f016020809104026020016040519081016040528092919081815260200182805461085990613b93565b80156108a65780601f1061087b576101008083540402835291602001916108a6565b820191906000526020600020905b81548152906001019060200180831161088957829003601f168201915b5050505050905090565b60006108bb82611c0b565b506108c582611c93565b9050919050565b6108de82826108d9611cd0565b611cd8565b5050565b6108ea613063565b600c60008381526020019081526020016000206040518060a001604052908160008201805461091890613b93565b80601f016020809104026020016040519081016040528092919081815260200182805461094490613b93565b80156109915780601f1061096657610100808354040283529160200191610991565b820191906000526020600020905b81548152906001019060200180831161097457829003601f168201915b505050505081526020016001820160009054906101000a900473ffffffffffffffffffffffffffffffffffffffff1673ffffffffffffffffffffffffffffffffffffffff1673ffffffffffffffffffffffffffffffffffffffff16815260200160028201548152602001600382015481526020016004820154815250509050919050565b610a1d611cea565b6040518060600160405280600c6000848152602001908152602001600020600301548152602001428152602001428152506010600083815260200190815260200160002060008201518160000155602082015181600101556040820151816002015590505050565b6000600880549050905090565b600073ffffffffffffffffffffffffffffffffffffffff168273ffffffffffffffffffffffffffffffffffffffff1603610b045760006040517f64a0ae92000000000000000000000000000000000000000000000000000000008152600401610afb919061332a565b60405180910390fd5b6000610b188383610b13611cd0565b611d71565b90508373ffffffffffffffffffffffffffffffffffffffff168173ffffffffffffffffffffffffffffffffffffffff1614610b8e578382826040517f64283d7b000000000000000000000000000000000000000000000000000000008152600401610b8593929190613bc4565b60405180910390fd5b50505050565b6000610b9f83610fcc565b8210610be45782826040517fa57d13dc000000000000000000000000000000000000000000000000000000008152600401610bdb929190613bfb565b60405180910390fd5b600660008473ffffffffffffffffffffffffffffffffffffffff1673ffffffffffffffffffffffffffffffffffffffff168152602001908152602001600020600083815260200190815260200160002054905092915050565b610c45611cea565b670de0b6b3a764000081610c599190613c53565b600c600084815260200190815260200160002060030181905550600c6000838152602001908152602001600020600e600084815260200190815260200160002060008201816000019081610cad9190613e57565b506001820160009054906101000a900473ffffffffffffffffffffffffffffffffffffffff168160010160006101000a81548173ffffffffffffffffffffffffffffffffffffffff021916908373ffffffffffffffffffffffffffffffffffffffff1602179055506002820154816002015560038201548160030155600482015481600401559050505050565b610d5583838360405180602001604052806000815250611491565b505050565b6000610d64610a85565b8210610daa576000826040517fa57d13dc000000000000000000000000000000000000000000000000000000008152600401610da1929190613bfb565b60405180910390fd5b60088281548110610dbe57610dbd613f3f565b5b90600052602060002001549050919050565b6000610ddb82611c0b565b9050919050565b6060600060118054905067ffffffffffffffff811115610e0557610e0461376b565b5b604051908082528060200260200182016040528015610e3e57816020015b610e2b613063565b815260200190600190039081610e235790505b50905060005b601180549050811015610fc457600c600060118381548110610e6957610e68613f3f565b5b906000526020600020015481526020019081526020016000206040518060a0016040529081600082018054610e9d90613b93565b80601f0160208091040260200160405190810160405280929190818152602001828054610ec990613b93565b8015610f165780601f10610eeb57610100808354040283529160200191610f16565b820191906000526020600020905b815481529060010190602001808311610ef957829003601f168201915b505050505081526020016001820160009054906101000a900473ffffffffffffffffffffffffffffffffffffffff1673ffffffffffffffffffffffffffffffffffffffff1673ffffffffffffffffffffffffffffffffffffffff1681526020016002820154815260200160038201548152602001600482015481525050828281518110610fa657610fa5613f3f565b5b60200260200101819052508080610fbc90613f6e565b915050610e44565b508091505090565b60008073ffffffffffffffffffffffffffffffffffffffff168273ffffffffffffffffffffffffffffffffffffffff160361103f5760006040517f89c62b64000000000000000000000000000000000000000000000000000000008152600401611036919061332a565b60405180910390fd5b600360008373ffffffffffffffffffffffffffffffffffffffff1673ffffffffffffffffffffffffffffffffffffffff168152602001908152602001600020549050919050565b61108e611cea565b6110986000611e8e565b565b600f6000828152602001908152602001600020600201543410156110f3576040517f08c379a00000000000000000000000000000000000000000000000000000000081526004016110ea90614028565b60405180910390fd5b60006110fe82610dd0565b90506000339050611110828285611f54565b600d6000600b54815260200190815260200160002060405180604001604052806040518060400160405280600581526020017f6f776e657200000000000000000000000000000000000000000000000000000081525081526020013373ffffffffffffffffffffffffffffffffffffffff16815250908060018154018082558091505060019003906000526020600020906002020160009091909190915060008201518160000190816111c39190614048565b5060208201518160010160006101000a81548173ffffffffffffffffffffffffffffffffffffffff021916908373ffffffffffffffffffffffffffffffffffffffff16021790555050508173ffffffffffffffffffffffffffffffffffffffff166108fc349081150290604051600060405180830381858888f19350505050158015611253573d6000803e3d6000fd5b50600f60008481526020019081526020016000206000808201600061127891906130a8565b6001820160006101000a81549073ffffffffffffffffffffffffffffffffffffffff021916905560028201600090556003820160009055600482016000905550506000600c600085815260200190815260200160002060020181905550828273ffffffffffffffffffffffffffffffffffffffff168273ffffffffffffffffffffffffffffffffffffffff167fffb1454b01d972af0c96e705dbb4911fd206f83b6f0172510ad27c695ee7a09a3460405161133391906134c0565b60405180910390a4505050565b6000600a60009054906101000a900473ffffffffffffffffffffffffffffffffffffffff16905090565b60606001805461137990613b93565b80601f01602080910402602001604051908101604052809291908181526020018280546113a590613b93565b80156113f25780601f106113c7576101008083540402835291602001916113f2565b820191906000526020600020905b8154815290600101906020018083116113d557829003601f168201915b5050505050905090565b600080601060008481526020019081526020016000206001015442611421919061411a565b9050600062278d0090508082101592505050919050565b600b5481565b611450611449611cd0565b83836120c1565b5050565b600080601060008481526020019081526020016000206002015442611479919061411a565b905060006301e2850090508082101592505050919050565b61149c848484610a92565b6114a884848484612230565b50505050565b60606114b982611c0b565b5060006114c46123e7565b905060008151116114e4576040518060200160405280600081525061150f565b806114ee846123fe565b6040516020016114ff92919061418a565b6040516020818303038152906040525b915050919050565b61151f611cea565b61152b33600b546124cc565b6040518060a001604052808281526020013373ffffffffffffffffffffffffffffffffffffffff1681526020016000815260200160008152602001600b54815250600c6000600b54815260200190815260200160002060008201518160000190816115969190614048565b5060208201518160010160006101000a81548173ffffffffffffffffffffffffffffffffffffffff021916908373ffffffffffffffffffffffffffffffffffffffff1602179055506040820151816002015560608201518160030155608082015181600401559050506011600b549080600181540180825580915050600190039060005260206000200160009091909190915055600d6000600b54815260200190815260200160002060405180604001604052806040518060400160405280600581526020017f6f776e657200000000000000000000000000000000000000000000000000000081525081526020013373ffffffffffffffffffffffffffffffffffffffff16815250908060018154018082558091505060019003906000526020600020906002020160009091909190915060008201518160000190816116dd9190614048565b5060208201518160010160006101000a81548173ffffffffffffffffffffffffffffffffffffffff021916908373ffffffffffffffffffffffffffffffffffffffff1602179055505050600b600081548092919061173a90613f6e565b919050555050565b6010600082815260200190815260200160002060000154341461179a576040517f08c379a0000000000000000000000000000000000000000000000000000000008152600401611791906141fa565b60405180910390fd5b42601060008381526020019081526020016000206001018190555050565b6000600560008473ffffffffffffffffffffffffffffffffffffffff1673ffffffffffffffffffffffffffffffffffffffff16815260200190815260200160002060008373ffffffffffffffffffffffffffffffffffffffff1673ffffffffffffffffffffffffffffffffffffffff16815260200190815260200160002060009054906101000a900460ff16905092915050565b611854611cea565b670de0b6b3a7640000816118689190613c53565b600c600084815260200190815260200160002060020181905550600c6000838152602001908152602001600020600f6000848152602001908152602001600020600082018160000190816118bc9190613e57565b506001820160009054906101000a900473ffffffffffffffffffffffffffffffffffffffff168160010160006101000a81548173ffffffffffffffffffffffffffffffffffffffff021916908373ffffffffffffffffffffffffffffffffffffffff1602179055506002820154816002015560038201548160030155600482015481600401559050505050565b6060600d6000838152602001908152602001600020805480602002602001604051908101604052809291908181526020016000905b82821015611a9857838290600052602060002090600202016040518060400160405290816000820180546119b190613b93565b80601f01602080910402602001604051908101604052809291908181526020018280546119dd90613b93565b8015611a2a5780601f106119ff57610100808354040283529160200191611a2a565b820191906000526020600020905b815481529060010190602001808311611a0d57829003601f168201915b505050505081526020016001820160009054906101000a900473ffffffffffffffffffffffffffffffffffffffff1673ffffffffffffffffffffffffffffffffffffffff1673ffffffffffffffffffffffffffffffffffffffff16815250508152602001906001019061197e565b505050509050919050565b611aab611cea565b600073ffffffffffffffffffffffffffffffffffffffff168173ffffffffffffffffffffffffffffffffffffffff1603611b1d5760006040517f1e4fbdf7000000000000000000000000000000000000000000000000000000008152600401611b14919061332a565b60405180910390fd5b611b2681611e8e565b50565b60007f80ac58cd000000000000000000000000000000000000000000000000000000007bffffffffffffffffffffffffffffffffffffffffffffffffffffffff1916827bffffffffffffffffffffffffffffffffffffffffffffffffffffffff19161480611bf457507f5b5e139f000000000000000000000000000000000000000000000000000000007bffffffffffffffffffffffffffffffffffffffffffffffffffffffff1916827bffffffffffffffffffffffffffffffffffffffffffffffffffffffff1916145b80611c045750611c03826124ea565b5b9050919050565b600080611c1783612554565b9050600073ffffffffffffffffffffffffffffffffffffffff168173ffffffffffffffffffffffffffffffffffffffff1603611c8a57826040517f7e273289000000000000000000000000000000000000000000000000000000008152600401611c8191906134c0565b60405180910390fd5b80915050919050565b60006004600083815260200190815260200160002060009054906101000a900473ffffffffffffffffffffffffffffffffffffffff169050919050565b600033905090565b611ce58383836001612591565b505050565b611cf2611cd0565b73ffffffffffffffffffffffffffffffffffffffff16611d10611340565b73ffffffffffffffffffffffffffffffffffffffff1614611d6f57611d33611cd0565b6040517f118cdaa7000000000000000000000000000000000000000000000000000000008152600401611d66919061332a565b60405180910390fd5b565b600080611d7f858585612756565b9050600073ffffffffffffffffffffffffffffffffffffffff168173ffffffffffffffffffffffffffffffffffffffff1603611dc357611dbe84612970565b611e02565b8473ffffffffffffffffffffffffffffffffffffffff168173ffffffffffffffffffffffffffffffffffffffff1614611e0157611e0081856129b9565b5b5b600073ffffffffffffffffffffffffffffffffffffffff168573ffffffffffffffffffffffffffffffffffffffff1603611e4457611e3f84612b1a565b611e83565b8473ffffffffffffffffffffffffffffffffffffffff168173ffffffffffffffffffffffffffffffffffffffff1614611e8257611e818585612beb565b5b5b809150509392505050565b6000600a60009054906101000a900473ffffffffffffffffffffffffffffffffffffffff16905081600a60006101000a81548173ffffffffffffffffffffffffffffffffffffffff021916908373ffffffffffffffffffffffffffffffffffffffff1602179055508173ffffffffffffffffffffffffffffffffffffffff168173ffffffffffffffffffffffffffffffffffffffff167f8be0079c531659141344cd1fd0a4f28419497f9722a3daafe3b4186f6b6457e060405160405180910390a35050565b600073ffffffffffffffffffffffffffffffffffffffff168273ffffffffffffffffffffffffffffffffffffffff1603611fc65760006040517f64a0ae92000000000000000000000000000000000000000000000000000000008152600401611fbd919061332a565b60405180910390fd5b6000611fd483836000611d71565b9050600073ffffffffffffffffffffffffffffffffffffffff168173ffffffffffffffffffffffffffffffffffffffff160361204757816040517f7e27328900000000000000000000000000000000000000000000000000000000815260040161203e91906134c0565b60405180910390fd5b8373ffffffffffffffffffffffffffffffffffffffff168173ffffffffffffffffffffffffffffffffffffffff16146120bb578382826040517f64283d7b0000000000000000000000000000000000000000000000000000000081526004016120b293929190613bc4565b60405180910390fd5b50505050565b600073ffffffffffffffffffffffffffffffffffffffff168273ffffffffffffffffffffffffffffffffffffffff160361213257816040517f5b08ba18000000000000000000000000000000000000000000000000000000008152600401612129919061332a565b60405180910390fd5b80600560008573ffffffffffffffffffffffffffffffffffffffff1673ffffffffffffffffffffffffffffffffffffffff16815260200190815260200160002060008473ffffffffffffffffffffffffffffffffffffffff1673ffffffffffffffffffffffffffffffffffffffff16815260200190815260200160002060006101000a81548160ff0219169083151502179055508173ffffffffffffffffffffffffffffffffffffffff168373ffffffffffffffffffffffffffffffffffffffff167f17307eab39ab6107e8899845ad3d59bd9653f200f220920489ca2b5937696c318360405161222391906131b9565b60405180910390a3505050565b60008373ffffffffffffffffffffffffffffffffffffffff163b11156123e1578273ffffffffffffffffffffffffffffffffffffffff1663150b7a02612274611cd0565b8685856040518563ffffffff1660e01b8152600401612296949392919061426f565b6020604051808303816000875af19250505080156122d257506040513d601f19601f820116820180604052508101906122cf91906142d0565b60015b612356573d8060008114612302576040519150601f19603f3d011682016040523d82523d6000602084013e612307565b606091505b50600081510361234e57836040517f64a0ae92000000000000000000000000000000000000000000000000000000008152600401612345919061332a565b60405180910390fd5b805181602001fd5b63150b7a0260e01b7bffffffffffffffffffffffffffffffffffffffffffffffffffffffff1916817bffffffffffffffffffffffffffffffffffffffffffffffffffffffff1916146123df57836040517f64a0ae920000000000000000000000000000000000000000000000000000000081526004016123d6919061332a565b60405180910390fd5b505b50505050565b606060405180602001604052806000815250905090565b60606000600161240d84612c76565b01905060008167ffffffffffffffff81111561242c5761242b61376b565b5b6040519080825280601f01601f19166020018201604052801561245e5781602001600182028036833780820191505090505b509050600082602001820190505b6001156124c1578080600190039150507f3031323334353637383961626364656600000000000000000000000000000000600a86061a8153600a85816124b5576124b46142fd565b5b0494506000850361246c575b819350505050919050565b6124e6828260405180602001604052806000815250612dc9565b5050565b60007f01ffc9a7000000000000000000000000000000000000000000000000000000007bffffffffffffffffffffffffffffffffffffffffffffffffffffffff1916827bffffffffffffffffffffffffffffffffffffffffffffffffffffffff1916149050919050565b60006002600083815260200190815260200160002060009054906101000a900473ffffffffffffffffffffffffffffffffffffffff169050919050565b80806125ca5750600073ffffffffffffffffffffffffffffffffffffffff168273ffffffffffffffffffffffffffffffffffffffff1614155b156126fe5760006125da84611c0b565b9050600073ffffffffffffffffffffffffffffffffffffffff168373ffffffffffffffffffffffffffffffffffffffff161415801561264557508273ffffffffffffffffffffffffffffffffffffffff168173ffffffffffffffffffffffffffffffffffffffff1614155b8015612658575061265681846117b8565b155b1561269a57826040517fa9fbf51f000000000000000000000000000000000000000000000000000000008152600401612691919061332a565b60405180910390fd5b81156126fc57838573ffffffffffffffffffffffffffffffffffffffff168273ffffffffffffffffffffffffffffffffffffffff167f8c5be1e5ebec7d5bd14f71427d1e84f3dd0314c0f7b2291e5b200ac8c7c3b92560405160405180910390a45b505b836004600085815260200190815260200160002060006101000a81548173ffffffffffffffffffffffffffffffffffffffff021916908373ffffffffffffffffffffffffffffffffffffffff16021790555050505050565b60008061276284612554565b9050600073ffffffffffffffffffffffffffffffffffffffff168373ffffffffffffffffffffffffffffffffffffffff16146127a4576127a3818486612de5565b5b600073ffffffffffffffffffffffffffffffffffffffff168173ffffffffffffffffffffffffffffffffffffffff1614612835576127e6600085600080612591565b6001600360008373ffffffffffffffffffffffffffffffffffffffff1673ffffffffffffffffffffffffffffffffffffffff168152602001908152602001600020600082825403925050819055505b600073ffffffffffffffffffffffffffffffffffffffff168573ffffffffffffffffffffffffffffffffffffffff16146128b8576001600360008773ffffffffffffffffffffffffffffffffffffffff1673ffffffffffffffffffffffffffffffffffffffff168152602001908152602001600020600082825401925050819055505b846002600086815260200190815260200160002060006101000a81548173ffffffffffffffffffffffffffffffffffffffff021916908373ffffffffffffffffffffffffffffffffffffffff160217905550838573ffffffffffffffffffffffffffffffffffffffff168273ffffffffffffffffffffffffffffffffffffffff167fddf252ad1be2c89b69c2b068fc378daa952ba7f163c4a11628f55a4df523b3ef60405160405180910390a4809150509392505050565b6008805490506009600083815260200190815260200160002081905550600881908060018154018082558091505060019003906000526020600020016000909190919091505550565b60006129c483610fcc565b9050600060076000848152602001908152602001600020549050818114612aa9576000600660008673ffffffffffffffffffffffffffffffffffffffff1673ffffffffffffffffffffffffffffffffffffffff168152602001908152602001600020600084815260200190815260200160002054905080600660008773ffffffffffffffffffffffffffffffffffffffff1673ffffffffffffffffffffffffffffffffffffffff168152602001908152602001600020600084815260200190815260200160002081905550816007600083815260200190815260200160002081905550505b6007600084815260200190815260200160002060009055600660008573ffffffffffffffffffffffffffffffffffffffff1673ffffffffffffffffffffffffffffffffffffffff16815260200190815260200160002060008381526020019081526020016000206000905550505050565b60006001600880549050612b2e919061411a565b9050600060096000848152602001908152602001600020549050600060088381548110612b5e57612b5d613f3f565b5b906000526020600020015490508060088381548110612b8057612b7f613f3f565b5b906000526020600020018190555081600960008381526020019081526020016000208190555060096000858152602001908152602001600020600090556008805480612bcf57612bce61432c565b5b6001900381819060005260206000200160009055905550505050565b60006001612bf884610fcc565b612c02919061411a565b905081600660008573ffffffffffffffffffffffffffffffffffffffff1673ffffffffffffffffffffffffffffffffffffffff168152602001908152602001600020600083815260200190815260200160002081905550806007600084815260200190815260200160002081905550505050565b600080600090507a184f03e93ff9f4daa797ed6e38ed64bf6a1f0100000000000000008310612cd4577a184f03e93ff9f4daa797ed6e38ed64bf6a1f0100000000000000008381612cca57612cc96142fd565b5b0492506040810190505b6d04ee2d6d415b85acef81000000008310612d11576d04ee2d6d415b85acef81000000008381612d0757612d066142fd565b5b0492506020810190505b662386f26fc100008310612d4057662386f26fc100008381612d3657612d356142fd565b5b0492506010810190505b6305f5e1008310612d69576305f5e1008381612d5f57612d5e6142fd565b5b0492506008810190505b6127108310612d8e576127108381612d8457612d836142fd565b5b0492506004810190505b60648310612db15760648381612da757612da66142fd565b5b0492506002810190505b600a8310612dc0576001810190505b80915050919050565b612dd38383612ea9565b612de06000848484612230565b505050565b612df0838383612fa2565b612ea457600073ffffffffffffffffffffffffffffffffffffffff168373ffffffffffffffffffffffffffffffffffffffff1603612e6557806040517f7e273289000000000000000000000000000000000000000000000000000000008152600401612e5c91906134c0565b60405180910390fd5b81816040517f177e802f000000000000000000000000000000000000000000000000000000008152600401612e9b929190613bfb565b60405180910390fd5b505050565b600073ffffffffffffffffffffffffffffffffffffffff168273ffffffffffffffffffffffffffffffffffffffff1603612f1b5760006040517f64a0ae92000000000000000000000000000000000000000000000000000000008152600401612f12919061332a565b60405180910390fd5b6000612f2983836000611d71565b9050600073ffffffffffffffffffffffffffffffffffffffff168173ffffffffffffffffffffffffffffffffffffffff1614612f9d5760006040517f73c6ac6e000000000000000000000000000000000000000000000000000000008152600401612f94919061332a565b60405180910390fd5b505050565b60008073ffffffffffffffffffffffffffffffffffffffff168373ffffffffffffffffffffffffffffffffffffffff161415801561305a57508273ffffffffffffffffffffffffffffffffffffffff168473ffffffffffffffffffffffffffffffffffffffff16148061301b575061301a84846117b8565b5b8061305957508273ffffffffffffffffffffffffffffffffffffffff1661304183611c93565b73ffffffffffffffffffffffffffffffffffffffff16145b5b90509392505050565b6040518060a0016040528060608152602001600073ffffffffffffffffffffffffffffffffffffffff1681526020016000815260200160008152602001600081525090565b5080546130b490613b93565b6000825580601f106130c657506130e5565b601f0160209004906000526020600020908101906130e491906130e8565b5b50565b5b808211156131015760008160009055506001016130e9565b5090565b6000604051905090565b600080fd5b600080fd5b60007fffffffff0000000000000000000000000000000000000000000000000000000082169050919050565b61314e81613119565b811461315957600080fd5b50565b60008135905061316b81613145565b92915050565b6000602082840312156131875761318661310f565b5b60006131958482850161315c565b91505092915050565b60008115159050919050565b6131b38161319e565b82525050565b60006020820190506131ce60008301846131aa565b92915050565b600081519050919050565b600082825260208201905092915050565b60005b8381101561320e5780820151818401526020810190506131f3565b60008484015250505050565b6000601f19601f8301169050919050565b6000613236826131d4565b61324081856131df565b93506132508185602086016131f0565b6132598161321a565b840191505092915050565b6000602082019050818103600083015261327e818461322b565b905092915050565b6000819050919050565b61329981613286565b81146132a457600080fd5b50565b6000813590506132b681613290565b92915050565b6000602082840312156132d2576132d161310f565b5b60006132e0848285016132a7565b91505092915050565b600073ffffffffffffffffffffffffffffffffffffffff82169050919050565b6000613314826132e9565b9050919050565b61332481613309565b82525050565b600060208201905061333f600083018461331b565b92915050565b61334e81613309565b811461335957600080fd5b50565b60008135905061336b81613345565b92915050565b600080604083850312156133885761338761310f565b5b60006133968582860161335c565b92505060206133a7858286016132a7565b9150509250929050565b600082825260208201905092915050565b60006133cd826131d4565b6133d781856133b1565b93506133e78185602086016131f0565b6133f08161321a565b840191505092915050565b61340481613309565b82525050565b61341381613286565b82525050565b600060a083016000830151848203600086015261343682826133c2565b915050602083015161344b60208601826133fb565b50604083015161345e604086018261340a565b506060830151613471606086018261340a565b506080830151613484608086018261340a565b508091505092915050565b600060208201905081810360008301526134a98184613419565b905092915050565b6134ba81613286565b82525050565b60006020820190506134d560008301846134b1565b92915050565b6000806000606084860312156134f4576134f361310f565b5b60006135028682870161335c565b93505060206135138682870161335c565b9250506040613524868287016132a7565b9150509250925092565b600080604083850312156135455761354461310f565b5b6000613553858286016132a7565b9250506020613564858286016132a7565b9150509250929050565b600081519050919050565b600082825260208201905092915050565b6000819050602082019050919050565b600060a08301600083015184820360008601526135b782826133c2565b91505060208301516135cc60208601826133fb565b5060408301516135df604086018261340a565b5060608301516135f2606086018261340a565b506080830151613605608086018261340a565b508091505092915050565b600061361c838361359a565b905092915050565b6000602082019050919050565b600061363c8261356e565b6136468185613579565b9350836020820285016136588561358a565b8060005b8581101561369457848403895281516136758582613610565b945061368083613624565b925060208a0199505060018101905061365c565b50829750879550505050505092915050565b600060208201905081810360008301526136c08184613631565b905092915050565b6000602082840312156136de576136dd61310f565b5b60006136ec8482850161335c565b91505092915050565b6136fe8161319e565b811461370957600080fd5b50565b60008135905061371b816136f5565b92915050565b600080604083850312156137385761373761310f565b5b60006137468582860161335c565b92505060206137578582860161370c565b9150509250929050565b600080fd5b600080fd5b7f4e487b7100000000000000000000000000000000000000000000000000000000600052604160045260246000fd5b6137a38261321a565b810181811067ffffffffffffffff821117156137c2576137c161376b565b5b80604052505050565b60006137d5613105565b90506137e1828261379a565b919050565b600067ffffffffffffffff8211156138015761380061376b565b5b61380a8261321a565b9050602081019050919050565b82818337600083830152505050565b6000613839613834846137e6565b6137cb565b90508281526020810184848401111561385557613854613766565b5b613860848285613817565b509392505050565b600082601f83011261387d5761387c613761565b5b813561388d848260208601613826565b91505092915050565b600080600080608085870312156138b0576138af61310f565b5b60006138be8782880161335c565b94505060206138cf8782880161335c565b93505060406138e0878288016132a7565b925050606085013567ffffffffffffffff81111561390157613900613114565b5b61390d87828801613868565b91505092959194509250565b600067ffffffffffffffff8211156139345761393361376b565b5b61393d8261321a565b9050602081019050919050565b600061395d61395884613919565b6137cb565b90508281526020810184848401111561397957613978613766565b5b613984848285613817565b509392505050565b600082601f8301126139a1576139a0613761565b5b81356139b184826020860161394a565b91505092915050565b6000602082840312156139d0576139cf61310f565b5b600082013567ffffffffffffffff8111156139ee576139ed613114565b5b6139fa8482850161398c565b91505092915050565b60008060408385031215613a1a57613a1961310f565b5b6000613a288582860161335c565b9250506020613a398582860161335c565b9150509250929050565b600081519050919050565b600082825260208201905092915050565b6000819050602082019050919050565b60006040830160008301518482036000860152613a8c82826133c2565b9150506020830151613aa160208601826133fb565b508091505092915050565b6000613ab88383613a6f565b905092915050565b6000602082019050919050565b6000613ad882613a43565b613ae28185613a4e565b935083602082028501613af485613a5f565b8060005b85811015613b305784840389528151613b118582613aac565b9450613b1c83613ac0565b925060208a01995050600181019050613af8565b50829750879550505050505092915050565b60006020820190508181036000830152613b5c8184613acd565b905092915050565b7f4e487b7100000000000000000000000000000000000000000000000000000000600052602260045260246000fd5b60006002820490506001821680613bab57607f821691505b602082108103613bbe57613bbd613b64565b5b50919050565b6000606082019050613bd9600083018661331b565b613be660208301856134b1565b613bf3604083018461331b565b949350505050565b6000604082019050613c10600083018561331b565b613c1d60208301846134b1565b9392505050565b7f4e487b7100000000000000000000000000000000000000000000000000000000600052601160045260246000fd5b6000613c5e82613286565b9150613c6983613286565b9250828202613c7781613286565b91508282048414831517613c8e57613c8d613c24565b5b5092915050565b600081549050613ca481613b93565b9050919050565b60008190508160005260206000209050919050565b60006020601f8301049050919050565b600082821b905092915050565b600060088302613d0d7fffffffffffffffffffffffffffffffffffffffffffffffffffffffffffffffff82613cd0565b613d178683613cd0565b95508019841693508086168417925050509392505050565b6000819050919050565b6000613d54613d4f613d4a84613286565b613d2f565b613286565b9050919050565b6000819050919050565b613d6e83613d39565b613d82613d7a82613d5b565b848454613cdd565b825550505050565b600090565b613d97613d8a565b613da2818484613d65565b505050565b5b81811015613dc657613dbb600082613d8f565b600181019050613da8565b5050565b601f821115613e0b57613ddc81613cab565b613de584613cc0565b81016020851015613df4578190505b613e08613e0085613cc0565b830182613da7565b50505b505050565b600082821c905092915050565b6000613e2e60001984600802613e10565b1980831691505092915050565b6000613e478383613e1d565b9150826002028217905092915050565b818103613e65575050613f3d565b613e6e82613c95565b67ffffffffffffffff811115613e8757613e8661376b565b5b613e918254613b93565b613e9c828285613dca565b6000601f831160018114613ecb5760008415613eb9578287015490505b613ec38582613e3b565b865550613f36565b601f198416613ed987613cab565b9650613ee486613cab565b60005b82811015613f0c57848901548255600182019150600185019450602081019050613ee7565b86831015613f295784890154613f25601f891682613e1d565b8355505b6001600288020188555050505b5050505050505b565b7f4e487b7100000000000000000000000000000000000000000000000000000000600052603260045260246000fd5b6000613f7982613286565b91507fffffffffffffffffffffffffffffffffffffffffffffffffffffffffffffffff8203613fab57613faa613c24565b5b600182019050919050565b7f496e73756666696369656e742066756e647320746f207075726368617365207460008201527f68652070726f7065727479000000000000000000000000000000000000000000602082015250565b6000614012602b836131df565b915061401d82613fb6565b604082019050919050565b6000602082019050818103600083015261404181614005565b9050919050565b614051826131d4565b67ffffffffffffffff81111561406a5761406961376b565b5b6140748254613b93565b61407f828285613dca565b600060209050601f8311600181146140b257600084156140a0578287015190505b6140aa8582613e3b565b865550614112565b601f1984166140c086613cab565b60005b828110156140e8578489015182556001820191506020850194506020810190506140c3565b868310156141055784890151614101601f891682613e1d565b8355505b6001600288020188555050505b505050505050565b600061412582613286565b915061413083613286565b925082820390508181111561414857614147613c24565b5b92915050565b600081905092915050565b6000614164826131d4565b61416e818561414e565b935061417e8185602086016131f0565b80840191505092915050565b60006141968285614159565b91506141a28284614159565b91508190509392505050565b7f496e636f72726563742072656e7420616d6f756e740000000000000000000000600082015250565b60006141e46015836131df565b91506141ef826141ae565b602082019050919050565b60006020820190508181036000830152614213816141d7565b9050919050565b600081519050919050565b600082825260208201905092915050565b60006142418261421a565b61424b8185614225565b935061425b8185602086016131f0565b6142648161321a565b840191505092915050565b6000608082019050614284600083018761331b565b614291602083018661331b565b61429e60408301856134b1565b81810360608301526142b08184614236565b905095945050505050565b6000815190506142ca81613145565b92915050565b6000602082840312156142e6576142e561310f565b5b60006142f4848285016142bb565b91505092915050565b7f4e487b7100000000000000000000000000000000000000000000000000000000600052601260045260246000fd5b7f4e487b7100000000000000000000000000000000000000000000000000000000600052603160045260246000fdfea2646970667358221220ad9363dae9747ce3e09b85d038b9412eef6898bca0985acaef6463edd778355764736f6c63430008140033",
  "linkReferences": {},
  "deployedLinkReferences": {}
}