{
  "_format": "hh-sol-artifact-1",
  "contractName": "PropertyToken",
  "sourceName": "contracts/PropertyToken.sol",
  "abi": [
    {
      "inputs": [],
      "stateMutability": "nonpayable",
      "type": "constructor"
    },
    {
      "inputs": [],
      "name": "ERC721EnumerableForbiddenBatchMint",
      "type": "error"
    },
    {
      "inputs": [
        {
          "internalType": "address",
          "name": "sender",
          "type": "address"
        },
        {
          "internalType": "uint256",
          "name": "tokenId",
          "type": "uint256"
        },
        {
          "internalType": "address",
          "name": "owner",
          "type": "address"
        }
      ],
      "name": "ERC721IncorrectOwner",
      "type": "error"
    },
    {
      "inputs": [
        {
          "internalType": "address",
          "name": "operator",
          "type": "address"
        },
        {
          "internalType": "uint256",
          "name": "tokenId",
          "type": "uint256"
        }
      ],
      "name": "ERC721InsufficientApproval",
      "type": "error"
    },
    {
      "inputs": [
        {
          "internalType": "address",
          "name": "approver",
          "type": "address"
        }
      ],
      "name": "ERC721InvalidApprover",
      "type": "error"
    },
    {
      "inputs": [
        {
          "internalType": "address",
          "name": "operator",
          "type": "address"
        }
      ],
      "name": "ERC721InvalidOperator",
      "type": "error"
    },
    {
      "inputs": [
        {
          "internalType": "address",
          "name": "owner",
          "type": "address"
        }
      ],
      "name": "ERC721InvalidOwner",
      "type": "error"
    },
    {
      "inputs": [
        {
          "internalType": "address",
          "name": "receiver",
          "type": "address"
        }
      ],
      "name": "ERC721InvalidReceiver",
      "type": "error"
    },
    {
      "inputs": [
        {
          "internalType": "address",
          "name": "sender",
          "type": "address"
        }
      ],
      "name": "ERC721InvalidSender",
      "type": "error"
    },
    {
      "inputs": [
        {
          "internalType": "uint256",
          "name": "tokenId",
          "type": "uint256"
        }
      ],
      "name": "ERC721NonexistentToken",
      "type": "error"
    },
    {
      "inputs": [
        {
          "internalType": "address",
          "name": "owner",
          "type": "address"
        },
        {
          "internalType": "uint256",
          "name": "index",
          "type": "uint256"
        }
      ],
      "name": "ERC721OutOfBoundsIndex",
      "type": "error"
    },
    {
      "inputs": [
        {
          "internalType": "address",
          "name": "owner",
          "type": "address"
        }
      ],
      "name": "OwnableInvalidOwner",
      "type": "error"
    },
    {
      "inputs": [
        {
          "internalType": "address",
          "name": "account",
          "type": "address"
        }
      ],
      "name": "OwnableUnauthorizedAccount",
      "type": "error"
    },
    {
      "anonymous": false,
      "inputs": [
        {
          "indexed": true,
          "internalType": "address",
          "name": "owner",
          "type": "address"
        },
        {
          "indexed": true,
          "internalType": "address",
          "name": "approved",
          "type": "address"
        },
        {
          "indexed": true,
          "internalType": "uint256",
          "name": "tokenId",
          "type": "uint256"
        }
      ],
      "name": "Approval",
      "type": "event"
    },
    {
      "anonymous": false,
      "inputs": [
        {
          "indexed": true,
          "internalType": "address",
          "name": "owner",
          "type": "address"
        },
        {
          "indexed": true,
          "internalType": "address",
          "name": "operator",
          "type": "address"
        },
        {
          "indexed": false,
          "internalType": "bool",
          "name": "approved",
          "type": "bool"
        }
      ],
      "name": "ApprovalForAll",
      "type": "event"
    },
    {
      "anonymous": false,
      "inputs": [
        {
          "indexed": true,
          "internalType": "address",
          "name": "previousOwner",
          "type": "address"
        },
        {
          "indexed": true,
          "internalType": "address",
          "name": "newOwner",
          "type": "address"
        }
      ],
      "name": "OwnershipTransferred",
      "type": "event"
    },
    {
      "anonymous": false,
      "inputs": [
        {
          "indexed": true,
          "internalType": "address",
          "name": "buyer",
          "type": "address"
        },
        {
          "indexed": true,
          "internalType": "address",
          "name": "seller",
          "type": "address"
        },
        {
          "indexed": true,
          "internalType": "uint256",
          "name": "tokenId",
          "type": "uint256"
        },
        {
          "indexed": false,
          "internalType": "uint256",
          "name": "price",
          "type": "uint256"
        }
      ],
      "name": "PropertyPurchased",
      "type": "event"
    },
    {
      "anonymous": false,
      "inputs": [
        {
          "indexed": true,
          "internalType": "address",
          "name": "from",
          "type": "address"
        },
        {
          "indexed": true,
          "internalType": "address",
          "name": "to",
          "type": "address"
        },
        {
          "indexed": true,
          "internalType": "uint256",
          "name": "tokenId",
          "type": "uint256"
        }
      ],
      "name": "Transfer",
      "type": "event"
    },
    {
      "inputs": [
        {
          "internalType": "address",
          "name": "to",
          "type": "address"
        },
        {
          "internalType": "uint256",
          "name": "tokenId",
          "type": "uint256"
        }
      ],
      "name": "approve",
      "outputs": [],
      "stateMutability": "nonpayable",
      "type": "function"
    },
    {
      "inputs": [
        {
          "internalType": "address",
          "name": "owner",
          "type": "address"
        }
      ],
      "name": "balanceOf",
      "outputs": [
        {
          "internalType": "uint256",
          "name": "",
          "type": "uint256"
        }
      ],
      "stateMutability": "view",
      "type": "function"
    },
    {
      "inputs": [
        {
          "internalType": "uint256",
          "name": "tokenId",
          "type": "uint256"
        }
      ],
      "name": "checkRentTerm",
      "outputs": [
        {
          "internalType": "bool",
          "name": "",
          "type": "bool"
        }
      ],
      "stateMutability": "view",
      "type": "function"
    },
    {
      "inputs": [],
      "name": "getAllProps",
      "outputs": [
        {
          "components": [
            {
              "internalType": "string",
              "name": "agreement",
              "type": "string"
            },
            {
              "internalType": "address",
              "name": "tenant",
              "type": "address"
            },
            {
              "internalType": "uint256",
              "name": "sellingPrice",
              "type": "uint256"
            },
            {
              "internalType": "uint256",
              "name": "rentingPrice",
              "type": "uint256"
            },
            {
              "internalType": "uint256",
              "name": "token",
              "type": "uint256"
            }
          ],
          "internalType": "struct PropertyToken.PropertyDetails[]",
          "name": "",
          "type": "tuple[]"
        }
      ],
      "stateMutability": "view",
      "type": "function"
    },
    {
      "inputs": [
        {
          "internalType": "uint256",
          "name": "tokenId",
          "type": "uint256"
        }
      ],
      "name": "getApproved",
      "outputs": [
        {
          "internalType": "address",
          "name": "",
          "type": "address"
        }
      ],
      "stateMutability": "view",
      "type": "function"
    },
    {
      "inputs": [
        {
          "internalType": "uint256",
          "name": "tokenId",
          "type": "uint256"
        }
      ],
      "name": "getOwnershipHistory",
      "outputs": [
        {
          "components": [
            {
              "internalType": "string",
              "name": "owningPower",
              "type": "string"
            },
            {
              "internalType": "address",
              "name": "owner",
              "type": "address"
            }
          ],
          "internalType": "struct PropertyToken.OwnershipDetails[]",
          "name": "",
          "type": "tuple[]"
        }
      ],
      "stateMutability": "view",
      "type": "function"
    },
    {
      "inputs": [
        {
          "internalType": "uint256",
          "name": "tokenId",
          "type": "uint256"
        }
      ],
      "name": "getPropertyDetails",
      "outputs": [
        {
          "components": [
            {
              "internalType": "string",
              "name": "agreement",
              "type": "string"
            },
            {
              "internalType": "address",
              "name": "tenant",
              "type": "address"
            },
            {
              "internalType": "uint256",
              "name": "sellingPrice",
              "type": "uint256"
            },
            {
              "internalType": "uint256",
              "name": "rentingPrice",
              "type": "uint256"
            },
            {
              "internalType": "uint256",
              "name": "token",
              "type": "uint256"
            }
          ],
          "internalType": "struct PropertyToken.PropertyDetails",
          "name": "",
          "type": "tuple"
        }
      ],
      "stateMutability": "view",
      "type": "function"
    },
    {
      "inputs": [
        {
          "internalType": "address",
          "name": "owner",
          "type": "address"
        },
        {
          "internalType": "address",
          "name": "operator",
          "type": "address"
        }
      ],
      "name": "isApprovedForAll",
      "outputs": [
        {
          "internalType": "bool",
          "name": "",
          "type": "bool"
        }
      ],
      "stateMutability": "view",
      "type": "function"
    },
    {
      "inputs": [
        {
          "internalType": "uint256",
          "name": "tokenId",
          "type": "uint256"
        }
      ],
      "name": "isRentDue",
      "outputs": [
        {
          "internalType": "bool",
          "name": "",
          "type": "bool"
        }
      ],
      "stateMutability": "view",
      "type": "function"
    },
    {
      "inputs": [
        {
          "internalType": "string",
          "name": "agreement",
          "type": "string"
        }
      ],
      "name": "mint",
      "outputs": [
        {
          "internalType": "uint256",
          "name": "",
          "type": "uint256"
        }
      ],
      "stateMutability": "nonpayable",
      "type": "function"
    },
    {
      "inputs": [],
      "name": "name",
      "outputs": [
        {
          "internalType": "string",
          "name": "",
          "type": "string"
        }
      ],
      "stateMutability": "view",
      "type": "function"
    },
    {
      "inputs": [],
      "name": "owner",
      "outputs": [
        {
          "internalType": "address",
          "name": "",
          "type": "address"
        }
      ],
      "stateMutability": "view",
      "type": "function"
    },
    {
      "inputs": [
        {
          "internalType": "uint256",
          "name": "tokenId",
          "type": "uint256"
        }
      ],
      "name": "ownerOf",
      "outputs": [
        {
          "internalType": "address",
          "name": "",
          "type": "address"
        }
      ],
      "stateMutability": "view",
      "type": "function"
    },
    {
      "inputs": [
        {
          "internalType": "uint256",
          "name": "tokenId",
          "type": "uint256"
        }
      ],
      "name": "payRent",
      "outputs": [],
      "stateMutability": "payable",
      "type": "function"
    },
    {
      "inputs": [
        {
          "internalType": "uint256",
          "name": "tokenId",
          "type": "uint256"
        }
      ],
      "name": "purchaseProperty",
      "outputs": [],
      "stateMutability": "payable",
      "type": "function"
    },
    {
      "inputs": [],
      "name": "renounceOwnership",
      "outputs": [],
      "stateMutability": "nonpayable",
      "type": "function"
    },
    {
      "inputs": [
        {
          "internalType": "uint256",
          "name": "tokenId",
          "type": "uint256"
        },
        {
          "internalType": "uint256",
          "name": "newPrice",
          "type": "uint256"
        }
      ],
      "name": "rentProperty",
      "outputs": [],
      "stateMutability": "nonpayable",
      "type": "function"
    },
    {
      "inputs": [
        {
          "internalType": "uint256",
          "name": "tokenId",
          "type": "uint256"
        }
      ],
      "name": "rentToTenant",
      "outputs": [],
      "stateMutability": "nonpayable",
      "type": "function"
    },
    {
      "inputs": [
        {
          "internalType": "address",
          "name": "from",
          "type": "address"
        },
        {
          "internalType": "address",
          "name": "to",
          "type": "address"
        },
        {
          "internalType": "uint256",
          "name": "tokenId",
          "type": "uint256"
        }
      ],
      "name": "safeTransferFrom",
      "outputs": [],
      "stateMutability": "nonpayable",
      "type": "function"
    },
    {
      "inputs": [
        {
          "internalType": "address",
          "name": "from",
          "type": "address"
        },
        {
          "internalType": "address",
          "name": "to",
          "type": "address"
        },
        {
          "internalType": "uint256",
          "name": "tokenId",
          "type": "uint256"
        },
        {
          "internalType": "bytes",
          "name": "data",
          "type": "bytes"
        }
      ],
      "name": "safeTransferFrom",
      "outputs": [],
      "stateMutability": "nonpayable",
      "type": "function"
    },
    {
      "inputs": [
        {
          "internalType": "uint256",
          "name": "tokenId",
          "type": "uint256"
        },
        {
          "internalType": "uint256",
          "name": "newPrice",
          "type": "uint256"
        }
      ],
      "name": "sellProperty",
      "outputs": [],
      "stateMutability": "nonpayable",
      "type": "function"
    },
    {
      "inputs": [
        {
          "internalType": "address",
          "name": "operator",
          "type": "address"
        },
        {
          "internalType": "bool",
          "name": "approved",
          "type": "bool"
        }
      ],
      "name": "setApprovalForAll",
      "outputs": [],
      "stateMutability": "nonpayable",
      "type": "function"
    },
    {
      "inputs": [
        {
          "internalType": "bytes4",
          "name": "interfaceId",
          "type": "bytes4"
        }
      ],
      "name": "supportsInterface",
      "outputs": [
        {
          "internalType": "bool",
          "name": "",
          "type": "bool"
        }
      ],
      "stateMutability": "view",
      "type": "function"
    },
    {
      "inputs": [],
      "name": "symbol",
      "outputs": [
        {
          "internalType": "string",
          "name": "",
          "type": "string"
        }
      ],
      "stateMutability": "view",
      "type": "function"
    },
    {
      "inputs": [
        {
          "internalType": "uint256",
          "name": "index",
          "type": "uint256"
        }
      ],
      "name": "tokenByIndex",
      "outputs": [
        {
          "internalType": "uint256",
          "name": "",
          "type": "uint256"
        }
      ],
      "stateMutability": "view",
      "type": "function"
    },
    {
      "inputs": [],
      "name": "tokenIdCounter",
      "outputs": [
        {
          "internalType": "uint256",
          "name": "",
          "type": "uint256"
        }
      ],
      "stateMutability": "view",
      "type": "function"
    },
    {
      "inputs": [
        {
          "internalType": "address",
          "name": "owner",
          "type": "address"
        },
        {
          "internalType": "uint256",
          "name": "index",
          "type": "uint256"
        }
      ],
      "name": "tokenOfOwnerByIndex",
      "outputs": [
        {
          "internalType": "uint256",
          "name": "",
          "type": "uint256"
        }
      ],
      "stateMutability": "view",
      "type": "function"
    },
    {
      "inputs": [
        {
          "internalType": "uint256",
          "name": "tokenId",
          "type": "uint256"
        }
      ],
      "name": "tokenURI",
      "outputs": [
        {
          "internalType": "string",
          "name": "",
          "type": "string"
        }
      ],
      "stateMutability": "view",
      "type": "function"
    },
    {
      "inputs": [],
      "name": "totalSupply",
      "outputs": [
        {
          "internalType": "uint256",
          "name": "",
          "type": "uint256"
        }
      ],
      "stateMutability": "view",
      "type": "function"
    },
    {
      "inputs": [
        {
          "internalType": "address",
          "name": "from",
          "type": "address"
        },
        {
          "internalType": "address",
          "name": "to",
          "type": "address"
        },
        {
          "internalType": "uint256",
          "name": "tokenId",
          "type": "uint256"
        }
      ],
      "name": "transferFrom",
      "outputs": [],
      "stateMutability": "nonpayable",
      "type": "function"
    },
    {
      "inputs": [
        {
          "internalType": "address",
          "name": "newOwner",
          "type": "address"
        }
      ],
      "name": "transferOwnership",
      "outputs": [],
      "stateMutability": "nonpayable",
      "type": "function"
    }
  ],
  "bytecode": "0x60806040523480156200001157600080fd5b50336040518060400160405280600a81526020017f447265616d546f6b656e000000000000000000000000000000000000000000008152506040518060400160405280600381526020017f445254000000000000000000000000000000000000000000000000000000000081525081600090816200009091906200047a565b508060019081620000a291906200047a565b505050600073ffffffffffffffffffffffffffffffffffffffff168173ffffffffffffffffffffffffffffffffffffffff16036200011a5760006040517f1e4fbdf7000000000000000000000000000000000000000000000000000000008152600401620001119190620005a6565b60405180910390fd5b6200012b816200013a60201b60201c565b506000600b81905550620005c3565b6000600a60009054906101000a900473ffffffffffffffffffffffffffffffffffffffff16905081600a60006101000a81548173ffffffffffffffffffffffffffffffffffffffff021916908373ffffffffffffffffffffffffffffffffffffffff1602179055508173ffffffffffffffffffffffffffffffffffffffff168173ffffffffffffffffffffffffffffffffffffffff167f8be0079c531659141344cd1fd0a4f28419497f9722a3daafe3b4186f6b6457e060405160405180910390a35050565b600081519050919050565b7f4e487b7100000000000000000000000000000000000000000000000000000000600052604160045260246000fd5b7f4e487b7100000000000000000000000000000000000000000000000000000000600052602260045260246000fd5b600060028204905060018216806200028257607f821691505b6020821081036200029857620002976200023a565b5b50919050565b60008190508160005260206000209050919050565b60006020601f8301049050919050565b600082821b905092915050565b600060088302620003027fffffffffffffffffffffffffffffffffffffffffffffffffffffffffffffffff82620002c3565b6200030e8683620002c3565b95508019841693508086168417925050509392505050565b6000819050919050565b6000819050919050565b60006200035b620003556200034f8462000326565b62000330565b62000326565b9050919050565b6000819050919050565b62000377836200033a565b6200038f620003868262000362565b848454620002d0565b825550505050565b600090565b620003a662000397565b620003b38184846200036c565b505050565b5b81811015620003db57620003cf6000826200039c565b600181019050620003b9565b5050565b601f8211156200042a57620003f4816200029e565b620003ff84620002b3565b810160208510156200040f578190505b620004276200041e85620002b3565b830182620003b8565b50505b505050565b600082821c905092915050565b60006200044f600019846008026200042f565b1980831691505092915050565b60006200046a83836200043c565b9150826002028217905092915050565b620004858262000200565b67ffffffffffffffff811115620004a157620004a06200020b565b5b620004ad825462000269565b620004ba828285620003df565b600060209050601f831160018114620004f25760008415620004dd578287015190505b620004e985826200045c565b86555062000559565b601f19841662000502866200029e565b60005b828110156200052c5784890151825560018201915060208501945060208101905062000505565b868310156200054c578489015162000548601f8916826200043c565b8355505b6001600288020188555050505b505050505050565b600073ffffffffffffffffffffffffffffffffffffffff82169050919050565b60006200058e8262000561565b9050919050565b620005a08162000581565b82525050565b6000602082019050620005bd600083018462000595565b92915050565b6143aa80620005d36000396000f3fe6080604052600436106101d85760003560e01c8063715018a611610102578063b88d4fde11610095578063e985e9c511610064578063e985e9c5146106ec578063ed46a8cf14610729578063f1dbaccb14610752578063f2fde38b1461078f576101d8565b8063b88d4fde1461062d578063c87b56dd14610656578063d85d3d2714610693578063d9e8843f146106d0576101d8565b806397ae32a9116100d157806397ae32a91461055f57806398bdf6f51461059c578063a22cb465146105c7578063a38d11d8146105f0576101d8565b8063715018a6146104d657806379d9c439146104ed5780638da5cb5b1461050957806395d89b4114610534576101d8565b806323b872dd1161017a5780634f6ccce7116101495780634f6ccce7146103f45780636352211e146104315780636553c1e51461046e57806370a0823114610499576101d8565b806323b872dd1461033c5780632f745c59146103655780633ec4ebb7146103a257806342842e0e146103cb576101d8565b8063095ea7b3116101b6578063095ea7b314610282578063126dbe43146102ab57806317104ae3146102e857806318160ddd14610311576101d8565b806301ffc9a7146101dd57806306fdde031461021a578063081812fc14610245575b600080fd5b3480156101e957600080fd5b5061020460048036038101906101ff919061318a565b6107b8565b60405161021191906131d2565b60405180910390f35b34801561022657600080fd5b5061022f610832565b60405161023c919061327d565b60405180910390f35b34801561025157600080fd5b5061026c600480360381019061026791906132d5565b6108c4565b6040516102799190613343565b60405180910390f35b34801561028e57600080fd5b506102a960048036038101906102a4919061338a565b6108e0565b005b3480156102b757600080fd5b506102d260048036038101906102cd91906132d5565b6108f6565b6040516102df91906134a8565b60405180910390f35b3480156102f457600080fd5b5061030f600480360381019061030a91906132d5565b610a29565b005b34801561031d57600080fd5b50610326610a99565b60405161033391906134d9565b60405180910390f35b34801561034857600080fd5b50610363600480360381019061035e91906134f4565b610aa6565b005b34801561037157600080fd5b5061038c6004803603810190610387919061338a565b610ba8565b60405161039991906134d9565b60405180910390f35b3480156103ae57600080fd5b506103c960048036038101906103c49190613547565b610c51565b005b3480156103d757600080fd5b506103f260048036038101906103ed91906134f4565b610d4e565b005b34801561040057600080fd5b5061041b600480360381019061041691906132d5565b610d6e565b60405161042891906134d9565b60405180910390f35b34801561043d57600080fd5b50610458600480360381019061045391906132d5565b610de4565b6040516104659190613343565b60405180910390f35b34801561047a57600080fd5b50610483610df6565b60405161049091906136bf565b60405180910390f35b3480156104a557600080fd5b506104c060048036038101906104bb91906136e1565b610fe0565b6040516104cd91906134d9565b60405180910390f35b3480156104e257600080fd5b506104eb61109a565b005b610507600480360381019061050291906132d5565b6110ae565b005b34801561051557600080fd5b5061051e611354565b60405161052b9190613343565b60405180910390f35b34801561054057600080fd5b5061054961137e565b604051610556919061327d565b60405180910390f35b34801561056b57600080fd5b50610586600480360381019061058191906132d5565b611410565b60405161059391906131d2565b60405180910390f35b3480156105a857600080fd5b506105b161144c565b6040516105be91906134d9565b60405180910390f35b3480156105d357600080fd5b506105ee60048036038101906105e9919061373a565b611452565b005b3480156105fc57600080fd5b50610617600480360381019061061291906132d5565b611468565b60405161062491906131d2565b60405180910390f35b34801561063957600080fd5b50610654600480360381019061064f91906138af565b6114a5565b005b34801561066257600080fd5b5061067d600480360381019061067891906132d5565b6114c2565b60405161068a919061327d565b60405180910390f35b34801561069f57600080fd5b506106ba60048036038101906106b591906139d3565b61152b565b6040516106c791906134d9565b60405180910390f35b6106ea60048036038101906106e591906132d5565b61175b565b005b3480156106f857600080fd5b50610713600480360381019061070e9190613a1c565b6117d1565b60405161072091906131d2565b60405180910390f35b34801561073557600080fd5b50610750600480360381019061074b9190613547565b611865565b005b34801561075e57600080fd5b50610779600480360381019061077491906132d5565b611962565b6040516107869190613b5b565b60405180910390f35b34801561079b57600080fd5b506107b660048036038101906107b191906136e1565b611abc565b005b60007f780e9d63000000000000000000000000000000000000000000000000000000007bffffffffffffffffffffffffffffffffffffffffffffffffffffffff1916827bffffffffffffffffffffffffffffffffffffffffffffffffffffffff1916148061082b575061082a82611b42565b5b9050919050565b60606000805461084190613bac565b80601f016020809104026020016040519081016040528092919081815260200182805461086d90613bac565b80156108ba5780601f1061088f576101008083540402835291602001916108ba565b820191906000526020600020905b81548152906001019060200180831161089d57829003601f168201915b5050505050905090565b60006108cf82611c24565b506108d982611cac565b9050919050565b6108f282826108ed611ce9565b611cf1565b5050565b6108fe61307c565b600c60008381526020019081526020016000206040518060a001604052908160008201805461092c90613bac565b80601f016020809104026020016040519081016040528092919081815260200182805461095890613bac565b80156109a55780601f1061097a576101008083540402835291602001916109a5565b820191906000526020600020905b81548152906001019060200180831161098857829003601f168201915b505050505081526020016001820160009054906101000a900473ffffffffffffffffffffffffffffffffffffffff1673ffffffffffffffffffffffffffffffffffffffff1673ffffffffffffffffffffffffffffffffffffffff16815260200160028201548152602001600382015481526020016004820154815250509050919050565b610a31611d03565b6040518060600160405280600c6000848152602001908152602001600020600301548152602001428152602001428152506010600083815260200190815260200160002060008201518160000155602082015181600101556040820151816002015590505050565b6000600880549050905090565b600073ffffffffffffffffffffffffffffffffffffffff168273ffffffffffffffffffffffffffffffffffffffff1603610b185760006040517f64a0ae92000000000000000000000000000000000000000000000000000000008152600401610b0f9190613343565b60405180910390fd5b6000610b2c8383610b27611ce9565b611d8a565b90508373ffffffffffffffffffffffffffffffffffffffff168173ffffffffffffffffffffffffffffffffffffffff1614610ba2578382826040517f64283d7b000000000000000000000000000000000000000000000000000000008152600401610b9993929190613bdd565b60405180910390fd5b50505050565b6000610bb383610fe0565b8210610bf85782826040517fa57d13dc000000000000000000000000000000000000000000000000000000008152600401610bef929190613c14565b60405180910390fd5b600660008473ffffffffffffffffffffffffffffffffffffffff1673ffffffffffffffffffffffffffffffffffffffff168152602001908152602001600020600083815260200190815260200160002054905092915050565b610c59611d03565b670de0b6b3a764000081610c6d9190613c6c565b600c600084815260200190815260200160002060030181905550600c6000838152602001908152602001600020600e600084815260200190815260200160002060008201816000019081610cc19190613e70565b506001820160009054906101000a900473ffffffffffffffffffffffffffffffffffffffff168160010160006101000a81548173ffffffffffffffffffffffffffffffffffffffff021916908373ffffffffffffffffffffffffffffffffffffffff1602179055506002820154816002015560038201548160030155600482015481600401559050505050565b610d69838383604051806020016040528060008152506114a5565b505050565b6000610d78610a99565b8210610dbe576000826040517fa57d13dc000000000000000000000000000000000000000000000000000000008152600401610db5929190613c14565b60405180910390fd5b60088281548110610dd257610dd1613f58565b5b90600052602060002001549050919050565b6000610def82611c24565b9050919050565b6060600060118054905067ffffffffffffffff811115610e1957610e18613784565b5b604051908082528060200260200182016040528015610e5257816020015b610e3f61307c565b815260200190600190039081610e375790505b50905060005b601180549050811015610fd857600c600060118381548110610e7d57610e7c613f58565b5b906000526020600020015481526020019081526020016000206040518060a0016040529081600082018054610eb190613bac565b80601f0160208091040260200160405190810160405280929190818152602001828054610edd90613bac565b8015610f2a5780601f10610eff57610100808354040283529160200191610f2a565b820191906000526020600020905b815481529060010190602001808311610f0d57829003601f168201915b505050505081526020016001820160009054906101000a900473ffffffffffffffffffffffffffffffffffffffff1673ffffffffffffffffffffffffffffffffffffffff1673ffffffffffffffffffffffffffffffffffffffff1681526020016002820154815260200160038201548152602001600482015481525050828281518110610fba57610fb9613f58565b5b60200260200101819052508080610fd090613f87565b915050610e58565b508091505090565b60008073ffffffffffffffffffffffffffffffffffffffff168273ffffffffffffffffffffffffffffffffffffffff16036110535760006040517f89c62b6400000000000000000000000000000000000000000000000000000000815260040161104a9190613343565b60405180910390fd5b600360008373ffffffffffffffffffffffffffffffffffffffff1673ffffffffffffffffffffffffffffffffffffffff168152602001908152602001600020549050919050565b6110a2611d03565b6110ac6000611ea7565b565b600f600082815260200190815260200160002060020154341015611107576040517f08c379a00000000000000000000000000000000000000000000000000000000081526004016110fe90614041565b60405180910390fd5b600061111282610de4565b90506000339050611124828285611f6d565b600d6000600b54815260200190815260200160002060405180604001604052806040518060400160405280600581526020017f6f776e657200000000000000000000000000000000000000000000000000000081525081526020013373ffffffffffffffffffffffffffffffffffffffff16815250908060018154018082558091505060019003906000526020600020906002020160009091909190915060008201518160000190816111d79190614061565b5060208201518160010160006101000a81548173ffffffffffffffffffffffffffffffffffffffff021916908373ffffffffffffffffffffffffffffffffffffffff16021790555050508173ffffffffffffffffffffffffffffffffffffffff166108fc349081150290604051600060405180830381858888f19350505050158015611267573d6000803e3d6000fd5b50600f60008481526020019081526020016000206000808201600061128c91906130c1565b6001820160006101000a81549073ffffffffffffffffffffffffffffffffffffffff021916905560028201600090556003820160009055600482016000905550506000600c600085815260200190815260200160002060020181905550828273ffffffffffffffffffffffffffffffffffffffff168273ffffffffffffffffffffffffffffffffffffffff167fffb1454b01d972af0c96e705dbb4911fd206f83b6f0172510ad27c695ee7a09a3460405161134791906134d9565b60405180910390a4505050565b6000600a60009054906101000a900473ffffffffffffffffffffffffffffffffffffffff16905090565b60606001805461138d90613bac565b80601f01602080910402602001604051908101604052809291908181526020018280546113b990613bac565b80156114065780601f106113db57610100808354040283529160200191611406565b820191906000526020600020905b8154815290600101906020018083116113e957829003601f168201915b5050505050905090565b6000806010600084815260200190815260200160002060010154426114359190614133565b9050600062278d0090508082101592505050919050565b600b5481565b61146461145d611ce9565b83836120da565b5050565b60008060106000848152602001908152602001600020600201544261148d9190614133565b905060006301e2850090508082101592505050919050565b6114b0848484610aa6565b6114bc84848484612249565b50505050565b60606114cd82611c24565b5060006114d8612400565b905060008151116114f85760405180602001604052806000815250611523565b8061150284612417565b6040516020016115139291906141a3565b6040516020818303038152906040525b915050919050565b6000611535611d03565b61154133600b546124e5565b6040518060a001604052808381526020013373ffffffffffffffffffffffffffffffffffffffff1681526020016000815260200160008152602001600b54815250600c6000600b54815260200190815260200160002060008201518160000190816115ac9190614061565b5060208201518160010160006101000a81548173ffffffffffffffffffffffffffffffffffffffff021916908373ffffffffffffffffffffffffffffffffffffffff1602179055506040820151816002015560608201518160030155608082015181600401559050506011600b549080600181540180825580915050600190039060005260206000200160009091909190915055600d6000600b54815260200190815260200160002060405180604001604052806040518060400160405280600581526020017f6f776e657200000000000000000000000000000000000000000000000000000081525081526020013373ffffffffffffffffffffffffffffffffffffffff16815250908060018154018082558091505060019003906000526020600020906002020160009091909190915060008201518160000190816116f39190614061565b5060208201518160010160006101000a81548173ffffffffffffffffffffffffffffffffffffffff021916908373ffffffffffffffffffffffffffffffffffffffff1602179055505050600b600081548092919061175090613f87565b919050559050919050565b601060008281526020019081526020016000206000015434146117b3576040517f08c379a00000000000000000000000000000000000000000000000000000000081526004016117aa90614213565b60405180910390fd5b42601060008381526020019081526020016000206001018190555050565b6000600560008473ffffffffffffffffffffffffffffffffffffffff1673ffffffffffffffffffffffffffffffffffffffff16815260200190815260200160002060008373ffffffffffffffffffffffffffffffffffffffff1673ffffffffffffffffffffffffffffffffffffffff16815260200190815260200160002060009054906101000a900460ff16905092915050565b61186d611d03565b670de0b6b3a7640000816118819190613c6c565b600c600084815260200190815260200160002060020181905550600c6000838152602001908152602001600020600f6000848152602001908152602001600020600082018160000190816118d59190613e70565b506001820160009054906101000a900473ffffffffffffffffffffffffffffffffffffffff168160010160006101000a81548173ffffffffffffffffffffffffffffffffffffffff021916908373ffffffffffffffffffffffffffffffffffffffff1602179055506002820154816002015560038201548160030155600482015481600401559050505050565b6060600d6000838152602001908152602001600020805480602002602001604051908101604052809291908181526020016000905b82821015611ab157838290600052602060002090600202016040518060400160405290816000820180546119ca90613bac565b80601f01602080910402602001604051908101604052809291908181526020018280546119f690613bac565b8015611a435780601f10611a1857610100808354040283529160200191611a43565b820191906000526020600020905b815481529060010190602001808311611a2657829003601f168201915b505050505081526020016001820160009054906101000a900473ffffffffffffffffffffffffffffffffffffffff1673ffffffffffffffffffffffffffffffffffffffff1673ffffffffffffffffffffffffffffffffffffffff168152505081526020019060010190611997565b505050509050919050565b611ac4611d03565b600073ffffffffffffffffffffffffffffffffffffffff168173ffffffffffffffffffffffffffffffffffffffff1603611b365760006040517f1e4fbdf7000000000000000000000000000000000000000000000000000000008152600401611b2d9190613343565b60405180910390fd5b611b3f81611ea7565b50565b60007f80ac58cd000000000000000000000000000000000000000000000000000000007bffffffffffffffffffffffffffffffffffffffffffffffffffffffff1916827bffffffffffffffffffffffffffffffffffffffffffffffffffffffff19161480611c0d57507f5b5e139f000000000000000000000000000000000000000000000000000000007bffffffffffffffffffffffffffffffffffffffffffffffffffffffff1916827bffffffffffffffffffffffffffffffffffffffffffffffffffffffff1916145b80611c1d5750611c1c82612503565b5b9050919050565b600080611c308361256d565b9050600073ffffffffffffffffffffffffffffffffffffffff168173ffffffffffffffffffffffffffffffffffffffff1603611ca357826040517f7e273289000000000000000000000000000000000000000000000000000000008152600401611c9a91906134d9565b60405180910390fd5b80915050919050565b60006004600083815260200190815260200160002060009054906101000a900473ffffffffffffffffffffffffffffffffffffffff169050919050565b600033905090565b611cfe83838360016125aa565b505050565b611d0b611ce9565b73ffffffffffffffffffffffffffffffffffffffff16611d29611354565b73ffffffffffffffffffffffffffffffffffffffff1614611d8857611d4c611ce9565b6040517f118cdaa7000000000000000000000000000000000000000000000000000000008152600401611d7f9190613343565b60405180910390fd5b565b600080611d9885858561276f565b9050600073ffffffffffffffffffffffffffffffffffffffff168173ffffffffffffffffffffffffffffffffffffffff1603611ddc57611dd784612989565b611e1b565b8473ffffffffffffffffffffffffffffffffffffffff168173ffffffffffffffffffffffffffffffffffffffff1614611e1a57611e1981856129d2565b5b5b600073ffffffffffffffffffffffffffffffffffffffff168573ffffffffffffffffffffffffffffffffffffffff1603611e5d57611e5884612b33565b611e9c565b8473ffffffffffffffffffffffffffffffffffffffff168173ffffffffffffffffffffffffffffffffffffffff1614611e9b57611e9a8585612c04565b5b5b809150509392505050565b6000600a60009054906101000a900473ffffffffffffffffffffffffffffffffffffffff16905081600a60006101000a81548173ffffffffffffffffffffffffffffffffffffffff021916908373ffffffffffffffffffffffffffffffffffffffff1602179055508173ffffffffffffffffffffffffffffffffffffffff168173ffffffffffffffffffffffffffffffffffffffff167f8be0079c531659141344cd1fd0a4f28419497f9722a3daafe3b4186f6b6457e060405160405180910390a35050565b600073ffffffffffffffffffffffffffffffffffffffff168273ffffffffffffffffffffffffffffffffffffffff1603611fdf5760006040517f64a0ae92000000000000000000000000000000000000000000000000000000008152600401611fd69190613343565b60405180910390fd5b6000611fed83836000611d8a565b9050600073ffffffffffffffffffffffffffffffffffffffff168173ffffffffffffffffffffffffffffffffffffffff160361206057816040517f7e27328900000000000000000000000000000000000000000000000000000000815260040161205791906134d9565b60405180910390fd5b8373ffffffffffffffffffffffffffffffffffffffff168173ffffffffffffffffffffffffffffffffffffffff16146120d4578382826040517f64283d7b0000000000000000000000000000000000000000000000000000000081526004016120cb93929190613bdd565b60405180910390fd5b50505050565b600073ffffffffffffffffffffffffffffffffffffffff168273ffffffffffffffffffffffffffffffffffffffff160361214b57816040517f5b08ba180000000000000000000000000000000000000000000000000000000081526004016121429190613343565b60405180910390fd5b80600560008573ffffffffffffffffffffffffffffffffffffffff1673ffffffffffffffffffffffffffffffffffffffff16815260200190815260200160002060008473ffffffffffffffffffffffffffffffffffffffff1673ffffffffffffffffffffffffffffffffffffffff16815260200190815260200160002060006101000a81548160ff0219169083151502179055508173ffffffffffffffffffffffffffffffffffffffff168373ffffffffffffffffffffffffffffffffffffffff167f17307eab39ab6107e8899845ad3d59bd9653f200f220920489ca2b5937696c318360405161223c91906131d2565b60405180910390a3505050565b60008373ffffffffffffffffffffffffffffffffffffffff163b11156123fa578273ffffffffffffffffffffffffffffffffffffffff1663150b7a0261228d611ce9565b8685856040518563ffffffff1660e01b81526004016122af9493929190614288565b6020604051808303816000875af19250505080156122eb57506040513d601f19601f820116820180604052508101906122e891906142e9565b60015b61236f573d806000811461231b576040519150601f19603f3d011682016040523d82523d6000602084013e612320565b606091505b50600081510361236757836040517f64a0ae9200000000000000000000000000000000000000000000000000000000815260040161235e9190613343565b60405180910390fd5b805181602001fd5b63150b7a0260e01b7bffffffffffffffffffffffffffffffffffffffffffffffffffffffff1916817bffffffffffffffffffffffffffffffffffffffffffffffffffffffff1916146123f857836040517f64a0ae920000000000000000000000000000000000000000000000000000000081526004016123ef9190613343565b60405180910390fd5b505b50505050565b606060405180602001604052806000815250905090565b60606000600161242684612c8f565b01905060008167ffffffffffffffff81111561244557612444613784565b5b6040519080825280601f01601f1916602001820160405280156124775781602001600182028036833780820191505090505b509050600082602001820190505b6001156124da578080600190039150507f3031323334353637383961626364656600000000000000000000000000000000600a86061a8153600a85816124ce576124cd614316565b5b04945060008503612485575b819350505050919050565b6124ff828260405180602001604052806000815250612de2565b5050565b60007f01ffc9a7000000000000000000000000000000000000000000000000000000007bffffffffffffffffffffffffffffffffffffffffffffffffffffffff1916827bffffffffffffffffffffffffffffffffffffffffffffffffffffffff1916149050919050565b60006002600083815260200190815260200160002060009054906101000a900473ffffffffffffffffffffffffffffffffffffffff169050919050565b80806125e35750600073ffffffffffffffffffffffffffffffffffffffff168273ffffffffffffffffffffffffffffffffffffffff1614155b156127175760006125f384611c24565b9050600073ffffffffffffffffffffffffffffffffffffffff168373ffffffffffffffffffffffffffffffffffffffff161415801561265e57508273ffffffffffffffffffffffffffffffffffffffff168173ffffffffffffffffffffffffffffffffffffffff1614155b8015612671575061266f81846117d1565b155b156126b357826040517fa9fbf51f0000000000000000000000000000000000000000000000000000000081526004016126aa9190613343565b60405180910390fd5b811561271557838573ffffffffffffffffffffffffffffffffffffffff168273ffffffffffffffffffffffffffffffffffffffff167f8c5be1e5ebec7d5bd14f71427d1e84f3dd0314c0f7b2291e5b200ac8c7c3b92560405160405180910390a45b505b836004600085815260200190815260200160002060006101000a81548173ffffffffffffffffffffffffffffffffffffffff021916908373ffffffffffffffffffffffffffffffffffffffff16021790555050505050565b60008061277b8461256d565b9050600073ffffffffffffffffffffffffffffffffffffffff168373ffffffffffffffffffffffffffffffffffffffff16146127bd576127bc818486612dfe565b5b600073ffffffffffffffffffffffffffffffffffffffff168173ffffffffffffffffffffffffffffffffffffffff161461284e576127ff6000856000806125aa565b6001600360008373ffffffffffffffffffffffffffffffffffffffff1673ffffffffffffffffffffffffffffffffffffffff168152602001908152602001600020600082825403925050819055505b600073ffffffffffffffffffffffffffffffffffffffff168573ffffffffffffffffffffffffffffffffffffffff16146128d1576001600360008773ffffffffffffffffffffffffffffffffffffffff1673ffffffffffffffffffffffffffffffffffffffff168152602001908152602001600020600082825401925050819055505b846002600086815260200190815260200160002060006101000a81548173ffffffffffffffffffffffffffffffffffffffff021916908373ffffffffffffffffffffffffffffffffffffffff160217905550838573ffffffffffffffffffffffffffffffffffffffff168273ffffffffffffffffffffffffffffffffffffffff167fddf252ad1be2c89b69c2b068fc378daa952ba7f163c4a11628f55a4df523b3ef60405160405180910390a4809150509392505050565b6008805490506009600083815260200190815260200160002081905550600881908060018154018082558091505060019003906000526020600020016000909190919091505550565b60006129dd83610fe0565b9050600060076000848152602001908152602001600020549050818114612ac2576000600660008673ffffffffffffffffffffffffffffffffffffffff1673ffffffffffffffffffffffffffffffffffffffff168152602001908152602001600020600084815260200190815260200160002054905080600660008773ffffffffffffffffffffffffffffffffffffffff1673ffffffffffffffffffffffffffffffffffffffff168152602001908152602001600020600084815260200190815260200160002081905550816007600083815260200190815260200160002081905550505b6007600084815260200190815260200160002060009055600660008573ffffffffffffffffffffffffffffffffffffffff1673ffffffffffffffffffffffffffffffffffffffff16815260200190815260200160002060008381526020019081526020016000206000905550505050565b60006001600880549050612b479190614133565b9050600060096000848152602001908152602001600020549050600060088381548110612b7757612b76613f58565b5b906000526020600020015490508060088381548110612b9957612b98613f58565b5b906000526020600020018190555081600960008381526020019081526020016000208190555060096000858152602001908152602001600020600090556008805480612be857612be7614345565b5b6001900381819060005260206000200160009055905550505050565b60006001612c1184610fe0565b612c1b9190614133565b905081600660008573ffffffffffffffffffffffffffffffffffffffff1673ffffffffffffffffffffffffffffffffffffffff168152602001908152602001600020600083815260200190815260200160002081905550806007600084815260200190815260200160002081905550505050565b600080600090507a184f03e93ff9f4daa797ed6e38ed64bf6a1f0100000000000000008310612ced577a184f03e93ff9f4daa797ed6e38ed64bf6a1f0100000000000000008381612ce357612ce2614316565b5b0492506040810190505b6d04ee2d6d415b85acef81000000008310612d2a576d04ee2d6d415b85acef81000000008381612d2057612d1f614316565b5b0492506020810190505b662386f26fc100008310612d5957662386f26fc100008381612d4f57612d4e614316565b5b0492506010810190505b6305f5e1008310612d82576305f5e1008381612d7857612d77614316565b5b0492506008810190505b6127108310612da7576127108381612d9d57612d9c614316565b5b0492506004810190505b60648310612dca5760648381612dc057612dbf614316565b5b0492506002810190505b600a8310612dd9576001810190505b80915050919050565b612dec8383612ec2565b612df96000848484612249565b505050565b612e09838383612fbb565b612ebd57600073ffffffffffffffffffffffffffffffffffffffff168373ffffffffffffffffffffffffffffffffffffffff1603612e7e57806040517f7e273289000000000000000000000000000000000000000000000000000000008152600401612e7591906134d9565b60405180910390fd5b81816040517f177e802f000000000000000000000000000000000000000000000000000000008152600401612eb4929190613c14565b60405180910390fd5b505050565b600073ffffffffffffffffffffffffffffffffffffffff168273ffffffffffffffffffffffffffffffffffffffff1603612f345760006040517f64a0ae92000000000000000000000000000000000000000000000000000000008152600401612f2b9190613343565b60405180910390fd5b6000612f4283836000611d8a565b9050600073ffffffffffffffffffffffffffffffffffffffff168173ffffffffffffffffffffffffffffffffffffffff1614612fb65760006040517f73c6ac6e000000000000000000000000000000000000000000000000000000008152600401612fad9190613343565b60405180910390fd5b505050565b60008073ffffffffffffffffffffffffffffffffffffffff168373ffffffffffffffffffffffffffffffffffffffff161415801561307357508273ffffffffffffffffffffffffffffffffffffffff168473ffffffffffffffffffffffffffffffffffffffff161480613034575061303384846117d1565b5b8061307257508273ffffffffffffffffffffffffffffffffffffffff1661305a83611cac565b73ffffffffffffffffffffffffffffffffffffffff16145b5b90509392505050565b6040518060a0016040528060608152602001600073ffffffffffffffffffffffffffffffffffffffff1681526020016000815260200160008152602001600081525090565b5080546130cd90613bac565b6000825580601f106130df57506130fe565b601f0160209004906000526020600020908101906130fd9190613101565b5b50565b5b8082111561311a576000816000905550600101613102565b5090565b6000604051905090565b600080fd5b600080fd5b60007fffffffff0000000000000000000000000000000000000000000000000000000082169050919050565b61316781613132565b811461317257600080fd5b50565b6000813590506131848161315e565b92915050565b6000602082840312156131a05761319f613128565b5b60006131ae84828501613175565b91505092915050565b60008115159050919050565b6131cc816131b7565b82525050565b60006020820190506131e760008301846131c3565b92915050565b600081519050919050565b600082825260208201905092915050565b60005b8381101561322757808201518184015260208101905061320c565b60008484015250505050565b6000601f19601f8301169050919050565b600061324f826131ed565b61325981856131f8565b9350613269818560208601613209565b61327281613233565b840191505092915050565b600060208201905081810360008301526132978184613244565b905092915050565b6000819050919050565b6132b28161329f565b81146132bd57600080fd5b50565b6000813590506132cf816132a9565b92915050565b6000602082840312156132eb576132ea613128565b5b60006132f9848285016132c0565b91505092915050565b600073ffffffffffffffffffffffffffffffffffffffff82169050919050565b600061332d82613302565b9050919050565b61333d81613322565b82525050565b60006020820190506133586000830184613334565b92915050565b61336781613322565b811461337257600080fd5b50565b6000813590506133848161335e565b92915050565b600080604083850312156133a1576133a0613128565b5b60006133af85828601613375565b92505060206133c0858286016132c0565b9150509250929050565b600082825260208201905092915050565b60006133e6826131ed565b6133f081856133ca565b9350613400818560208601613209565b61340981613233565b840191505092915050565b61341d81613322565b82525050565b61342c8161329f565b82525050565b600060a083016000830151848203600086015261344f82826133db565b91505060208301516134646020860182613414565b5060408301516134776040860182613423565b50606083015161348a6060860182613423565b50608083015161349d6080860182613423565b508091505092915050565b600060208201905081810360008301526134c28184613432565b905092915050565b6134d38161329f565b82525050565b60006020820190506134ee60008301846134ca565b92915050565b60008060006060848603121561350d5761350c613128565b5b600061351b86828701613375565b935050602061352c86828701613375565b925050604061353d868287016132c0565b9150509250925092565b6000806040838503121561355e5761355d613128565b5b600061356c858286016132c0565b925050602061357d858286016132c0565b9150509250929050565b600081519050919050565b600082825260208201905092915050565b6000819050602082019050919050565b600060a08301600083015184820360008601526135d082826133db565b91505060208301516135e56020860182613414565b5060408301516135f86040860182613423565b50606083015161360b6060860182613423565b50608083015161361e6080860182613423565b508091505092915050565b600061363583836135b3565b905092915050565b6000602082019050919050565b600061365582613587565b61365f8185613592565b935083602082028501613671856135a3565b8060005b858110156136ad578484038952815161368e8582613629565b94506136998361363d565b925060208a01995050600181019050613675565b50829750879550505050505092915050565b600060208201905081810360008301526136d9818461364a565b905092915050565b6000602082840312156136f7576136f6613128565b5b600061370584828501613375565b91505092915050565b613717816131b7565b811461372257600080fd5b50565b6000813590506137348161370e565b92915050565b6000806040838503121561375157613750613128565b5b600061375f85828601613375565b925050602061377085828601613725565b9150509250929050565b600080fd5b600080fd5b7f4e487b7100000000000000000000000000000000000000000000000000000000600052604160045260246000fd5b6137bc82613233565b810181811067ffffffffffffffff821117156137db576137da613784565b5b80604052505050565b60006137ee61311e565b90506137fa82826137b3565b919050565b600067ffffffffffffffff82111561381a57613819613784565b5b61382382613233565b9050602081019050919050565b82818337600083830152505050565b600061385261384d846137ff565b6137e4565b90508281526020810184848401111561386e5761386d61377f565b5b613879848285613830565b509392505050565b600082601f8301126138965761389561377a565b5b81356138a684826020860161383f565b91505092915050565b600080600080608085870312156138c9576138c8613128565b5b60006138d787828801613375565b94505060206138e887828801613375565b93505060406138f9878288016132c0565b925050606085013567ffffffffffffffff81111561391a5761391961312d565b5b61392687828801613881565b91505092959194509250565b600067ffffffffffffffff82111561394d5761394c613784565b5b61395682613233565b9050602081019050919050565b600061397661397184613932565b6137e4565b9050828152602081018484840111156139925761399161377f565b5b61399d848285613830565b509392505050565b600082601f8301126139ba576139b961377a565b5b81356139ca848260208601613963565b91505092915050565b6000602082840312156139e9576139e8613128565b5b600082013567ffffffffffffffff811115613a0757613a0661312d565b5b613a13848285016139a5565b91505092915050565b60008060408385031215613a3357613a32613128565b5b6000613a4185828601613375565b9250506020613a5285828601613375565b9150509250929050565b600081519050919050565b600082825260208201905092915050565b6000819050602082019050919050565b60006040830160008301518482036000860152613aa582826133db565b9150506020830151613aba6020860182613414565b508091505092915050565b6000613ad18383613a88565b905092915050565b6000602082019050919050565b6000613af182613a5c565b613afb8185613a67565b935083602082028501613b0d85613a78565b8060005b85811015613b495784840389528151613b2a8582613ac5565b9450613b3583613ad9565b925060208a01995050600181019050613b11565b50829750879550505050505092915050565b60006020820190508181036000830152613b758184613ae6565b905092915050565b7f4e487b7100000000000000000000000000000000000000000000000000000000600052602260045260246000fd5b60006002820490506001821680613bc457607f821691505b602082108103613bd757613bd6613b7d565b5b50919050565b6000606082019050613bf26000830186613334565b613bff60208301856134ca565b613c0c6040830184613334565b949350505050565b6000604082019050613c296000830185613334565b613c3660208301846134ca565b9392505050565b7f4e487b7100000000000000000000000000000000000000000000000000000000600052601160045260246000fd5b6000613c778261329f565b9150613c828361329f565b9250828202613c908161329f565b91508282048414831517613ca757613ca6613c3d565b5b5092915050565b600081549050613cbd81613bac565b9050919050565b60008190508160005260206000209050919050565b60006020601f8301049050919050565b600082821b905092915050565b600060088302613d267fffffffffffffffffffffffffffffffffffffffffffffffffffffffffffffffff82613ce9565b613d308683613ce9565b95508019841693508086168417925050509392505050565b6000819050919050565b6000613d6d613d68613d638461329f565b613d48565b61329f565b9050919050565b6000819050919050565b613d8783613d52565b613d9b613d9382613d74565b848454613cf6565b825550505050565b600090565b613db0613da3565b613dbb818484613d7e565b505050565b5b81811015613ddf57613dd4600082613da8565b600181019050613dc1565b5050565b601f821115613e2457613df581613cc4565b613dfe84613cd9565b81016020851015613e0d578190505b613e21613e1985613cd9565b830182613dc0565b50505b505050565b600082821c905092915050565b6000613e4760001984600802613e29565b1980831691505092915050565b6000613e608383613e36565b9150826002028217905092915050565b818103613e7e575050613f56565b613e8782613cae565b67ffffffffffffffff811115613ea057613e9f613784565b5b613eaa8254613bac565b613eb5828285613de3565b6000601f831160018114613ee45760008415613ed2578287015490505b613edc8582613e54565b865550613f4f565b601f198416613ef287613cc4565b9650613efd86613cc4565b60005b82811015613f2557848901548255600182019150600185019450602081019050613f00565b86831015613f425784890154613f3e601f891682613e36565b8355505b6001600288020188555050505b5050505050505b565b7f4e487b7100000000000000000000000000000000000000000000000000000000600052603260045260246000fd5b6000613f928261329f565b91507fffffffffffffffffffffffffffffffffffffffffffffffffffffffffffffffff8203613fc457613fc3613c3d565b5b600182019050919050565b7f496e73756666696369656e742066756e647320746f207075726368617365207460008201527f68652070726f7065727479000000000000000000000000000000000000000000602082015250565b600061402b602b836131f8565b915061403682613fcf565b604082019050919050565b6000602082019050818103600083015261405a8161401e565b9050919050565b61406a826131ed565b67ffffffffffffffff81111561408357614082613784565b5b61408d8254613bac565b614098828285613de3565b600060209050601f8311600181146140cb57600084156140b9578287015190505b6140c38582613e54565b86555061412b565b601f1984166140d986613cc4565b60005b82811015614101578489015182556001820191506020850194506020810190506140dc565b8683101561411e578489015161411a601f891682613e36565b8355505b6001600288020188555050505b505050505050565b600061413e8261329f565b91506141498361329f565b925082820390508181111561416157614160613c3d565b5b92915050565b600081905092915050565b600061417d826131ed565b6141878185614167565b9350614197818560208601613209565b80840191505092915050565b60006141af8285614172565b91506141bb8284614172565b91508190509392505050565b7f496e636f72726563742072656e7420616d6f756e740000000000000000000000600082015250565b60006141fd6015836131f8565b9150614208826141c7565b602082019050919050565b6000602082019050818103600083015261422c816141f0565b9050919050565b600081519050919050565b600082825260208201905092915050565b600061425a82614233565b614264818561423e565b9350614274818560208601613209565b61427d81613233565b840191505092915050565b600060808201905061429d6000830187613334565b6142aa6020830186613334565b6142b760408301856134ca565b81810360608301526142c9818461424f565b905095945050505050565b6000815190506142e38161315e565b92915050565b6000602082840312156142ff576142fe613128565b5b600061430d848285016142d4565b91505092915050565b7f4e487b7100000000000000000000000000000000000000000000000000000000600052601260045260246000fd5b7f4e487b7100000000000000000000000000000000000000000000000000000000600052603160045260246000fdfea2646970667358221220cab7dfefcb7a1bcde6f06ff4a9b7acae629e645cfff3509c5408ff2237c6826864736f6c63430008140033",
  "linkReferences": {},
  "deployedLinkReferences": {}
}