{
  "_format": "hh-sol-artifact-1",
  "contractName": "PropertyToken",
  "sourceName": "contracts/PropertyToken.sol",
  "abi": [
    {
      "inputs": [],
      "stateMutability": "nonpayable",
      "type": "constructor"
    },
    {
      "inputs": [],
      "name": "ERC721EnumerableForbiddenBatchMint",
      "type": "error"
    },
    {
      "inputs": [
        {
          "internalType": "address",
          "name": "sender",
          "type": "address"
        },
        {
          "internalType": "uint256",
          "name": "tokenId",
          "type": "uint256"
        },
        {
          "internalType": "address",
          "name": "owner",
          "type": "address"
        }
      ],
      "name": "ERC721IncorrectOwner",
      "type": "error"
    },
    {
      "inputs": [
        {
          "internalType": "address",
          "name": "operator",
          "type": "address"
        },
        {
          "internalType": "uint256",
          "name": "tokenId",
          "type": "uint256"
        }
      ],
      "name": "ERC721InsufficientApproval",
      "type": "error"
    },
    {
      "inputs": [
        {
          "internalType": "address",
          "name": "approver",
          "type": "address"
        }
      ],
      "name": "ERC721InvalidApprover",
      "type": "error"
    },
    {
      "inputs": [
        {
          "internalType": "address",
          "name": "operator",
          "type": "address"
        }
      ],
      "name": "ERC721InvalidOperator",
      "type": "error"
    },
    {
      "inputs": [
        {
          "internalType": "address",
          "name": "owner",
          "type": "address"
        }
      ],
      "name": "ERC721InvalidOwner",
      "type": "error"
    },
    {
      "inputs": [
        {
          "internalType": "address",
          "name": "receiver",
          "type": "address"
        }
      ],
      "name": "ERC721InvalidReceiver",
      "type": "error"
    },
    {
      "inputs": [
        {
          "internalType": "address",
          "name": "sender",
          "type": "address"
        }
      ],
      "name": "ERC721InvalidSender",
      "type": "error"
    },
    {
      "inputs": [
        {
          "internalType": "uint256",
          "name": "tokenId",
          "type": "uint256"
        }
      ],
      "name": "ERC721NonexistentToken",
      "type": "error"
    },
    {
      "inputs": [
        {
          "internalType": "address",
          "name": "owner",
          "type": "address"
        },
        {
          "internalType": "uint256",
          "name": "index",
          "type": "uint256"
        }
      ],
      "name": "ERC721OutOfBoundsIndex",
      "type": "error"
    },
    {
      "inputs": [
        {
          "internalType": "address",
          "name": "owner",
          "type": "address"
        }
      ],
      "name": "OwnableInvalidOwner",
      "type": "error"
    },
    {
      "inputs": [
        {
          "internalType": "address",
          "name": "account",
          "type": "address"
        }
      ],
      "name": "OwnableUnauthorizedAccount",
      "type": "error"
    },
    {
      "anonymous": false,
      "inputs": [
        {
          "indexed": true,
          "internalType": "address",
          "name": "owner",
          "type": "address"
        },
        {
          "indexed": true,
          "internalType": "address",
          "name": "approved",
          "type": "address"
        },
        {
          "indexed": true,
          "internalType": "uint256",
          "name": "tokenId",
          "type": "uint256"
        }
      ],
      "name": "Approval",
      "type": "event"
    },
    {
      "anonymous": false,
      "inputs": [
        {
          "indexed": true,
          "internalType": "address",
          "name": "owner",
          "type": "address"
        },
        {
          "indexed": true,
          "internalType": "address",
          "name": "operator",
          "type": "address"
        },
        {
          "indexed": false,
          "internalType": "bool",
          "name": "approved",
          "type": "bool"
        }
      ],
      "name": "ApprovalForAll",
      "type": "event"
    },
    {
      "anonymous": false,
      "inputs": [
        {
          "indexed": true,
          "internalType": "address",
          "name": "previousOwner",
          "type": "address"
        },
        {
          "indexed": true,
          "internalType": "address",
          "name": "newOwner",
          "type": "address"
        }
      ],
      "name": "OwnershipTransferred",
      "type": "event"
    },
    {
      "anonymous": false,
      "inputs": [
        {
          "indexed": true,
          "internalType": "address",
          "name": "buyer",
          "type": "address"
        },
        {
          "indexed": true,
          "internalType": "address",
          "name": "seller",
          "type": "address"
        },
        {
          "indexed": true,
          "internalType": "uint256",
          "name": "tokenId",
          "type": "uint256"
        },
        {
          "indexed": false,
          "internalType": "uint256",
          "name": "price",
          "type": "uint256"
        }
      ],
      "name": "PropertyPurchased",
      "type": "event"
    },
    {
      "anonymous": false,
      "inputs": [
        {
          "indexed": true,
          "internalType": "address",
          "name": "from",
          "type": "address"
        },
        {
          "indexed": true,
          "internalType": "address",
          "name": "to",
          "type": "address"
        },
        {
          "indexed": true,
          "internalType": "uint256",
          "name": "tokenId",
          "type": "uint256"
        }
      ],
      "name": "Transfer",
      "type": "event"
    },
    {
      "inputs": [
        {
          "internalType": "address",
          "name": "to",
          "type": "address"
        },
        {
          "internalType": "uint256",
          "name": "tokenId",
          "type": "uint256"
        }
      ],
      "name": "approve",
      "outputs": [],
      "stateMutability": "nonpayable",
      "type": "function"
    },
    {
      "inputs": [
        {
          "internalType": "address",
          "name": "owner",
          "type": "address"
        }
      ],
      "name": "balanceOf",
      "outputs": [
        {
          "internalType": "uint256",
          "name": "",
          "type": "uint256"
        }
      ],
      "stateMutability": "view",
      "type": "function"
    },
    {
      "inputs": [
        {
          "internalType": "uint256",
          "name": "tokenId",
          "type": "uint256"
        }
      ],
      "name": "getApproved",
      "outputs": [
        {
          "internalType": "address",
          "name": "",
          "type": "address"
        }
      ],
      "stateMutability": "view",
      "type": "function"
    },
    {
      "inputs": [
        {
          "internalType": "uint256",
          "name": "tokenId",
          "type": "uint256"
        }
      ],
      "name": "getOwnershipHistory",
      "outputs": [
        {
          "components": [
            {
              "internalType": "string",
              "name": "owningPower",
              "type": "string"
            },
            {
              "internalType": "address",
              "name": "owner",
              "type": "address"
            }
          ],
          "internalType": "struct PropertyToken.OwnershipDetails[]",
          "name": "",
          "type": "tuple[]"
        }
      ],
      "stateMutability": "view",
      "type": "function"
    },
    {
      "inputs": [
        {
          "internalType": "uint256",
          "name": "tokenId",
          "type": "uint256"
        }
      ],
      "name": "getPropertyDetails",
      "outputs": [
        {
          "components": [
            {
              "internalType": "string",
              "name": "agreement",
              "type": "string"
            },
            {
              "internalType": "address",
              "name": "tenant",
              "type": "address"
            },
            {
              "internalType": "uint256",
              "name": "sellingPrice",
              "type": "uint256"
            },
            {
              "internalType": "uint256",
              "name": "rentingPrice",
              "type": "uint256"
            }
          ],
          "internalType": "struct PropertyToken.PropertyDetails",
          "name": "",
          "type": "tuple"
        }
      ],
      "stateMutability": "view",
      "type": "function"
    },
    {
      "inputs": [],
      "name": "getValues",
      "outputs": [
        {
          "components": [
            {
              "internalType": "string",
              "name": "agreement",
              "type": "string"
            },
            {
              "internalType": "address",
              "name": "tenant",
              "type": "address"
            },
            {
              "internalType": "uint256",
              "name": "sellingPrice",
              "type": "uint256"
            },
            {
              "internalType": "uint256",
              "name": "rentingPrice",
              "type": "uint256"
            }
          ],
          "internalType": "struct PropertyToken.PropertyDetails[]",
          "name": "",
          "type": "tuple[]"
        }
      ],
      "stateMutability": "view",
      "type": "function"
    },
    {
      "inputs": [
        {
          "internalType": "address",
          "name": "owner",
          "type": "address"
        },
        {
          "internalType": "address",
          "name": "operator",
          "type": "address"
        }
      ],
      "name": "isApprovedForAll",
      "outputs": [
        {
          "internalType": "bool",
          "name": "",
          "type": "bool"
        }
      ],
      "stateMutability": "view",
      "type": "function"
    },
    {
      "inputs": [
        {
          "internalType": "uint256",
          "name": "tokenId",
          "type": "uint256"
        }
      ],
      "name": "isRentDue",
      "outputs": [
        {
          "internalType": "bool",
          "name": "",
          "type": "bool"
        }
      ],
      "stateMutability": "view",
      "type": "function"
    },
    {
      "inputs": [
        {
          "internalType": "string",
          "name": "agreement",
          "type": "string"
        }
      ],
      "name": "mint",
      "outputs": [],
      "stateMutability": "nonpayable",
      "type": "function"
    },
    {
      "inputs": [],
      "name": "name",
      "outputs": [
        {
          "internalType": "string",
          "name": "",
          "type": "string"
        }
      ],
      "stateMutability": "view",
      "type": "function"
    },
    {
      "inputs": [],
      "name": "owner",
      "outputs": [
        {
          "internalType": "address",
          "name": "",
          "type": "address"
        }
      ],
      "stateMutability": "view",
      "type": "function"
    },
    {
      "inputs": [
        {
          "internalType": "uint256",
          "name": "tokenId",
          "type": "uint256"
        }
      ],
      "name": "ownerOf",
      "outputs": [
        {
          "internalType": "address",
          "name": "",
          "type": "address"
        }
      ],
      "stateMutability": "view",
      "type": "function"
    },
    {
      "inputs": [
        {
          "internalType": "uint256",
          "name": "tokenId",
          "type": "uint256"
        }
      ],
      "name": "payRent",
      "outputs": [],
      "stateMutability": "payable",
      "type": "function"
    },
    {
      "inputs": [
        {
          "internalType": "uint256",
          "name": "tokenId",
          "type": "uint256"
        }
      ],
      "name": "purchaseProperty",
      "outputs": [],
      "stateMutability": "payable",
      "type": "function"
    },
    {
      "inputs": [],
      "name": "renounceOwnership",
      "outputs": [],
      "stateMutability": "nonpayable",
      "type": "function"
    },
    {
      "inputs": [
        {
          "internalType": "uint256",
          "name": "tokenId",
          "type": "uint256"
        },
        {
          "internalType": "uint256",
          "name": "newPrice",
          "type": "uint256"
        }
      ],
      "name": "rentProperty",
      "outputs": [],
      "stateMutability": "nonpayable",
      "type": "function"
    },
    {
      "inputs": [
        {
          "internalType": "uint256",
          "name": "tokenId",
          "type": "uint256"
        }
      ],
      "name": "rentToTenant",
      "outputs": [],
      "stateMutability": "nonpayable",
      "type": "function"
    },
    {
      "inputs": [
        {
          "internalType": "address",
          "name": "from",
          "type": "address"
        },
        {
          "internalType": "address",
          "name": "to",
          "type": "address"
        },
        {
          "internalType": "uint256",
          "name": "tokenId",
          "type": "uint256"
        }
      ],
      "name": "safeTransferFrom",
      "outputs": [],
      "stateMutability": "nonpayable",
      "type": "function"
    },
    {
      "inputs": [
        {
          "internalType": "address",
          "name": "from",
          "type": "address"
        },
        {
          "internalType": "address",
          "name": "to",
          "type": "address"
        },
        {
          "internalType": "uint256",
          "name": "tokenId",
          "type": "uint256"
        },
        {
          "internalType": "bytes",
          "name": "data",
          "type": "bytes"
        }
      ],
      "name": "safeTransferFrom",
      "outputs": [],
      "stateMutability": "nonpayable",
      "type": "function"
    },
    {
      "inputs": [
        {
          "internalType": "uint256",
          "name": "tokenId",
          "type": "uint256"
        },
        {
          "internalType": "uint256",
          "name": "newPrice",
          "type": "uint256"
        }
      ],
      "name": "sellProperty",
      "outputs": [],
      "stateMutability": "nonpayable",
      "type": "function"
    },
    {
      "inputs": [
        {
          "internalType": "address",
          "name": "operator",
          "type": "address"
        },
        {
          "internalType": "bool",
          "name": "approved",
          "type": "bool"
        }
      ],
      "name": "setApprovalForAll",
      "outputs": [],
      "stateMutability": "nonpayable",
      "type": "function"
    },
    {
      "inputs": [
        {
          "internalType": "bytes4",
          "name": "interfaceId",
          "type": "bytes4"
        }
      ],
      "name": "supportsInterface",
      "outputs": [
        {
          "internalType": "bool",
          "name": "",
          "type": "bool"
        }
      ],
      "stateMutability": "view",
      "type": "function"
    },
    {
      "inputs": [],
      "name": "symbol",
      "outputs": [
        {
          "internalType": "string",
          "name": "",
          "type": "string"
        }
      ],
      "stateMutability": "view",
      "type": "function"
    },
    {
      "inputs": [
        {
          "internalType": "uint256",
          "name": "index",
          "type": "uint256"
        }
      ],
      "name": "tokenByIndex",
      "outputs": [
        {
          "internalType": "uint256",
          "name": "",
          "type": "uint256"
        }
      ],
      "stateMutability": "view",
      "type": "function"
    },
    {
      "inputs": [
        {
          "internalType": "address",
          "name": "owner",
          "type": "address"
        },
        {
          "internalType": "uint256",
          "name": "index",
          "type": "uint256"
        }
      ],
      "name": "tokenOfOwnerByIndex",
      "outputs": [
        {
          "internalType": "uint256",
          "name": "",
          "type": "uint256"
        }
      ],
      "stateMutability": "view",
      "type": "function"
    },
    {
      "inputs": [
        {
          "internalType": "uint256",
          "name": "tokenId",
          "type": "uint256"
        }
      ],
      "name": "tokenURI",
      "outputs": [
        {
          "internalType": "string",
          "name": "",
          "type": "string"
        }
      ],
      "stateMutability": "view",
      "type": "function"
    },
    {
      "inputs": [],
      "name": "totalSupply",
      "outputs": [
        {
          "internalType": "uint256",
          "name": "",
          "type": "uint256"
        }
      ],
      "stateMutability": "view",
      "type": "function"
    },
    {
      "inputs": [
        {
          "internalType": "address",
          "name": "from",
          "type": "address"
        },
        {
          "internalType": "address",
          "name": "to",
          "type": "address"
        },
        {
          "internalType": "uint256",
          "name": "tokenId",
          "type": "uint256"
        }
      ],
      "name": "transferFrom",
      "outputs": [],
      "stateMutability": "nonpayable",
      "type": "function"
    },
    {
      "inputs": [
        {
          "internalType": "address",
          "name": "newOwner",
          "type": "address"
        }
      ],
      "name": "transferOwnership",
      "outputs": [],
      "stateMutability": "nonpayable",
      "type": "function"
    },
    {
      "inputs": [],
      "name": "withdraw",
      "outputs": [],
      "stateMutability": "nonpayable",
      "type": "function"
    }
  ],
  "bytecode": "0x60806040523480156200001157600080fd5b50336040518060400160405280600a81526020017f447265616d546f6b656e000000000000000000000000000000000000000000008152506040518060400160405280600381526020017f445254000000000000000000000000000000000000000000000000000000000081525081600090816200009091906200047a565b508060019081620000a291906200047a565b505050600073ffffffffffffffffffffffffffffffffffffffff168173ffffffffffffffffffffffffffffffffffffffff16036200011a5760006040517f1e4fbdf7000000000000000000000000000000000000000000000000000000008152600401620001119190620005a6565b60405180910390fd5b6200012b816200013a60201b60201c565b506001600b81905550620005c3565b6000600a60009054906101000a900473ffffffffffffffffffffffffffffffffffffffff16905081600a60006101000a81548173ffffffffffffffffffffffffffffffffffffffff021916908373ffffffffffffffffffffffffffffffffffffffff1602179055508173ffffffffffffffffffffffffffffffffffffffff168173ffffffffffffffffffffffffffffffffffffffff167f8be0079c531659141344cd1fd0a4f28419497f9722a3daafe3b4186f6b6457e060405160405180910390a35050565b600081519050919050565b7f4e487b7100000000000000000000000000000000000000000000000000000000600052604160045260246000fd5b7f4e487b7100000000000000000000000000000000000000000000000000000000600052602260045260246000fd5b600060028204905060018216806200028257607f821691505b6020821081036200029857620002976200023a565b5b50919050565b60008190508160005260206000209050919050565b60006020601f8301049050919050565b600082821b905092915050565b600060088302620003027fffffffffffffffffffffffffffffffffffffffffffffffffffffffffffffffff82620002c3565b6200030e8683620002c3565b95508019841693508086168417925050509392505050565b6000819050919050565b6000819050919050565b60006200035b620003556200034f8462000326565b62000330565b62000326565b9050919050565b6000819050919050565b62000377836200033a565b6200038f620003868262000362565b848454620002d0565b825550505050565b600090565b620003a662000397565b620003b38184846200036c565b505050565b5b81811015620003db57620003cf6000826200039c565b600181019050620003b9565b5050565b601f8211156200042a57620003f4816200029e565b620003ff84620002b3565b810160208510156200040f578190505b620004276200041e85620002b3565b830182620003b8565b50505b505050565b600082821c905092915050565b60006200044f600019846008026200042f565b1980831691505092915050565b60006200046a83836200043c565b9150826002028217905092915050565b620004858262000200565b67ffffffffffffffff811115620004a157620004a06200020b565b5b620004ad825462000269565b620004ba828285620003df565b600060209050601f831160018114620004f25760008415620004dd578287015190505b620004e985826200045c565b86555062000559565b601f19841662000502866200029e565b60005b828110156200052c5784890151825560018201915060208501945060208101905062000505565b868310156200054c578489015162000548601f8916826200043c565b8355505b6001600288020188555050505b505050505050565b600073ffffffffffffffffffffffffffffffffffffffff82169050919050565b60006200058e8262000561565b9050919050565b620005a08162000581565b82525050565b6000602082019050620005bd600083018462000595565b92915050565b61421780620005d36000396000f3fe6080604052600436106101cd5760003560e01c806370a08231116100f7578063b88d4fde11610095578063e985e9c511610064578063e985e9c51461067c578063ed46a8cf146106b9578063f1dbaccb146106e2578063f2fde38b1461071f576101cd565b8063b88d4fde146105d1578063c87b56dd146105fa578063d85d3d2714610637578063d9e8843f14610660576101cd565b80638da5cb5b116100d15780638da5cb5b1461051557806395d89b411461054057806397ae32a91461056b578063a22cb465146105a8576101cd565b806370a08231146104a5578063715018a6146104e257806379d9c439146104f9576101cd565b806319eb4a901161016f5780633ec4ebb71161013e5780633ec4ebb7146103d957806342842e0e146104025780634f6ccce71461042b5780636352211e14610468576101cd565b806319eb4a901461033157806323b872dd1461035c5780632f745c59146103855780633ccfd60b146103c2576101cd565b8063095ea7b3116101ab578063095ea7b314610277578063126dbe43146102a057806317104ae3146102dd57806318160ddd14610306576101cd565b806301ffc9a7146101d257806306fdde031461020f578063081812fc1461023a575b600080fd5b3480156101de57600080fd5b506101f960048036038101906101f4919061301d565b610748565b6040516102069190613065565b60405180910390f35b34801561021b57600080fd5b506102246107c2565b6040516102319190613110565b60405180910390f35b34801561024657600080fd5b50610261600480360381019061025c9190613168565b610854565b60405161026e91906131d6565b60405180910390f35b34801561028357600080fd5b5061029e6004803603810190610299919061321d565b610870565b005b3480156102ac57600080fd5b506102c760048036038101906102c29190613168565b610886565b6040516102d49190613328565b60405180910390f35b3480156102e957600080fd5b5061030460048036038101906102ff9190613168565b6109af565b005b34801561031257600080fd5b5061031b610a0f565b6040516103289190613359565b60405180910390f35b34801561033d57600080fd5b50610346610a1c565b6040516103539190613499565b60405180910390f35b34801561036857600080fd5b50610383600480360381019061037e91906134bb565b610b8f565b005b34801561039157600080fd5b506103ac60048036038101906103a7919061321d565b610c91565b6040516103b99190613359565b60405180910390f35b3480156103ce57600080fd5b506103d7610d3a565b005b3480156103e557600080fd5b5061040060048036038101906103fb919061350e565b610d92565b005b34801561040e57600080fd5b50610429600480360381019061042491906134bb565b610e85565b005b34801561043757600080fd5b50610452600480360381019061044d9190613168565b610ea5565b60405161045f9190613359565b60405180910390f35b34801561047457600080fd5b5061048f600480360381019061048a9190613168565b610f1b565b60405161049c91906131d6565b60405180910390f35b3480156104b157600080fd5b506104cc60048036038101906104c7919061354e565b610f2d565b6040516104d99190613359565b60405180910390f35b3480156104ee57600080fd5b506104f7610fe7565b005b610513600480360381019061050e9190613168565b610ffb565b005b34801561052157600080fd5b5061052a61127d565b60405161053791906131d6565b60405180910390f35b34801561054c57600080fd5b506105556112a7565b6040516105629190613110565b60405180910390f35b34801561057757600080fd5b50610592600480360381019061058d9190613168565b611339565b60405161059f9190613065565b60405180910390f35b3480156105b457600080fd5b506105cf60048036038101906105ca91906135a7565b611375565b005b3480156105dd57600080fd5b506105f860048036038101906105f3919061371c565b61138b565b005b34801561060657600080fd5b50610621600480360381019061061c9190613168565b6113a8565b60405161062e9190613110565b60405180910390f35b34801561064357600080fd5b5061065e60048036038101906106599190613840565b611411565b005b61067a60048036038101906106759190613168565b6115ff565b005b34801561068857600080fd5b506106a3600480360381019061069e9190613889565b611675565b6040516106b09190613065565b60405180910390f35b3480156106c557600080fd5b506106e060048036038101906106db919061350e565b611709565b005b3480156106ee57600080fd5b5061070960048036038101906107049190613168565b6117fc565b60405161071691906139c8565b60405180910390f35b34801561072b57600080fd5b506107466004803603810190610741919061354e565b611956565b005b60007f780e9d63000000000000000000000000000000000000000000000000000000007bffffffffffffffffffffffffffffffffffffffffffffffffffffffff1916827bffffffffffffffffffffffffffffffffffffffffffffffffffffffff191614806107bb57506107ba826119dc565b5b9050919050565b6060600080546107d190613a19565b80601f01602080910402602001604051908101604052809291908181526020018280546107fd90613a19565b801561084a5780601f1061081f5761010080835404028352916020019161084a565b820191906000526020600020905b81548152906001019060200180831161082d57829003601f168201915b5050505050905090565b600061085f82611abe565b5061086982611b46565b9050919050565b610882828261087d611b83565b611b8b565b5050565b61088e612f16565b600c60008381526020019081526020016000206040518060800160405290816000820180546108bc90613a19565b80601f01602080910402602001604051908101604052809291908181526020018280546108e890613a19565b80156109355780601f1061090a57610100808354040283529160200191610935565b820191906000526020600020905b81548152906001019060200180831161091857829003601f168201915b505050505081526020016001820160009054906101000a900473ffffffffffffffffffffffffffffffffffffffff1673ffffffffffffffffffffffffffffffffffffffff1673ffffffffffffffffffffffffffffffffffffffff168152602001600282015481526020016003820154815250509050919050565b6109b7611b9d565b6040518060400160405280600c60008481526020019081526020016000206003015481526020014281525060106000838152602001908152602001600020600082015181600001556020820151816001015590505050565b6000600880549050905090565b6060806000805b600b54811015610b8657600c6000828152602001908152602001600020604051806080016040529081600082018054610a5b90613a19565b80601f0160208091040260200160405190810160405280929190818152602001828054610a8790613a19565b8015610ad45780601f10610aa957610100808354040283529160200191610ad4565b820191906000526020600020905b815481529060010190602001808311610ab757829003601f168201915b505050505081526020016001820160009054906101000a900473ffffffffffffffffffffffffffffffffffffffff1673ffffffffffffffffffffffffffffffffffffffff1673ffffffffffffffffffffffffffffffffffffffff16815260200160028201548152602001600382015481525050838381518110610b5a57610b59613a4a565b5b60200260200101819052508180610b7090613aa8565b9250508080610b7e90613aa8565b915050610a23565b50819250505090565b600073ffffffffffffffffffffffffffffffffffffffff168273ffffffffffffffffffffffffffffffffffffffff1603610c015760006040517f64a0ae92000000000000000000000000000000000000000000000000000000008152600401610bf891906131d6565b60405180910390fd5b6000610c158383610c10611b83565b611c24565b90508373ffffffffffffffffffffffffffffffffffffffff168173ffffffffffffffffffffffffffffffffffffffff1614610c8b578382826040517f64283d7b000000000000000000000000000000000000000000000000000000008152600401610c8293929190613af0565b60405180910390fd5b50505050565b6000610c9c83610f2d565b8210610ce15782826040517fa57d13dc000000000000000000000000000000000000000000000000000000008152600401610cd8929190613b27565b60405180910390fd5b600660008473ffffffffffffffffffffffffffffffffffffffff1673ffffffffffffffffffffffffffffffffffffffff168152602001908152602001600020600083815260200190815260200160002054905092915050565b610d42611b9d565b610d4a61127d565b73ffffffffffffffffffffffffffffffffffffffff166108fc479081150290604051600060405180830381858888f19350505050158015610d8f573d6000803e3d6000fd5b50565b610d9a611b9d565b670de0b6b3a764000081610dae9190613b50565b600c600084815260200190815260200160002060030181905550600c6000838152602001908152602001600020600e600084815260200190815260200160002060008201816000019081610e029190613d54565b506001820160009054906101000a900473ffffffffffffffffffffffffffffffffffffffff168160010160006101000a81548173ffffffffffffffffffffffffffffffffffffffff021916908373ffffffffffffffffffffffffffffffffffffffff16021790555060028201548160020155600382015481600301559050505050565b610ea08383836040518060200160405280600081525061138b565b505050565b6000610eaf610a0f565b8210610ef5576000826040517fa57d13dc000000000000000000000000000000000000000000000000000000008152600401610eec929190613b27565b60405180910390fd5b60088281548110610f0957610f08613a4a565b5b90600052602060002001549050919050565b6000610f2682611abe565b9050919050565b60008073ffffffffffffffffffffffffffffffffffffffff168273ffffffffffffffffffffffffffffffffffffffff1603610fa05760006040517f89c62b64000000000000000000000000000000000000000000000000000000008152600401610f9791906131d6565b60405180910390fd5b600360008373ffffffffffffffffffffffffffffffffffffffff1673ffffffffffffffffffffffffffffffffffffffff168152602001908152602001600020549050919050565b610fef611b9d565b610ff96000611d41565b565b600f600082815260200190815260200160002060020154341015611054576040517f08c379a000000000000000000000000000000000000000000000000000000000815260040161104b90613eae565b60405180910390fd5b600061105f82610f1b565b90506000339050611071828285611e07565b600d6000600b54815260200190815260200160002060405180604001604052806040518060400160405280600581526020017f6f776e657200000000000000000000000000000000000000000000000000000081525081526020013373ffffffffffffffffffffffffffffffffffffffff16815250908060018154018082558091505060019003906000526020600020906002020160009091909190915060008201518160000190816111249190613ece565b5060208201518160010160006101000a81548173ffffffffffffffffffffffffffffffffffffffff021916908373ffffffffffffffffffffffffffffffffffffffff16021790555050508173ffffffffffffffffffffffffffffffffffffffff166108fc349081150290604051600060405180830381858888f193505050501580156111b4573d6000803e3d6000fd5b50600f6000848152602001908152602001600020600080820160006111d99190612f54565b6001820160006101000a81549073ffffffffffffffffffffffffffffffffffffffff0219169055600282016000905560038201600090555050828273ffffffffffffffffffffffffffffffffffffffff168273ffffffffffffffffffffffffffffffffffffffff167fffb1454b01d972af0c96e705dbb4911fd206f83b6f0172510ad27c695ee7a09a346040516112709190613359565b60405180910390a4505050565b6000600a60009054906101000a900473ffffffffffffffffffffffffffffffffffffffff16905090565b6060600180546112b690613a19565b80601f01602080910402602001604051908101604052809291908181526020018280546112e290613a19565b801561132f5780601f106113045761010080835404028352916020019161132f565b820191906000526020600020905b81548152906001019060200180831161131257829003601f168201915b5050505050905090565b60008060106000848152602001908152602001600020600101544261135e9190613fa0565b9050600062278d0090508082101592505050919050565b611387611380611b83565b8383611f74565b5050565b611396848484610b8f565b6113a2848484846120e3565b50505050565b60606113b382611abe565b5060006113be61229a565b905060008151116113de5760405180602001604052806000815250611409565b806113e8846122b1565b6040516020016113f9929190614010565b6040516020818303038152906040525b915050919050565b611419611b9d565b61142533600b5461237f565b60405180608001604052808281526020013373ffffffffffffffffffffffffffffffffffffffff168152602001600081526020016000815250600c6000600b54815260200190815260200160002060008201518160000190816114889190613ece565b5060208201518160010160006101000a81548173ffffffffffffffffffffffffffffffffffffffff021916908373ffffffffffffffffffffffffffffffffffffffff1602179055506040820151816002015560608201518160030155905050600d6000600b54815260200190815260200160002060405180604001604052806040518060400160405280600581526020017f6f776e657200000000000000000000000000000000000000000000000000000081525081526020013373ffffffffffffffffffffffffffffffffffffffff168152509080600181540180825580915050600190039060005260206000209060020201600090919091909150600082015181600001908161159a9190613ece565b5060208201518160010160006101000a81548173ffffffffffffffffffffffffffffffffffffffff021916908373ffffffffffffffffffffffffffffffffffffffff1602179055505050600b60008154809291906115f790613aa8565b919050555050565b60106000828152602001908152602001600020600001543414611657576040517f08c379a000000000000000000000000000000000000000000000000000000000815260040161164e90614080565b60405180910390fd5b42601060008381526020019081526020016000206001018190555050565b6000600560008473ffffffffffffffffffffffffffffffffffffffff1673ffffffffffffffffffffffffffffffffffffffff16815260200190815260200160002060008373ffffffffffffffffffffffffffffffffffffffff1673ffffffffffffffffffffffffffffffffffffffff16815260200190815260200160002060009054906101000a900460ff16905092915050565b611711611b9d565b670de0b6b3a7640000816117259190613b50565b600c600084815260200190815260200160002060020181905550600c6000838152602001908152602001600020600f6000848152602001908152602001600020600082018160000190816117799190613d54565b506001820160009054906101000a900473ffffffffffffffffffffffffffffffffffffffff168160010160006101000a81548173ffffffffffffffffffffffffffffffffffffffff021916908373ffffffffffffffffffffffffffffffffffffffff16021790555060028201548160020155600382015481600301559050505050565b6060600d6000838152602001908152602001600020805480602002602001604051908101604052809291908181526020016000905b8282101561194b578382906000526020600020906002020160405180604001604052908160008201805461186490613a19565b80601f016020809104026020016040519081016040528092919081815260200182805461189090613a19565b80156118dd5780601f106118b2576101008083540402835291602001916118dd565b820191906000526020600020905b8154815290600101906020018083116118c057829003601f168201915b505050505081526020016001820160009054906101000a900473ffffffffffffffffffffffffffffffffffffffff1673ffffffffffffffffffffffffffffffffffffffff1673ffffffffffffffffffffffffffffffffffffffff168152505081526020019060010190611831565b505050509050919050565b61195e611b9d565b600073ffffffffffffffffffffffffffffffffffffffff168173ffffffffffffffffffffffffffffffffffffffff16036119d05760006040517f1e4fbdf70000000000000000000000000000000000000000000000000000000081526004016119c791906131d6565b60405180910390fd5b6119d981611d41565b50565b60007f80ac58cd000000000000000000000000000000000000000000000000000000007bffffffffffffffffffffffffffffffffffffffffffffffffffffffff1916827bffffffffffffffffffffffffffffffffffffffffffffffffffffffff19161480611aa757507f5b5e139f000000000000000000000000000000000000000000000000000000007bffffffffffffffffffffffffffffffffffffffffffffffffffffffff1916827bffffffffffffffffffffffffffffffffffffffffffffffffffffffff1916145b80611ab75750611ab68261239d565b5b9050919050565b600080611aca83612407565b9050600073ffffffffffffffffffffffffffffffffffffffff168173ffffffffffffffffffffffffffffffffffffffff1603611b3d57826040517f7e273289000000000000000000000000000000000000000000000000000000008152600401611b349190613359565b60405180910390fd5b80915050919050565b60006004600083815260200190815260200160002060009054906101000a900473ffffffffffffffffffffffffffffffffffffffff169050919050565b600033905090565b611b988383836001612444565b505050565b611ba5611b83565b73ffffffffffffffffffffffffffffffffffffffff16611bc361127d565b73ffffffffffffffffffffffffffffffffffffffff1614611c2257611be6611b83565b6040517f118cdaa7000000000000000000000000000000000000000000000000000000008152600401611c1991906131d6565b60405180910390fd5b565b600080611c32858585612609565b9050600073ffffffffffffffffffffffffffffffffffffffff168173ffffffffffffffffffffffffffffffffffffffff1603611c7657611c7184612823565b611cb5565b8473ffffffffffffffffffffffffffffffffffffffff168173ffffffffffffffffffffffffffffffffffffffff1614611cb457611cb3818561286c565b5b5b600073ffffffffffffffffffffffffffffffffffffffff168573ffffffffffffffffffffffffffffffffffffffff1603611cf757611cf2846129cd565b611d36565b8473ffffffffffffffffffffffffffffffffffffffff168173ffffffffffffffffffffffffffffffffffffffff1614611d3557611d348585612a9e565b5b5b809150509392505050565b6000600a60009054906101000a900473ffffffffffffffffffffffffffffffffffffffff16905081600a60006101000a81548173ffffffffffffffffffffffffffffffffffffffff021916908373ffffffffffffffffffffffffffffffffffffffff1602179055508173ffffffffffffffffffffffffffffffffffffffff168173ffffffffffffffffffffffffffffffffffffffff167f8be0079c531659141344cd1fd0a4f28419497f9722a3daafe3b4186f6b6457e060405160405180910390a35050565b600073ffffffffffffffffffffffffffffffffffffffff168273ffffffffffffffffffffffffffffffffffffffff1603611e795760006040517f64a0ae92000000000000000000000000000000000000000000000000000000008152600401611e7091906131d6565b60405180910390fd5b6000611e8783836000611c24565b9050600073ffffffffffffffffffffffffffffffffffffffff168173ffffffffffffffffffffffffffffffffffffffff1603611efa57816040517f7e273289000000000000000000000000000000000000000000000000000000008152600401611ef19190613359565b60405180910390fd5b8373ffffffffffffffffffffffffffffffffffffffff168173ffffffffffffffffffffffffffffffffffffffff1614611f6e578382826040517f64283d7b000000000000000000000000000000000000000000000000000000008152600401611f6593929190613af0565b60405180910390fd5b50505050565b600073ffffffffffffffffffffffffffffffffffffffff168273ffffffffffffffffffffffffffffffffffffffff1603611fe557816040517f5b08ba18000000000000000000000000000000000000000000000000000000008152600401611fdc91906131d6565b60405180910390fd5b80600560008573ffffffffffffffffffffffffffffffffffffffff1673ffffffffffffffffffffffffffffffffffffffff16815260200190815260200160002060008473ffffffffffffffffffffffffffffffffffffffff1673ffffffffffffffffffffffffffffffffffffffff16815260200190815260200160002060006101000a81548160ff0219169083151502179055508173ffffffffffffffffffffffffffffffffffffffff168373ffffffffffffffffffffffffffffffffffffffff167f17307eab39ab6107e8899845ad3d59bd9653f200f220920489ca2b5937696c31836040516120d69190613065565b60405180910390a3505050565b60008373ffffffffffffffffffffffffffffffffffffffff163b1115612294578273ffffffffffffffffffffffffffffffffffffffff1663150b7a02612127611b83565b8685856040518563ffffffff1660e01b815260040161214994939291906140f5565b6020604051808303816000875af192505050801561218557506040513d601f19601f820116820180604052508101906121829190614156565b60015b612209573d80600081146121b5576040519150601f19603f3d011682016040523d82523d6000602084013e6121ba565b606091505b50600081510361220157836040517f64a0ae920000000000000000000000000000000000000000000000000000000081526004016121f891906131d6565b60405180910390fd5b805181602001fd5b63150b7a0260e01b7bffffffffffffffffffffffffffffffffffffffffffffffffffffffff1916817bffffffffffffffffffffffffffffffffffffffffffffffffffffffff19161461229257836040517f64a0ae9200000000000000000000000000000000000000000000000000000000815260040161228991906131d6565b60405180910390fd5b505b50505050565b606060405180602001604052806000815250905090565b6060600060016122c084612b29565b01905060008167ffffffffffffffff8111156122df576122de6135f1565b5b6040519080825280601f01601f1916602001820160405280156123115781602001600182028036833780820191505090505b509050600082602001820190505b600115612374578080600190039150507f3031323334353637383961626364656600000000000000000000000000000000600a86061a8153600a858161236857612367614183565b5b0494506000850361231f575b819350505050919050565b612399828260405180602001604052806000815250612c7c565b5050565b60007f01ffc9a7000000000000000000000000000000000000000000000000000000007bffffffffffffffffffffffffffffffffffffffffffffffffffffffff1916827bffffffffffffffffffffffffffffffffffffffffffffffffffffffff1916149050919050565b60006002600083815260200190815260200160002060009054906101000a900473ffffffffffffffffffffffffffffffffffffffff169050919050565b808061247d5750600073ffffffffffffffffffffffffffffffffffffffff168273ffffffffffffffffffffffffffffffffffffffff1614155b156125b157600061248d84611abe565b9050600073ffffffffffffffffffffffffffffffffffffffff168373ffffffffffffffffffffffffffffffffffffffff16141580156124f857508273ffffffffffffffffffffffffffffffffffffffff168173ffffffffffffffffffffffffffffffffffffffff1614155b801561250b57506125098184611675565b155b1561254d57826040517fa9fbf51f00000000000000000000000000000000000000000000000000000000815260040161254491906131d6565b60405180910390fd5b81156125af57838573ffffffffffffffffffffffffffffffffffffffff168273ffffffffffffffffffffffffffffffffffffffff167f8c5be1e5ebec7d5bd14f71427d1e84f3dd0314c0f7b2291e5b200ac8c7c3b92560405160405180910390a45b505b836004600085815260200190815260200160002060006101000a81548173ffffffffffffffffffffffffffffffffffffffff021916908373ffffffffffffffffffffffffffffffffffffffff16021790555050505050565b60008061261584612407565b9050600073ffffffffffffffffffffffffffffffffffffffff168373ffffffffffffffffffffffffffffffffffffffff161461265757612656818486612c98565b5b600073ffffffffffffffffffffffffffffffffffffffff168173ffffffffffffffffffffffffffffffffffffffff16146126e857612699600085600080612444565b6001600360008373ffffffffffffffffffffffffffffffffffffffff1673ffffffffffffffffffffffffffffffffffffffff168152602001908152602001600020600082825403925050819055505b600073ffffffffffffffffffffffffffffffffffffffff168573ffffffffffffffffffffffffffffffffffffffff161461276b576001600360008773ffffffffffffffffffffffffffffffffffffffff1673ffffffffffffffffffffffffffffffffffffffff168152602001908152602001600020600082825401925050819055505b846002600086815260200190815260200160002060006101000a81548173ffffffffffffffffffffffffffffffffffffffff021916908373ffffffffffffffffffffffffffffffffffffffff160217905550838573ffffffffffffffffffffffffffffffffffffffff168273ffffffffffffffffffffffffffffffffffffffff167fddf252ad1be2c89b69c2b068fc378daa952ba7f163c4a11628f55a4df523b3ef60405160405180910390a4809150509392505050565b6008805490506009600083815260200190815260200160002081905550600881908060018154018082558091505060019003906000526020600020016000909190919091505550565b600061287783610f2d565b905060006007600084815260200190815260200160002054905081811461295c576000600660008673ffffffffffffffffffffffffffffffffffffffff1673ffffffffffffffffffffffffffffffffffffffff168152602001908152602001600020600084815260200190815260200160002054905080600660008773ffffffffffffffffffffffffffffffffffffffff1673ffffffffffffffffffffffffffffffffffffffff168152602001908152602001600020600084815260200190815260200160002081905550816007600083815260200190815260200160002081905550505b6007600084815260200190815260200160002060009055600660008573ffffffffffffffffffffffffffffffffffffffff1673ffffffffffffffffffffffffffffffffffffffff16815260200190815260200160002060008381526020019081526020016000206000905550505050565b600060016008805490506129e19190613fa0565b9050600060096000848152602001908152602001600020549050600060088381548110612a1157612a10613a4a565b5b906000526020600020015490508060088381548110612a3357612a32613a4a565b5b906000526020600020018190555081600960008381526020019081526020016000208190555060096000858152602001908152602001600020600090556008805480612a8257612a816141b2565b5b6001900381819060005260206000200160009055905550505050565b60006001612aab84610f2d565b612ab59190613fa0565b905081600660008573ffffffffffffffffffffffffffffffffffffffff1673ffffffffffffffffffffffffffffffffffffffff168152602001908152602001600020600083815260200190815260200160002081905550806007600084815260200190815260200160002081905550505050565b600080600090507a184f03e93ff9f4daa797ed6e38ed64bf6a1f0100000000000000008310612b87577a184f03e93ff9f4daa797ed6e38ed64bf6a1f0100000000000000008381612b7d57612b7c614183565b5b0492506040810190505b6d04ee2d6d415b85acef81000000008310612bc4576d04ee2d6d415b85acef81000000008381612bba57612bb9614183565b5b0492506020810190505b662386f26fc100008310612bf357662386f26fc100008381612be957612be8614183565b5b0492506010810190505b6305f5e1008310612c1c576305f5e1008381612c1257612c11614183565b5b0492506008810190505b6127108310612c41576127108381612c3757612c36614183565b5b0492506004810190505b60648310612c645760648381612c5a57612c59614183565b5b0492506002810190505b600a8310612c73576001810190505b80915050919050565b612c868383612d5c565b612c9360008484846120e3565b505050565b612ca3838383612e55565b612d5757600073ffffffffffffffffffffffffffffffffffffffff168373ffffffffffffffffffffffffffffffffffffffff1603612d1857806040517f7e273289000000000000000000000000000000000000000000000000000000008152600401612d0f9190613359565b60405180910390fd5b81816040517f177e802f000000000000000000000000000000000000000000000000000000008152600401612d4e929190613b27565b60405180910390fd5b505050565b600073ffffffffffffffffffffffffffffffffffffffff168273ffffffffffffffffffffffffffffffffffffffff1603612dce5760006040517f64a0ae92000000000000000000000000000000000000000000000000000000008152600401612dc591906131d6565b60405180910390fd5b6000612ddc83836000611c24565b9050600073ffffffffffffffffffffffffffffffffffffffff168173ffffffffffffffffffffffffffffffffffffffff1614612e505760006040517f73c6ac6e000000000000000000000000000000000000000000000000000000008152600401612e4791906131d6565b60405180910390fd5b505050565b60008073ffffffffffffffffffffffffffffffffffffffff168373ffffffffffffffffffffffffffffffffffffffff1614158015612f0d57508273ffffffffffffffffffffffffffffffffffffffff168473ffffffffffffffffffffffffffffffffffffffff161480612ece5750612ecd8484611675565b5b80612f0c57508273ffffffffffffffffffffffffffffffffffffffff16612ef483611b46565b73ffffffffffffffffffffffffffffffffffffffff16145b5b90509392505050565b604051806080016040528060608152602001600073ffffffffffffffffffffffffffffffffffffffff16815260200160008152602001600081525090565b508054612f6090613a19565b6000825580601f10612f725750612f91565b601f016020900490600052602060002090810190612f909190612f94565b5b50565b5b80821115612fad576000816000905550600101612f95565b5090565b6000604051905090565b600080fd5b600080fd5b60007fffffffff0000000000000000000000000000000000000000000000000000000082169050919050565b612ffa81612fc5565b811461300557600080fd5b50565b60008135905061301781612ff1565b92915050565b60006020828403121561303357613032612fbb565b5b600061304184828501613008565b91505092915050565b60008115159050919050565b61305f8161304a565b82525050565b600060208201905061307a6000830184613056565b92915050565b600081519050919050565b600082825260208201905092915050565b60005b838110156130ba57808201518184015260208101905061309f565b60008484015250505050565b6000601f19601f8301169050919050565b60006130e282613080565b6130ec818561308b565b93506130fc81856020860161309c565b613105816130c6565b840191505092915050565b6000602082019050818103600083015261312a81846130d7565b905092915050565b6000819050919050565b61314581613132565b811461315057600080fd5b50565b6000813590506131628161313c565b92915050565b60006020828403121561317e5761317d612fbb565b5b600061318c84828501613153565b91505092915050565b600073ffffffffffffffffffffffffffffffffffffffff82169050919050565b60006131c082613195565b9050919050565b6131d0816131b5565b82525050565b60006020820190506131eb60008301846131c7565b92915050565b6131fa816131b5565b811461320557600080fd5b50565b600081359050613217816131f1565b92915050565b6000806040838503121561323457613233612fbb565b5b600061324285828601613208565b925050602061325385828601613153565b9150509250929050565b600082825260208201905092915050565b600061327982613080565b613283818561325d565b935061329381856020860161309c565b61329c816130c6565b840191505092915050565b6132b0816131b5565b82525050565b6132bf81613132565b82525050565b600060808301600083015184820360008601526132e2828261326e565b91505060208301516132f760208601826132a7565b50604083015161330a60408601826132b6565b50606083015161331d60608601826132b6565b508091505092915050565b6000602082019050818103600083015261334281846132c5565b905092915050565b61335381613132565b82525050565b600060208201905061336e600083018461334a565b92915050565b600081519050919050565b600082825260208201905092915050565b6000819050602082019050919050565b600060808301600083015184820360008601526133bd828261326e565b91505060208301516133d260208601826132a7565b5060408301516133e560408601826132b6565b5060608301516133f860608601826132b6565b508091505092915050565b600061340f83836133a0565b905092915050565b6000602082019050919050565b600061342f82613374565b613439818561337f565b93508360208202850161344b85613390565b8060005b8581101561348757848403895281516134688582613403565b945061347383613417565b925060208a0199505060018101905061344f565b50829750879550505050505092915050565b600060208201905081810360008301526134b38184613424565b905092915050565b6000806000606084860312156134d4576134d3612fbb565b5b60006134e286828701613208565b93505060206134f386828701613208565b925050604061350486828701613153565b9150509250925092565b6000806040838503121561352557613524612fbb565b5b600061353385828601613153565b925050602061354485828601613153565b9150509250929050565b60006020828403121561356457613563612fbb565b5b600061357284828501613208565b91505092915050565b6135848161304a565b811461358f57600080fd5b50565b6000813590506135a18161357b565b92915050565b600080604083850312156135be576135bd612fbb565b5b60006135cc85828601613208565b92505060206135dd85828601613592565b9150509250929050565b600080fd5b600080fd5b7f4e487b7100000000000000000000000000000000000000000000000000000000600052604160045260246000fd5b613629826130c6565b810181811067ffffffffffffffff82111715613648576136476135f1565b5b80604052505050565b600061365b612fb1565b90506136678282613620565b919050565b600067ffffffffffffffff821115613687576136866135f1565b5b613690826130c6565b9050602081019050919050565b82818337600083830152505050565b60006136bf6136ba8461366c565b613651565b9050828152602081018484840111156136db576136da6135ec565b5b6136e684828561369d565b509392505050565b600082601f830112613703576137026135e7565b5b81356137138482602086016136ac565b91505092915050565b6000806000806080858703121561373657613735612fbb565b5b600061374487828801613208565b945050602061375587828801613208565b935050604061376687828801613153565b925050606085013567ffffffffffffffff81111561378757613786612fc0565b5b613793878288016136ee565b91505092959194509250565b600067ffffffffffffffff8211156137ba576137b96135f1565b5b6137c3826130c6565b9050602081019050919050565b60006137e36137de8461379f565b613651565b9050828152602081018484840111156137ff576137fe6135ec565b5b61380a84828561369d565b509392505050565b600082601f830112613827576138266135e7565b5b81356138378482602086016137d0565b91505092915050565b60006020828403121561385657613855612fbb565b5b600082013567ffffffffffffffff81111561387457613873612fc0565b5b61388084828501613812565b91505092915050565b600080604083850312156138a05761389f612fbb565b5b60006138ae85828601613208565b92505060206138bf85828601613208565b9150509250929050565b600081519050919050565b600082825260208201905092915050565b6000819050602082019050919050565b60006040830160008301518482036000860152613912828261326e565b915050602083015161392760208601826132a7565b508091505092915050565b600061393e83836138f5565b905092915050565b6000602082019050919050565b600061395e826138c9565b61396881856138d4565b93508360208202850161397a856138e5565b8060005b858110156139b657848403895281516139978582613932565b94506139a283613946565b925060208a0199505060018101905061397e565b50829750879550505050505092915050565b600060208201905081810360008301526139e28184613953565b905092915050565b7f4e487b7100000000000000000000000000000000000000000000000000000000600052602260045260246000fd5b60006002820490506001821680613a3157607f821691505b602082108103613a4457613a436139ea565b5b50919050565b7f4e487b7100000000000000000000000000000000000000000000000000000000600052603260045260246000fd5b7f4e487b7100000000000000000000000000000000000000000000000000000000600052601160045260246000fd5b6000613ab382613132565b91507fffffffffffffffffffffffffffffffffffffffffffffffffffffffffffffffff8203613ae557613ae4613a79565b5b600182019050919050565b6000606082019050613b0560008301866131c7565b613b12602083018561334a565b613b1f60408301846131c7565b949350505050565b6000604082019050613b3c60008301856131c7565b613b49602083018461334a565b9392505050565b6000613b5b82613132565b9150613b6683613132565b9250828202613b7481613132565b91508282048414831517613b8b57613b8a613a79565b5b5092915050565b600081549050613ba181613a19565b9050919050565b60008190508160005260206000209050919050565b60006020601f8301049050919050565b600082821b905092915050565b600060088302613c0a7fffffffffffffffffffffffffffffffffffffffffffffffffffffffffffffffff82613bcd565b613c148683613bcd565b95508019841693508086168417925050509392505050565b6000819050919050565b6000613c51613c4c613c4784613132565b613c2c565b613132565b9050919050565b6000819050919050565b613c6b83613c36565b613c7f613c7782613c58565b848454613bda565b825550505050565b600090565b613c94613c87565b613c9f818484613c62565b505050565b5b81811015613cc357613cb8600082613c8c565b600181019050613ca5565b5050565b601f821115613d0857613cd981613ba8565b613ce284613bbd565b81016020851015613cf1578190505b613d05613cfd85613bbd565b830182613ca4565b50505b505050565b600082821c905092915050565b6000613d2b60001984600802613d0d565b1980831691505092915050565b6000613d448383613d1a565b9150826002028217905092915050565b818103613d62575050613e3a565b613d6b82613b92565b67ffffffffffffffff811115613d8457613d836135f1565b5b613d8e8254613a19565b613d99828285613cc7565b6000601f831160018114613dc85760008415613db6578287015490505b613dc08582613d38565b865550613e33565b601f198416613dd687613ba8565b9650613de186613ba8565b60005b82811015613e0957848901548255600182019150600185019450602081019050613de4565b86831015613e265784890154613e22601f891682613d1a565b8355505b6001600288020188555050505b5050505050505b565b7f496e73756666696369656e742066756e647320746f207075726368617365207460008201527f68652070726f7065727479000000000000000000000000000000000000000000602082015250565b6000613e98602b8361308b565b9150613ea382613e3c565b604082019050919050565b60006020820190508181036000830152613ec781613e8b565b9050919050565b613ed782613080565b67ffffffffffffffff811115613ef057613eef6135f1565b5b613efa8254613a19565b613f05828285613cc7565b600060209050601f831160018114613f385760008415613f26578287015190505b613f308582613d38565b865550613f98565b601f198416613f4686613ba8565b60005b82811015613f6e57848901518255600182019150602085019450602081019050613f49565b86831015613f8b5784890151613f87601f891682613d1a565b8355505b6001600288020188555050505b505050505050565b6000613fab82613132565b9150613fb683613132565b9250828203905081811115613fce57613fcd613a79565b5b92915050565b600081905092915050565b6000613fea82613080565b613ff48185613fd4565b935061400481856020860161309c565b80840191505092915050565b600061401c8285613fdf565b91506140288284613fdf565b91508190509392505050565b7f496e636f72726563742072656e7420616d6f756e740000000000000000000000600082015250565b600061406a60158361308b565b915061407582614034565b602082019050919050565b600060208201905081810360008301526140998161405d565b9050919050565b600081519050919050565b600082825260208201905092915050565b60006140c7826140a0565b6140d181856140ab565b93506140e181856020860161309c565b6140ea816130c6565b840191505092915050565b600060808201905061410a60008301876131c7565b61411760208301866131c7565b614124604083018561334a565b818103606083015261413681846140bc565b905095945050505050565b60008151905061415081612ff1565b92915050565b60006020828403121561416c5761416b612fbb565b5b600061417a84828501614141565b91505092915050565b7f4e487b7100000000000000000000000000000000000000000000000000000000600052601260045260246000fd5b7f4e487b7100000000000000000000000000000000000000000000000000000000600052603160045260246000fdfea26469706673582212204be1f9213041baedf988eaabc5dc77fc57e8c8c64b6361234dfc3f9cba3465ac64736f6c63430008140033",
  "linkReferences": {},
  "deployedLinkReferences": {}
}