{
  "_format": "hh-sol-artifact-1",
  "contractName": "PropertyToken",
  "sourceName": "contracts/PropertyToken.sol",
  "abi": [
    {
      "inputs": [],
      "stateMutability": "nonpayable",
      "type": "constructor"
    },
    {
      "inputs": [],
      "name": "ERC721EnumerableForbiddenBatchMint",
      "type": "error"
    },
    {
      "inputs": [
        {
          "internalType": "address",
          "name": "sender",
          "type": "address"
        },
        {
          "internalType": "uint256",
          "name": "tokenId",
          "type": "uint256"
        },
        {
          "internalType": "address",
          "name": "owner",
          "type": "address"
        }
      ],
      "name": "ERC721IncorrectOwner",
      "type": "error"
    },
    {
      "inputs": [
        {
          "internalType": "address",
          "name": "operator",
          "type": "address"
        },
        {
          "internalType": "uint256",
          "name": "tokenId",
          "type": "uint256"
        }
      ],
      "name": "ERC721InsufficientApproval",
      "type": "error"
    },
    {
      "inputs": [
        {
          "internalType": "address",
          "name": "approver",
          "type": "address"
        }
      ],
      "name": "ERC721InvalidApprover",
      "type": "error"
    },
    {
      "inputs": [
        {
          "internalType": "address",
          "name": "operator",
          "type": "address"
        }
      ],
      "name": "ERC721InvalidOperator",
      "type": "error"
    },
    {
      "inputs": [
        {
          "internalType": "address",
          "name": "owner",
          "type": "address"
        }
      ],
      "name": "ERC721InvalidOwner",
      "type": "error"
    },
    {
      "inputs": [
        {
          "internalType": "address",
          "name": "receiver",
          "type": "address"
        }
      ],
      "name": "ERC721InvalidReceiver",
      "type": "error"
    },
    {
      "inputs": [
        {
          "internalType": "address",
          "name": "sender",
          "type": "address"
        }
      ],
      "name": "ERC721InvalidSender",
      "type": "error"
    },
    {
      "inputs": [
        {
          "internalType": "uint256",
          "name": "tokenId",
          "type": "uint256"
        }
      ],
      "name": "ERC721NonexistentToken",
      "type": "error"
    },
    {
      "inputs": [
        {
          "internalType": "address",
          "name": "owner",
          "type": "address"
        },
        {
          "internalType": "uint256",
          "name": "index",
          "type": "uint256"
        }
      ],
      "name": "ERC721OutOfBoundsIndex",
      "type": "error"
    },
    {
      "inputs": [
        {
          "internalType": "address",
          "name": "owner",
          "type": "address"
        }
      ],
      "name": "OwnableInvalidOwner",
      "type": "error"
    },
    {
      "inputs": [
        {
          "internalType": "address",
          "name": "account",
          "type": "address"
        }
      ],
      "name": "OwnableUnauthorizedAccount",
      "type": "error"
    },
    {
      "anonymous": false,
      "inputs": [
        {
          "indexed": true,
          "internalType": "address",
          "name": "owner",
          "type": "address"
        },
        {
          "indexed": true,
          "internalType": "address",
          "name": "approved",
          "type": "address"
        },
        {
          "indexed": true,
          "internalType": "uint256",
          "name": "tokenId",
          "type": "uint256"
        }
      ],
      "name": "Approval",
      "type": "event"
    },
    {
      "anonymous": false,
      "inputs": [
        {
          "indexed": true,
          "internalType": "address",
          "name": "owner",
          "type": "address"
        },
        {
          "indexed": true,
          "internalType": "address",
          "name": "operator",
          "type": "address"
        },
        {
          "indexed": false,
          "internalType": "bool",
          "name": "approved",
          "type": "bool"
        }
      ],
      "name": "ApprovalForAll",
      "type": "event"
    },
    {
      "anonymous": false,
      "inputs": [
        {
          "indexed": true,
          "internalType": "address",
          "name": "previousOwner",
          "type": "address"
        },
        {
          "indexed": true,
          "internalType": "address",
          "name": "newOwner",
          "type": "address"
        }
      ],
      "name": "OwnershipTransferred",
      "type": "event"
    },
    {
      "anonymous": false,
      "inputs": [
        {
          "indexed": true,
          "internalType": "address",
          "name": "buyer",
          "type": "address"
        },
        {
          "indexed": true,
          "internalType": "address",
          "name": "seller",
          "type": "address"
        },
        {
          "indexed": true,
          "internalType": "uint256",
          "name": "tokenId",
          "type": "uint256"
        },
        {
          "indexed": false,
          "internalType": "uint256",
          "name": "price",
          "type": "uint256"
        }
      ],
      "name": "PropertyPurchased",
      "type": "event"
    },
    {
      "anonymous": false,
      "inputs": [
        {
          "indexed": true,
          "internalType": "address",
          "name": "from",
          "type": "address"
        },
        {
          "indexed": true,
          "internalType": "address",
          "name": "to",
          "type": "address"
        },
        {
          "indexed": true,
          "internalType": "uint256",
          "name": "tokenId",
          "type": "uint256"
        }
      ],
      "name": "Transfer",
      "type": "event"
    },
    {
      "inputs": [
        {
          "internalType": "address",
          "name": "to",
          "type": "address"
        },
        {
          "internalType": "uint256",
          "name": "tokenId",
          "type": "uint256"
        }
      ],
      "name": "approve",
      "outputs": [],
      "stateMutability": "nonpayable",
      "type": "function"
    },
    {
      "inputs": [
        {
          "internalType": "address",
          "name": "owner",
          "type": "address"
        }
      ],
      "name": "balanceOf",
      "outputs": [
        {
          "internalType": "uint256",
          "name": "",
          "type": "uint256"
        }
      ],
      "stateMutability": "view",
      "type": "function"
    },
    {
      "inputs": [
        {
          "internalType": "uint256",
          "name": "tokenId",
          "type": "uint256"
        }
      ],
      "name": "getApproved",
      "outputs": [
        {
          "internalType": "address",
          "name": "",
          "type": "address"
        }
      ],
      "stateMutability": "view",
      "type": "function"
    },
    {
      "inputs": [
        {
          "internalType": "uint256",
          "name": "tokenId",
          "type": "uint256"
        }
      ],
      "name": "getOwnershipHistory",
      "outputs": [
        {
          "components": [
            {
              "internalType": "string",
              "name": "owningPower",
              "type": "string"
            },
            {
              "internalType": "address",
              "name": "owner",
              "type": "address"
            }
          ],
          "internalType": "struct PropertyToken.OwnershipDetails[]",
          "name": "",
          "type": "tuple[]"
        }
      ],
      "stateMutability": "view",
      "type": "function"
    },
    {
      "inputs": [
        {
          "internalType": "uint256",
          "name": "tokenId",
          "type": "uint256"
        }
      ],
      "name": "getPropertyDetails",
      "outputs": [
        {
          "components": [
            {
              "internalType": "address",
              "name": "tenant",
              "type": "address"
            },
            {
              "internalType": "uint256",
              "name": "sellingPrice",
              "type": "uint256"
            },
            {
              "internalType": "uint256",
              "name": "rentingPrice",
              "type": "uint256"
            }
          ],
          "internalType": "struct PropertyToken.PropertyDetails",
          "name": "",
          "type": "tuple"
        }
      ],
      "stateMutability": "view",
      "type": "function"
    },
    {
      "inputs": [
        {
          "internalType": "address",
          "name": "owner",
          "type": "address"
        },
        {
          "internalType": "address",
          "name": "operator",
          "type": "address"
        }
      ],
      "name": "isApprovedForAll",
      "outputs": [
        {
          "internalType": "bool",
          "name": "",
          "type": "bool"
        }
      ],
      "stateMutability": "view",
      "type": "function"
    },
    {
      "inputs": [
        {
          "internalType": "uint256",
          "name": "tokenId",
          "type": "uint256"
        }
      ],
      "name": "isRentDue",
      "outputs": [
        {
          "internalType": "bool",
          "name": "",
          "type": "bool"
        }
      ],
      "stateMutability": "view",
      "type": "function"
    },
    {
      "inputs": [],
      "name": "mint",
      "outputs": [],
      "stateMutability": "nonpayable",
      "type": "function"
    },
    {
      "inputs": [],
      "name": "name",
      "outputs": [
        {
          "internalType": "string",
          "name": "",
          "type": "string"
        }
      ],
      "stateMutability": "view",
      "type": "function"
    },
    {
      "inputs": [],
      "name": "owner",
      "outputs": [
        {
          "internalType": "address",
          "name": "",
          "type": "address"
        }
      ],
      "stateMutability": "view",
      "type": "function"
    },
    {
      "inputs": [
        {
          "internalType": "uint256",
          "name": "tokenId",
          "type": "uint256"
        }
      ],
      "name": "ownerOf",
      "outputs": [
        {
          "internalType": "address",
          "name": "",
          "type": "address"
        }
      ],
      "stateMutability": "view",
      "type": "function"
    },
    {
      "inputs": [
        {
          "internalType": "uint256",
          "name": "tokenId",
          "type": "uint256"
        }
      ],
      "name": "payRent",
      "outputs": [],
      "stateMutability": "payable",
      "type": "function"
    },
    {
      "inputs": [
        {
          "internalType": "uint256",
          "name": "tokenId",
          "type": "uint256"
        }
      ],
      "name": "purchaseProperty",
      "outputs": [],
      "stateMutability": "payable",
      "type": "function"
    },
    {
      "inputs": [],
      "name": "renounceOwnership",
      "outputs": [],
      "stateMutability": "nonpayable",
      "type": "function"
    },
    {
      "inputs": [
        {
          "internalType": "uint256",
          "name": "tokenId",
          "type": "uint256"
        },
        {
          "internalType": "uint256",
          "name": "newPrice",
          "type": "uint256"
        }
      ],
      "name": "rentProperty",
      "outputs": [],
      "stateMutability": "nonpayable",
      "type": "function"
    },
    {
      "inputs": [
        {
          "internalType": "uint256",
          "name": "tokenId",
          "type": "uint256"
        }
      ],
      "name": "rentToTenant",
      "outputs": [],
      "stateMutability": "nonpayable",
      "type": "function"
    },
    {
      "inputs": [
        {
          "internalType": "address",
          "name": "from",
          "type": "address"
        },
        {
          "internalType": "address",
          "name": "to",
          "type": "address"
        },
        {
          "internalType": "uint256",
          "name": "tokenId",
          "type": "uint256"
        }
      ],
      "name": "safeTransferFrom",
      "outputs": [],
      "stateMutability": "nonpayable",
      "type": "function"
    },
    {
      "inputs": [
        {
          "internalType": "address",
          "name": "from",
          "type": "address"
        },
        {
          "internalType": "address",
          "name": "to",
          "type": "address"
        },
        {
          "internalType": "uint256",
          "name": "tokenId",
          "type": "uint256"
        },
        {
          "internalType": "bytes",
          "name": "data",
          "type": "bytes"
        }
      ],
      "name": "safeTransferFrom",
      "outputs": [],
      "stateMutability": "nonpayable",
      "type": "function"
    },
    {
      "inputs": [
        {
          "internalType": "uint256",
          "name": "tokenId",
          "type": "uint256"
        },
        {
          "internalType": "uint256",
          "name": "newPrice",
          "type": "uint256"
        }
      ],
      "name": "sellProperty",
      "outputs": [],
      "stateMutability": "nonpayable",
      "type": "function"
    },
    {
      "inputs": [
        {
          "internalType": "address",
          "name": "operator",
          "type": "address"
        },
        {
          "internalType": "bool",
          "name": "approved",
          "type": "bool"
        }
      ],
      "name": "setApprovalForAll",
      "outputs": [],
      "stateMutability": "nonpayable",
      "type": "function"
    },
    {
      "inputs": [
        {
          "internalType": "bytes4",
          "name": "interfaceId",
          "type": "bytes4"
        }
      ],
      "name": "supportsInterface",
      "outputs": [
        {
          "internalType": "bool",
          "name": "",
          "type": "bool"
        }
      ],
      "stateMutability": "view",
      "type": "function"
    },
    {
      "inputs": [],
      "name": "symbol",
      "outputs": [
        {
          "internalType": "string",
          "name": "",
          "type": "string"
        }
      ],
      "stateMutability": "view",
      "type": "function"
    },
    {
      "inputs": [
        {
          "internalType": "uint256",
          "name": "index",
          "type": "uint256"
        }
      ],
      "name": "tokenByIndex",
      "outputs": [
        {
          "internalType": "uint256",
          "name": "",
          "type": "uint256"
        }
      ],
      "stateMutability": "view",
      "type": "function"
    },
    {
      "inputs": [
        {
          "internalType": "address",
          "name": "owner",
          "type": "address"
        },
        {
          "internalType": "uint256",
          "name": "index",
          "type": "uint256"
        }
      ],
      "name": "tokenOfOwnerByIndex",
      "outputs": [
        {
          "internalType": "uint256",
          "name": "",
          "type": "uint256"
        }
      ],
      "stateMutability": "view",
      "type": "function"
    },
    {
      "inputs": [
        {
          "internalType": "uint256",
          "name": "tokenId",
          "type": "uint256"
        }
      ],
      "name": "tokenURI",
      "outputs": [
        {
          "internalType": "string",
          "name": "",
          "type": "string"
        }
      ],
      "stateMutability": "view",
      "type": "function"
    },
    {
      "inputs": [],
      "name": "totalSupply",
      "outputs": [
        {
          "internalType": "uint256",
          "name": "",
          "type": "uint256"
        }
      ],
      "stateMutability": "view",
      "type": "function"
    },
    {
      "inputs": [
        {
          "internalType": "address",
          "name": "from",
          "type": "address"
        },
        {
          "internalType": "address",
          "name": "to",
          "type": "address"
        },
        {
          "internalType": "uint256",
          "name": "tokenId",
          "type": "uint256"
        }
      ],
      "name": "transferFrom",
      "outputs": [],
      "stateMutability": "nonpayable",
      "type": "function"
    },
    {
      "inputs": [
        {
          "internalType": "address",
          "name": "newOwner",
          "type": "address"
        }
      ],
      "name": "transferOwnership",
      "outputs": [],
      "stateMutability": "nonpayable",
      "type": "function"
    },
    {
      "inputs": [],
      "name": "withdraw",
      "outputs": [],
      "stateMutability": "nonpayable",
      "type": "function"
    }
  ],
  "bytecode": "0x60806040523480156200001157600080fd5b50336040518060400160405280600a81526020017f447265616d546f6b656e000000000000000000000000000000000000000000008152506040518060400160405280600381526020017f445254000000000000000000000000000000000000000000000000000000000081525081600090816200009091906200047a565b508060019081620000a291906200047a565b505050600073ffffffffffffffffffffffffffffffffffffffff168173ffffffffffffffffffffffffffffffffffffffff16036200011a5760006040517f1e4fbdf7000000000000000000000000000000000000000000000000000000008152600401620001119190620005a6565b60405180910390fd5b6200012b816200013a60201b60201c565b506001600b81905550620005c3565b6000600a60009054906101000a900473ffffffffffffffffffffffffffffffffffffffff16905081600a60006101000a81548173ffffffffffffffffffffffffffffffffffffffff021916908373ffffffffffffffffffffffffffffffffffffffff1602179055508173ffffffffffffffffffffffffffffffffffffffff168173ffffffffffffffffffffffffffffffffffffffff167f8be0079c531659141344cd1fd0a4f28419497f9722a3daafe3b4186f6b6457e060405160405180910390a35050565b600081519050919050565b7f4e487b7100000000000000000000000000000000000000000000000000000000600052604160045260246000fd5b7f4e487b7100000000000000000000000000000000000000000000000000000000600052602260045260246000fd5b600060028204905060018216806200028257607f821691505b6020821081036200029857620002976200023a565b5b50919050565b60008190508160005260206000209050919050565b60006020601f8301049050919050565b600082821b905092915050565b600060088302620003027fffffffffffffffffffffffffffffffffffffffffffffffffffffffffffffffff82620002c3565b6200030e8683620002c3565b95508019841693508086168417925050509392505050565b6000819050919050565b6000819050919050565b60006200035b620003556200034f8462000326565b62000330565b62000326565b9050919050565b6000819050919050565b62000377836200033a565b6200038f620003868262000362565b848454620002d0565b825550505050565b600090565b620003a662000397565b620003b38184846200036c565b505050565b5b81811015620003db57620003cf6000826200039c565b600181019050620003b9565b5050565b601f8211156200042a57620003f4816200029e565b620003ff84620002b3565b810160208510156200040f578190505b620004276200041e85620002b3565b830182620003b8565b50505b505050565b600082821c905092915050565b60006200044f600019846008026200042f565b1980831691505092915050565b60006200046a83836200043c565b9150826002028217905092915050565b620004858262000200565b67ffffffffffffffff811115620004a157620004a06200020b565b5b620004ad825462000269565b620004ba828285620003df565b600060209050601f831160018114620004f25760008415620004dd578287015190505b620004e985826200045c565b86555062000559565b601f19841662000502866200029e565b60005b828110156200052c5784890151825560018201915060208501945060208101905062000505565b868310156200054c578489015162000548601f8916826200043c565b8355505b6001600288020188555050505b505050505050565b600073ffffffffffffffffffffffffffffffffffffffff82169050919050565b60006200058e8262000561565b9050919050565b620005a08162000581565b82525050565b6000602082019050620005bd600083018462000595565b92915050565b613bb880620005d36000396000f3fe6080604052600436106101c25760003560e01c80636352211e116100f7578063a22cb46511610095578063e985e9c511610064578063e985e9c514610634578063ed46a8cf14610671578063f1dbaccb1461069a578063f2fde38b146106d7576101c2565b8063a22cb46514610589578063b88d4fde146105b2578063c87b56dd146105db578063d9e8843f14610618576101c2565b806379d9c439116100d157806379d9c439146104da5780638da5cb5b146104f657806395d89b411461052157806397ae32a91461054c576101c2565b80636352211e1461044957806370a0823114610486578063715018a6146104c3576101c2565b806318160ddd116101645780633ccfd60b1161013e5780633ccfd60b146103a35780633ec4ebb7146103ba57806342842e0e146103e35780634f6ccce71461040c576101c2565b806318160ddd1461031257806323b872dd1461033d5780632f745c5914610366576101c2565b8063095ea7b3116101a0578063095ea7b31461026c5780631249c58b14610295578063126dbe43146102ac57806317104ae3146102e9576101c2565b806301ffc9a7146101c757806306fdde0314610204578063081812fc1461022f575b600080fd5b3480156101d357600080fd5b506101ee60048036038101906101e99190612d15565b610700565b6040516101fb9190612d5d565b60405180910390f35b34801561021057600080fd5b5061021961077a565b6040516102269190612e08565b60405180910390f35b34801561023b57600080fd5b5061025660048036038101906102519190612e60565b61080c565b6040516102639190612ece565b60405180910390f35b34801561027857600080fd5b50610293600480360381019061028e9190612f15565b610828565b005b3480156102a157600080fd5b506102aa61083e565b005b3480156102b857600080fd5b506102d360048036038101906102ce9190612e60565b610a0f565b6040516102e09190612fb5565b60405180910390f35b3480156102f557600080fd5b50610310600480360381019061030b9190612e60565b610aa6565b005b34801561031e57600080fd5b50610327610b06565b6040516103349190612fdf565b60405180910390f35b34801561034957600080fd5b50610364600480360381019061035f9190612ffa565b610b13565b005b34801561037257600080fd5b5061038d60048036038101906103889190612f15565b610c15565b60405161039a9190612fdf565b60405180910390f35b3480156103af57600080fd5b506103b8610cbe565b005b3480156103c657600080fd5b506103e160048036038101906103dc919061304d565b610d16565b005b3480156103ef57600080fd5b5061040a60048036038101906104059190612ffa565b610df4565b005b34801561041857600080fd5b50610433600480360381019061042e9190612e60565b610e14565b6040516104409190612fdf565b60405180910390f35b34801561045557600080fd5b50610470600480360381019061046b9190612e60565b610e8a565b60405161047d9190612ece565b60405180910390f35b34801561049257600080fd5b506104ad60048036038101906104a8919061308d565b610e9c565b6040516104ba9190612fdf565b60405180910390f35b3480156104cf57600080fd5b506104d8610f56565b005b6104f460048036038101906104ef9190612e60565b610f6a565b005b34801561050257600080fd5b5061050b6111dc565b6040516105189190612ece565b60405180910390f35b34801561052d57600080fd5b50610536611206565b6040516105439190612e08565b60405180910390f35b34801561055857600080fd5b50610573600480360381019061056e9190612e60565b611298565b6040516105809190612d5d565b60405180910390f35b34801561059557600080fd5b506105b060048036038101906105ab91906130e6565b6112d4565b005b3480156105be57600080fd5b506105d960048036038101906105d4919061325b565b6112ea565b005b3480156105e757600080fd5b5061060260048036038101906105fd9190612e60565b611307565b60405161060f9190612e08565b60405180910390f35b610632600480360381019061062d9190612e60565b611370565b005b34801561064057600080fd5b5061065b600480360381019061065691906132de565b6113e6565b6040516106689190612d5d565b60405180910390f35b34801561067d57600080fd5b506106986004803603810190610693919061304d565b61147a565b005b3480156106a657600080fd5b506106c160048036038101906106bc9190612e60565b611558565b6040516106ce9190613467565b60405180910390f35b3480156106e357600080fd5b506106fe60048036038101906106f9919061308d565b6116b2565b005b60007f780e9d63000000000000000000000000000000000000000000000000000000007bffffffffffffffffffffffffffffffffffffffffffffffffffffffff1916827bffffffffffffffffffffffffffffffffffffffffffffffffffffffff19161480610773575061077282611738565b5b9050919050565b606060008054610789906134b8565b80601f01602080910402602001604051908101604052809291908181526020018280546107b5906134b8565b80156108025780601f106107d757610100808354040283529160200191610802565b820191906000526020600020905b8154815290600101906020018083116107e557829003601f168201915b5050505050905090565b60006108178261181a565b50610821826118a2565b9050919050565b61083a82826108356118df565b6118e7565b5050565b6108466118f9565b61085233600b54611980565b60405180606001604052803373ffffffffffffffffffffffffffffffffffffffff168152602001600081526020016000815250600c6000600b54815260200190815260200160002060008201518160000160006101000a81548173ffffffffffffffffffffffffffffffffffffffff021916908373ffffffffffffffffffffffffffffffffffffffff1602179055506020820151816001015560408201518160020155905050600d6000600b54815260200190815260200160002060405180604001604052806040518060400160405280600581526020017f6f776e657200000000000000000000000000000000000000000000000000000081525081526020013373ffffffffffffffffffffffffffffffffffffffff16815250908060018154018082558091505060019003906000526020600020906002020160009091909190915060008201518160000190816109ab9190613695565b5060208201518160010160006101000a81548173ffffffffffffffffffffffffffffffffffffffff021916908373ffffffffffffffffffffffffffffffffffffffff1602179055505050600b6000815480929190610a0890613796565b9190505550565b610a17612c72565b600c60008381526020019081526020016000206040518060600160405290816000820160009054906101000a900473ffffffffffffffffffffffffffffffffffffffff1673ffffffffffffffffffffffffffffffffffffffff1673ffffffffffffffffffffffffffffffffffffffff168152602001600182015481526020016002820154815250509050919050565b610aae6118f9565b6040518060400160405280600c60008481526020019081526020016000206002015481526020014281525060106000838152602001908152602001600020600082015181600001556020820151816001015590505050565b6000600880549050905090565b600073ffffffffffffffffffffffffffffffffffffffff168273ffffffffffffffffffffffffffffffffffffffff1603610b855760006040517f64a0ae92000000000000000000000000000000000000000000000000000000008152600401610b7c9190612ece565b60405180910390fd5b6000610b998383610b946118df565b61199e565b90508373ffffffffffffffffffffffffffffffffffffffff168173ffffffffffffffffffffffffffffffffffffffff1614610c0f578382826040517f64283d7b000000000000000000000000000000000000000000000000000000008152600401610c06939291906137de565b60405180910390fd5b50505050565b6000610c2083610e9c565b8210610c655782826040517fa57d13dc000000000000000000000000000000000000000000000000000000008152600401610c5c929190613815565b60405180910390fd5b600660008473ffffffffffffffffffffffffffffffffffffffff1673ffffffffffffffffffffffffffffffffffffffff168152602001908152602001600020600083815260200190815260200160002054905092915050565b610cc66118f9565b610cce6111dc565b73ffffffffffffffffffffffffffffffffffffffff166108fc479081150290604051600060405180830381858888f19350505050158015610d13573d6000803e3d6000fd5b50565b610d1e6118f9565b670de0b6b3a764000081610d32919061383e565b600c600084815260200190815260200160002060020181905550600c6000838152602001908152602001600020600e60008481526020019081526020016000206000820160009054906101000a900473ffffffffffffffffffffffffffffffffffffffff168160000160006101000a81548173ffffffffffffffffffffffffffffffffffffffff021916908373ffffffffffffffffffffffffffffffffffffffff16021790555060018201548160010155600282015481600201559050505050565b610e0f838383604051806020016040528060008152506112ea565b505050565b6000610e1e610b06565b8210610e64576000826040517fa57d13dc000000000000000000000000000000000000000000000000000000008152600401610e5b929190613815565b60405180910390fd5b60088281548110610e7857610e77613880565b5b90600052602060002001549050919050565b6000610e958261181a565b9050919050565b60008073ffffffffffffffffffffffffffffffffffffffff168273ffffffffffffffffffffffffffffffffffffffff1603610f0f5760006040517f89c62b64000000000000000000000000000000000000000000000000000000008152600401610f069190612ece565b60405180910390fd5b600360008373ffffffffffffffffffffffffffffffffffffffff1673ffffffffffffffffffffffffffffffffffffffff168152602001908152602001600020549050919050565b610f5e6118f9565b610f686000611abb565b565b600f600082815260200190815260200160002060010154341015610fc3576040517f08c379a0000000000000000000000000000000000000000000000000000000008152600401610fba90613921565b60405180910390fd5b6000610fce82610e8a565b90506000339050610fe0828285611b81565b600d6000600b54815260200190815260200160002060405180604001604052806040518060400160405280600581526020017f6f776e657200000000000000000000000000000000000000000000000000000081525081526020013373ffffffffffffffffffffffffffffffffffffffff16815250908060018154018082558091505060019003906000526020600020906002020160009091909190915060008201518160000190816110939190613695565b5060208201518160010160006101000a81548173ffffffffffffffffffffffffffffffffffffffff021916908373ffffffffffffffffffffffffffffffffffffffff16021790555050508173ffffffffffffffffffffffffffffffffffffffff166108fc349081150290604051600060405180830381858888f19350505050158015611123573d6000803e3d6000fd5b50600f6000848152602001908152602001600020600080820160006101000a81549073ffffffffffffffffffffffffffffffffffffffff0219169055600182016000905560028201600090555050828273ffffffffffffffffffffffffffffffffffffffff168273ffffffffffffffffffffffffffffffffffffffff167fffb1454b01d972af0c96e705dbb4911fd206f83b6f0172510ad27c695ee7a09a346040516111cf9190612fdf565b60405180910390a4505050565b6000600a60009054906101000a900473ffffffffffffffffffffffffffffffffffffffff16905090565b606060018054611215906134b8565b80601f0160208091040260200160405190810160405280929190818152602001828054611241906134b8565b801561128e5780601f106112635761010080835404028352916020019161128e565b820191906000526020600020905b81548152906001019060200180831161127157829003601f168201915b5050505050905090565b6000806010600084815260200190815260200160002060010154426112bd9190613941565b9050600062278d0090508082101592505050919050565b6112e66112df6118df565b8383611cee565b5050565b6112f5848484610b13565b61130184848484611e5d565b50505050565b60606113128261181a565b50600061131d612014565b9050600081511161133d5760405180602001604052806000815250611368565b806113478461202b565b6040516020016113589291906139b1565b6040516020818303038152906040525b915050919050565b601060008281526020019081526020016000206000015434146113c8576040517f08c379a00000000000000000000000000000000000000000000000000000000081526004016113bf90613a21565b60405180910390fd5b42601060008381526020019081526020016000206001018190555050565b6000600560008473ffffffffffffffffffffffffffffffffffffffff1673ffffffffffffffffffffffffffffffffffffffff16815260200190815260200160002060008373ffffffffffffffffffffffffffffffffffffffff1673ffffffffffffffffffffffffffffffffffffffff16815260200190815260200160002060009054906101000a900460ff16905092915050565b6114826118f9565b670de0b6b3a764000081611496919061383e565b600c600084815260200190815260200160002060010181905550600c6000838152602001908152602001600020600f60008481526020019081526020016000206000820160009054906101000a900473ffffffffffffffffffffffffffffffffffffffff168160000160006101000a81548173ffffffffffffffffffffffffffffffffffffffff021916908373ffffffffffffffffffffffffffffffffffffffff16021790555060018201548160010155600282015481600201559050505050565b6060600d6000838152602001908152602001600020805480602002602001604051908101604052809291908181526020016000905b828210156116a757838290600052602060002090600202016040518060400160405290816000820180546115c0906134b8565b80601f01602080910402602001604051908101604052809291908181526020018280546115ec906134b8565b80156116395780601f1061160e57610100808354040283529160200191611639565b820191906000526020600020905b81548152906001019060200180831161161c57829003601f168201915b505050505081526020016001820160009054906101000a900473ffffffffffffffffffffffffffffffffffffffff1673ffffffffffffffffffffffffffffffffffffffff1673ffffffffffffffffffffffffffffffffffffffff16815250508152602001906001019061158d565b505050509050919050565b6116ba6118f9565b600073ffffffffffffffffffffffffffffffffffffffff168173ffffffffffffffffffffffffffffffffffffffff160361172c5760006040517f1e4fbdf70000000000000000000000000000000000000000000000000000000081526004016117239190612ece565b60405180910390fd5b61173581611abb565b50565b60007f80ac58cd000000000000000000000000000000000000000000000000000000007bffffffffffffffffffffffffffffffffffffffffffffffffffffffff1916827bffffffffffffffffffffffffffffffffffffffffffffffffffffffff1916148061180357507f5b5e139f000000000000000000000000000000000000000000000000000000007bffffffffffffffffffffffffffffffffffffffffffffffffffffffff1916827bffffffffffffffffffffffffffffffffffffffffffffffffffffffff1916145b806118135750611812826120f9565b5b9050919050565b60008061182683612163565b9050600073ffffffffffffffffffffffffffffffffffffffff168173ffffffffffffffffffffffffffffffffffffffff160361189957826040517f7e2732890000000000000000000000000000000000000000000000000000000081526004016118909190612fdf565b60405180910390fd5b80915050919050565b60006004600083815260200190815260200160002060009054906101000a900473ffffffffffffffffffffffffffffffffffffffff169050919050565b600033905090565b6118f483838360016121a0565b505050565b6119016118df565b73ffffffffffffffffffffffffffffffffffffffff1661191f6111dc565b73ffffffffffffffffffffffffffffffffffffffff161461197e576119426118df565b6040517f118cdaa70000000000000000000000000000000000000000000000000000000081526004016119759190612ece565b60405180910390fd5b565b61199a828260405180602001604052806000815250612365565b5050565b6000806119ac858585612381565b9050600073ffffffffffffffffffffffffffffffffffffffff168173ffffffffffffffffffffffffffffffffffffffff16036119f0576119eb8461259b565b611a2f565b8473ffffffffffffffffffffffffffffffffffffffff168173ffffffffffffffffffffffffffffffffffffffff1614611a2e57611a2d81856125e4565b5b5b600073ffffffffffffffffffffffffffffffffffffffff168573ffffffffffffffffffffffffffffffffffffffff1603611a7157611a6c84612745565b611ab0565b8473ffffffffffffffffffffffffffffffffffffffff168173ffffffffffffffffffffffffffffffffffffffff1614611aaf57611aae8585612816565b5b5b809150509392505050565b6000600a60009054906101000a900473ffffffffffffffffffffffffffffffffffffffff16905081600a60006101000a81548173ffffffffffffffffffffffffffffffffffffffff021916908373ffffffffffffffffffffffffffffffffffffffff1602179055508173ffffffffffffffffffffffffffffffffffffffff168173ffffffffffffffffffffffffffffffffffffffff167f8be0079c531659141344cd1fd0a4f28419497f9722a3daafe3b4186f6b6457e060405160405180910390a35050565b600073ffffffffffffffffffffffffffffffffffffffff168273ffffffffffffffffffffffffffffffffffffffff1603611bf35760006040517f64a0ae92000000000000000000000000000000000000000000000000000000008152600401611bea9190612ece565b60405180910390fd5b6000611c018383600061199e565b9050600073ffffffffffffffffffffffffffffffffffffffff168173ffffffffffffffffffffffffffffffffffffffff1603611c7457816040517f7e273289000000000000000000000000000000000000000000000000000000008152600401611c6b9190612fdf565b60405180910390fd5b8373ffffffffffffffffffffffffffffffffffffffff168173ffffffffffffffffffffffffffffffffffffffff1614611ce8578382826040517f64283d7b000000000000000000000000000000000000000000000000000000008152600401611cdf939291906137de565b60405180910390fd5b50505050565b600073ffffffffffffffffffffffffffffffffffffffff168273ffffffffffffffffffffffffffffffffffffffff1603611d5f57816040517f5b08ba18000000000000000000000000000000000000000000000000000000008152600401611d569190612ece565b60405180910390fd5b80600560008573ffffffffffffffffffffffffffffffffffffffff1673ffffffffffffffffffffffffffffffffffffffff16815260200190815260200160002060008473ffffffffffffffffffffffffffffffffffffffff1673ffffffffffffffffffffffffffffffffffffffff16815260200190815260200160002060006101000a81548160ff0219169083151502179055508173ffffffffffffffffffffffffffffffffffffffff168373ffffffffffffffffffffffffffffffffffffffff167f17307eab39ab6107e8899845ad3d59bd9653f200f220920489ca2b5937696c3183604051611e509190612d5d565b60405180910390a3505050565b60008373ffffffffffffffffffffffffffffffffffffffff163b111561200e578273ffffffffffffffffffffffffffffffffffffffff1663150b7a02611ea16118df565b8685856040518563ffffffff1660e01b8152600401611ec39493929190613a96565b6020604051808303816000875af1925050508015611eff57506040513d601f19601f82011682018060405250810190611efc9190613af7565b60015b611f83573d8060008114611f2f576040519150601f19603f3d011682016040523d82523d6000602084013e611f34565b606091505b506000815103611f7b57836040517f64a0ae92000000000000000000000000000000000000000000000000000000008152600401611f729190612ece565b60405180910390fd5b805181602001fd5b63150b7a0260e01b7bffffffffffffffffffffffffffffffffffffffffffffffffffffffff1916817bffffffffffffffffffffffffffffffffffffffffffffffffffffffff19161461200c57836040517f64a0ae920000000000000000000000000000000000000000000000000000000081526004016120039190612ece565b60405180910390fd5b505b50505050565b606060405180602001604052806000815250905090565b60606000600161203a846128a1565b01905060008167ffffffffffffffff81111561205957612058613130565b5b6040519080825280601f01601f19166020018201604052801561208b5781602001600182028036833780820191505090505b509050600082602001820190505b6001156120ee578080600190039150507f3031323334353637383961626364656600000000000000000000000000000000600a86061a8153600a85816120e2576120e1613b24565b5b04945060008503612099575b819350505050919050565b60007f01ffc9a7000000000000000000000000000000000000000000000000000000007bffffffffffffffffffffffffffffffffffffffffffffffffffffffff1916827bffffffffffffffffffffffffffffffffffffffffffffffffffffffff1916149050919050565b60006002600083815260200190815260200160002060009054906101000a900473ffffffffffffffffffffffffffffffffffffffff169050919050565b80806121d95750600073ffffffffffffffffffffffffffffffffffffffff168273ffffffffffffffffffffffffffffffffffffffff1614155b1561230d5760006121e98461181a565b9050600073ffffffffffffffffffffffffffffffffffffffff168373ffffffffffffffffffffffffffffffffffffffff161415801561225457508273ffffffffffffffffffffffffffffffffffffffff168173ffffffffffffffffffffffffffffffffffffffff1614155b8015612267575061226581846113e6565b155b156122a957826040517fa9fbf51f0000000000000000000000000000000000000000000000000000000081526004016122a09190612ece565b60405180910390fd5b811561230b57838573ffffffffffffffffffffffffffffffffffffffff168273ffffffffffffffffffffffffffffffffffffffff167f8c5be1e5ebec7d5bd14f71427d1e84f3dd0314c0f7b2291e5b200ac8c7c3b92560405160405180910390a45b505b836004600085815260200190815260200160002060006101000a81548173ffffffffffffffffffffffffffffffffffffffff021916908373ffffffffffffffffffffffffffffffffffffffff16021790555050505050565b61236f83836129f4565b61237c6000848484611e5d565b505050565b60008061238d84612163565b9050600073ffffffffffffffffffffffffffffffffffffffff168373ffffffffffffffffffffffffffffffffffffffff16146123cf576123ce818486612aed565b5b600073ffffffffffffffffffffffffffffffffffffffff168173ffffffffffffffffffffffffffffffffffffffff1614612460576124116000856000806121a0565b6001600360008373ffffffffffffffffffffffffffffffffffffffff1673ffffffffffffffffffffffffffffffffffffffff168152602001908152602001600020600082825403925050819055505b600073ffffffffffffffffffffffffffffffffffffffff168573ffffffffffffffffffffffffffffffffffffffff16146124e3576001600360008773ffffffffffffffffffffffffffffffffffffffff1673ffffffffffffffffffffffffffffffffffffffff168152602001908152602001600020600082825401925050819055505b846002600086815260200190815260200160002060006101000a81548173ffffffffffffffffffffffffffffffffffffffff021916908373ffffffffffffffffffffffffffffffffffffffff160217905550838573ffffffffffffffffffffffffffffffffffffffff168273ffffffffffffffffffffffffffffffffffffffff167fddf252ad1be2c89b69c2b068fc378daa952ba7f163c4a11628f55a4df523b3ef60405160405180910390a4809150509392505050565b6008805490506009600083815260200190815260200160002081905550600881908060018154018082558091505060019003906000526020600020016000909190919091505550565b60006125ef83610e9c565b90506000600760008481526020019081526020016000205490508181146126d4576000600660008673ffffffffffffffffffffffffffffffffffffffff1673ffffffffffffffffffffffffffffffffffffffff168152602001908152602001600020600084815260200190815260200160002054905080600660008773ffffffffffffffffffffffffffffffffffffffff1673ffffffffffffffffffffffffffffffffffffffff168152602001908152602001600020600084815260200190815260200160002081905550816007600083815260200190815260200160002081905550505b6007600084815260200190815260200160002060009055600660008573ffffffffffffffffffffffffffffffffffffffff1673ffffffffffffffffffffffffffffffffffffffff16815260200190815260200160002060008381526020019081526020016000206000905550505050565b600060016008805490506127599190613941565b905060006009600084815260200190815260200160002054905060006008838154811061278957612788613880565b5b9060005260206000200154905080600883815481106127ab576127aa613880565b5b9060005260206000200181905550816009600083815260200190815260200160002081905550600960008581526020019081526020016000206000905560088054806127fa576127f9613b53565b5b6001900381819060005260206000200160009055905550505050565b6000600161282384610e9c565b61282d9190613941565b905081600660008573ffffffffffffffffffffffffffffffffffffffff1673ffffffffffffffffffffffffffffffffffffffff168152602001908152602001600020600083815260200190815260200160002081905550806007600084815260200190815260200160002081905550505050565b600080600090507a184f03e93ff9f4daa797ed6e38ed64bf6a1f01000000000000000083106128ff577a184f03e93ff9f4daa797ed6e38ed64bf6a1f01000000000000000083816128f5576128f4613b24565b5b0492506040810190505b6d04ee2d6d415b85acef8100000000831061293c576d04ee2d6d415b85acef8100000000838161293257612931613b24565b5b0492506020810190505b662386f26fc10000831061296b57662386f26fc10000838161296157612960613b24565b5b0492506010810190505b6305f5e1008310612994576305f5e100838161298a57612989613b24565b5b0492506008810190505b61271083106129b95761271083816129af576129ae613b24565b5b0492506004810190505b606483106129dc57606483816129d2576129d1613b24565b5b0492506002810190505b600a83106129eb576001810190505b80915050919050565b600073ffffffffffffffffffffffffffffffffffffffff168273ffffffffffffffffffffffffffffffffffffffff1603612a665760006040517f64a0ae92000000000000000000000000000000000000000000000000000000008152600401612a5d9190612ece565b60405180910390fd5b6000612a748383600061199e565b9050600073ffffffffffffffffffffffffffffffffffffffff168173ffffffffffffffffffffffffffffffffffffffff1614612ae85760006040517f73c6ac6e000000000000000000000000000000000000000000000000000000008152600401612adf9190612ece565b60405180910390fd5b505050565b612af8838383612bb1565b612bac57600073ffffffffffffffffffffffffffffffffffffffff168373ffffffffffffffffffffffffffffffffffffffff1603612b6d57806040517f7e273289000000000000000000000000000000000000000000000000000000008152600401612b649190612fdf565b60405180910390fd5b81816040517f177e802f000000000000000000000000000000000000000000000000000000008152600401612ba3929190613815565b60405180910390fd5b505050565b60008073ffffffffffffffffffffffffffffffffffffffff168373ffffffffffffffffffffffffffffffffffffffff1614158015612c6957508273ffffffffffffffffffffffffffffffffffffffff168473ffffffffffffffffffffffffffffffffffffffff161480612c2a5750612c2984846113e6565b5b80612c6857508273ffffffffffffffffffffffffffffffffffffffff16612c50836118a2565b73ffffffffffffffffffffffffffffffffffffffff16145b5b90509392505050565b6040518060600160405280600073ffffffffffffffffffffffffffffffffffffffff16815260200160008152602001600081525090565b6000604051905090565b600080fd5b600080fd5b60007fffffffff0000000000000000000000000000000000000000000000000000000082169050919050565b612cf281612cbd565b8114612cfd57600080fd5b50565b600081359050612d0f81612ce9565b92915050565b600060208284031215612d2b57612d2a612cb3565b5b6000612d3984828501612d00565b91505092915050565b60008115159050919050565b612d5781612d42565b82525050565b6000602082019050612d726000830184612d4e565b92915050565b600081519050919050565b600082825260208201905092915050565b60005b83811015612db2578082015181840152602081019050612d97565b60008484015250505050565b6000601f19601f8301169050919050565b6000612dda82612d78565b612de48185612d83565b9350612df4818560208601612d94565b612dfd81612dbe565b840191505092915050565b60006020820190508181036000830152612e228184612dcf565b905092915050565b6000819050919050565b612e3d81612e2a565b8114612e4857600080fd5b50565b600081359050612e5a81612e34565b92915050565b600060208284031215612e7657612e75612cb3565b5b6000612e8484828501612e4b565b91505092915050565b600073ffffffffffffffffffffffffffffffffffffffff82169050919050565b6000612eb882612e8d565b9050919050565b612ec881612ead565b82525050565b6000602082019050612ee36000830184612ebf565b92915050565b612ef281612ead565b8114612efd57600080fd5b50565b600081359050612f0f81612ee9565b92915050565b60008060408385031215612f2c57612f2b612cb3565b5b6000612f3a85828601612f00565b9250506020612f4b85828601612e4b565b9150509250929050565b612f5e81612ead565b82525050565b612f6d81612e2a565b82525050565b606082016000820151612f896000850182612f55565b506020820151612f9c6020850182612f64565b506040820151612faf6040850182612f64565b50505050565b6000606082019050612fca6000830184612f73565b92915050565b612fd981612e2a565b82525050565b6000602082019050612ff46000830184612fd0565b92915050565b60008060006060848603121561301357613012612cb3565b5b600061302186828701612f00565b935050602061303286828701612f00565b925050604061304386828701612e4b565b9150509250925092565b6000806040838503121561306457613063612cb3565b5b600061307285828601612e4b565b925050602061308385828601612e4b565b9150509250929050565b6000602082840312156130a3576130a2612cb3565b5b60006130b184828501612f00565b91505092915050565b6130c381612d42565b81146130ce57600080fd5b50565b6000813590506130e0816130ba565b92915050565b600080604083850312156130fd576130fc612cb3565b5b600061310b85828601612f00565b925050602061311c858286016130d1565b9150509250929050565b600080fd5b600080fd5b7f4e487b7100000000000000000000000000000000000000000000000000000000600052604160045260246000fd5b61316882612dbe565b810181811067ffffffffffffffff8211171561318757613186613130565b5b80604052505050565b600061319a612ca9565b90506131a6828261315f565b919050565b600067ffffffffffffffff8211156131c6576131c5613130565b5b6131cf82612dbe565b9050602081019050919050565b82818337600083830152505050565b60006131fe6131f9846131ab565b613190565b90508281526020810184848401111561321a5761321961312b565b5b6132258482856131dc565b509392505050565b600082601f83011261324257613241613126565b5b81356132528482602086016131eb565b91505092915050565b6000806000806080858703121561327557613274612cb3565b5b600061328387828801612f00565b945050602061329487828801612f00565b93505060406132a587828801612e4b565b925050606085013567ffffffffffffffff8111156132c6576132c5612cb8565b5b6132d28782880161322d565b91505092959194509250565b600080604083850312156132f5576132f4612cb3565b5b600061330385828601612f00565b925050602061331485828601612f00565b9150509250929050565b600081519050919050565b600082825260208201905092915050565b6000819050602082019050919050565b600082825260208201905092915050565b600061336682612d78565b613370818561334a565b9350613380818560208601612d94565b61338981612dbe565b840191505092915050565b600060408301600083015184820360008601526133b1828261335b565b91505060208301516133c66020860182612f55565b508091505092915050565b60006133dd8383613394565b905092915050565b6000602082019050919050565b60006133fd8261331e565b6134078185613329565b9350836020820285016134198561333a565b8060005b85811015613455578484038952815161343685826133d1565b9450613441836133e5565b925060208a0199505060018101905061341d565b50829750879550505050505092915050565b6000602082019050818103600083015261348181846133f2565b905092915050565b7f4e487b7100000000000000000000000000000000000000000000000000000000600052602260045260246000fd5b600060028204905060018216806134d057607f821691505b6020821081036134e3576134e2613489565b5b50919050565b60008190508160005260206000209050919050565b60006020601f8301049050919050565b600082821b905092915050565b60006008830261354b7fffffffffffffffffffffffffffffffffffffffffffffffffffffffffffffffff8261350e565b613555868361350e565b95508019841693508086168417925050509392505050565b6000819050919050565b600061359261358d61358884612e2a565b61356d565b612e2a565b9050919050565b6000819050919050565b6135ac83613577565b6135c06135b882613599565b84845461351b565b825550505050565b600090565b6135d56135c8565b6135e08184846135a3565b505050565b5b81811015613604576135f96000826135cd565b6001810190506135e6565b5050565b601f8211156136495761361a816134e9565b613623846134fe565b81016020851015613632578190505b61364661363e856134fe565b8301826135e5565b50505b505050565b600082821c905092915050565b600061366c6000198460080261364e565b1980831691505092915050565b6000613685838361365b565b9150826002028217905092915050565b61369e82612d78565b67ffffffffffffffff8111156136b7576136b6613130565b5b6136c182546134b8565b6136cc828285613608565b600060209050601f8311600181146136ff57600084156136ed578287015190505b6136f78582613679565b86555061375f565b601f19841661370d866134e9565b60005b8281101561373557848901518255600182019150602085019450602081019050613710565b86831015613752578489015161374e601f89168261365b565b8355505b6001600288020188555050505b505050505050565b7f4e487b7100000000000000000000000000000000000000000000000000000000600052601160045260246000fd5b60006137a182612e2a565b91507fffffffffffffffffffffffffffffffffffffffffffffffffffffffffffffffff82036137d3576137d2613767565b5b600182019050919050565b60006060820190506137f36000830186612ebf565b6138006020830185612fd0565b61380d6040830184612ebf565b949350505050565b600060408201905061382a6000830185612ebf565b6138376020830184612fd0565b9392505050565b600061384982612e2a565b915061385483612e2a565b925082820261386281612e2a565b9150828204841483151761387957613878613767565b5b5092915050565b7f4e487b7100000000000000000000000000000000000000000000000000000000600052603260045260246000fd5b7f496e73756666696369656e742066756e647320746f207075726368617365207460008201527f68652070726f7065727479000000000000000000000000000000000000000000602082015250565b600061390b602b83612d83565b9150613916826138af565b604082019050919050565b6000602082019050818103600083015261393a816138fe565b9050919050565b600061394c82612e2a565b915061395783612e2a565b925082820390508181111561396f5761396e613767565b5b92915050565b600081905092915050565b600061398b82612d78565b6139958185613975565b93506139a5818560208601612d94565b80840191505092915050565b60006139bd8285613980565b91506139c98284613980565b91508190509392505050565b7f496e636f72726563742072656e7420616d6f756e740000000000000000000000600082015250565b6000613a0b601583612d83565b9150613a16826139d5565b602082019050919050565b60006020820190508181036000830152613a3a816139fe565b9050919050565b600081519050919050565b600082825260208201905092915050565b6000613a6882613a41565b613a728185613a4c565b9350613a82818560208601612d94565b613a8b81612dbe565b840191505092915050565b6000608082019050613aab6000830187612ebf565b613ab86020830186612ebf565b613ac56040830185612fd0565b8181036060830152613ad78184613a5d565b905095945050505050565b600081519050613af181612ce9565b92915050565b600060208284031215613b0d57613b0c612cb3565b5b6000613b1b84828501613ae2565b91505092915050565b7f4e487b7100000000000000000000000000000000000000000000000000000000600052601260045260246000fd5b7f4e487b7100000000000000000000000000000000000000000000000000000000600052603160045260246000fdfea264697066735822122017b0eb6c3e7bea4a2a4d597d701850dc1d724f66adc9d17a7d547f639b7788e864736f6c63430008140033",
  "linkReferences": {},
  "deployedLinkReferences": {}
}